:100000000C9434000C9451000C9451000C94510049
:100010000C9451000C9451000C9451000C9451001C
:100020000C9451000C9451000C9451000C9451000C
:100030000C9451000C9451000C9451000C945100FC
:100040000C9451000C9451000C9476020C94AB0269
:100050000C9451000C9451000C9451000C945100DC
:100060000C9451000C94510011241FBECFEFD8E026
:10007000DEBFCDBF11E0A0E0B1E0E2EEF8E002C0EB
:1000800005900D92AA3CB107D9F722E0AAECB1E0A5
:1000900001C01D92AF3CB207E1F70E94D8030C9457
:1000A0006F040C9400000F931F93CF93DF938B0189
:1000B000442311F1E9012F96F90187859089892B55
:1000C000F1F189E00E942F0388810E942F038AE0CA
:1000D0000E942F03888199818017910799F18A8165
:1000E000880F990B0396C80FD91F88819981892B96
:1000F00041F780E090E02EC0E9012F96F901878555
:100100009089892B11F189E00E942F0388810E9438
:100110002F038AE00E942F0388819981801791071D
:10012000B9F08A81082E000C990B0396C80FD91FCD
:1001300088819981892B39F780E090E00BC080E0BD
:1001400090E008C08C2F9D2F05C080E090E002C099
:100150008C2F9D2FDF91CF911F910F910895EF92DA
:10016000FF921F93CF93DF931F92CDB7DEB77C0131
:10017000FC01128185E291E00E944803F701EE5FE5
:10018000FD4F8081918118161906BCF4EF5FF14094
:1001900020E030E04FEFD701AE5FBD4F4BB91BB948
:1001A00089818F5F89831BB82F5F3F4F11918D919C
:1001B0009C911197281739078CF30F90DF91CF91FD
:1001C0001F91FF90EF9008952F923F924F925F9270
:1001D0006F927F928F929F92AF92BF92CF92DF9257
:1001E000EF92FF920F931F93CF93DF93CDB7DEB7BC
:1001F0002B970FB6F894DEBF0FBECDBF4C011B018D
:100200004B83FB01828118160CF083C0A12CC40122
:100210008E5F9D4F9A838983DC821D83EE822F83BC
:10022000C8860987512C412C77247A9466246A94D5
:10023000CF2C9B81992341F0EA2DEE0FFF0BE20DAD
:10024000F31D438154815EC0F101EA0DF11DA7FC4D
:10025000FA954381042E000C550B54C09701E1E040
:10026000DE1641F0F2E0DF1641F0D11008C0B8848C
:10027000C98405C0BC80CD8002C0BE80CF80F7019C
:100280003296E80DF91D88E0E80EF11C870180E840
:100290006C2D0C2C000C770BAB2D0B2C000CBB0B1E
:1002A0007B876A8790E06A857B8568237923672B43
:1002B00041F0BD0168237923672B69F0472D562D46
:1002C0000AC0BD0168237923672B19F0409550952A
:1002D00002C0452D542D2F5F3F4F41939595879533
:1002E00002171307F9F6D39493E0D912B7CFE98137
:1002F000FA8131832083A394F1018281A8160CF442
:1003000098CF07C0E981FA8100811181D12C780151
:10031000A5CF80E02B960FB6F894DEBF0FBECDBF01
:10032000DF91CF911F910F91FF90EF90DF90CF90D1
:10033000BF90AF909F908F907F906F905F904F9005
:100340003F902F9008952F923F925F926F927F92ED
:100350008F929F92AF92BF92CF92DF92EF92FF92D5
:100360000F931F93CF93DF93CDB7DEB728970FB6C8
:10037000F894DEBF0FBECDBF4C011B013A010B83C9
:100380001C832D83CE82DF82E886FC01EE5FFD4F69
:100390001182108255245394FB01808589300CF41E
:1003A000512C88E391E00E9448038FEF8AB91BB873
:1003B000552019F08FE787B918B8F3018081882399
:1003C00009F462C020E030E0F12C8823BCF4D301B2
:1003D000A20FB31F11968C9188234CF480819181D8
:1003E000A2818A839B83AC83F3E0FF0E0DC08081E2
:1003F00091819C838B83F394F39406C0082E000CA8
:10040000990B9A838983F394B980AA808B2D0E94DB
:100410002F038AE00E942F0381E491E00E944803A9
:100420009101452D6B2D7A2DC4010E9453005C0172
:10043000892B31F48EE491E00E94480381E028C0CA
:1004400083E691E00E944803F50180810E942F031A
:100450008AE00E942F038AE691E00E944803CE8042
:10046000DF80E8840B811C812D81452DB501C401FD
:100470000E94E4002F2D0F2C000C330BF301E20F30
:10048000F31F80818111A1CFC4010E94AF0080E0E1
:1004900028960FB6F894DEBF0FBECDBFDF91CF9187
:1004A0001F910F91FF90EF90DF90CF90BF90AF9092
:1004B0009F908F907F906F905F903F902F900895C6
:1004C000CF92DF92EF920F931F93FB01C484D584E8
:1004D000E6840185128523850E94A3011F910F9157
:1004E000EF90DF90CF900895089508951F920F9296
:1004F0000FB60F9211242F933F934F935F938F93D7
:100500009F93EF93FF932091C0003091C600287114
:100510008091CC0190E001968F7799274091CB0193
:1005200050E04817590739F08093CC01FC01E153A2
:10053000FE4F308301C022E02093CA01FF91EF916A
:100540009F918F915F914F913F912F910F900FBE8F
:100550000F901F9018951F920F920FB60F921124B3
:100560008F939F93EF93FF939091CE018091CD0154
:10057000981779F08091CD0190E001968F779927B7
:100580008093CD01FC01E15BFD4F80818093C6002B
:1005900005C0E1ECF0E080818F7D8083FF91EF91D9
:1005A0009F918F910F900FBE0F901F901895F89408
:1005B0001092CE011092CD011092CC011092CB017D
:1005C0007894992324F422E02093C0009F7790939D
:1005D000C5008093C40088E98093C10086E08093C1
:1005E000C2000895F8949091CC018091CB019813AA
:1005F00004C0789480E091E0089578948091CB01D4
:1006000090E001968F7799278093CB01FC01E1530D
:10061000FE4F20818091CA0190E0982F8827820F99
:10062000911D0895F8949091CC018091CB0198137D
:1006300004C0789480E091E008957894E091CB0133
:10064000F0E03196EF77FF27E153FE4F2081809154
:10065000CA0190E0982F8827820F911D089540913C
:10066000CE0150E04F5F5F4F4F7755272091CD016E
:1006700030E024173507D1F3FA01E15BFD4F8083A9
:100680004093CE01E1ECF0E08081806280830895A8
:10069000CF93DF93EC018881882331F021960E946B
:1006A0002F0389918111FBCFDF91CF910895CF93D3
:1006B000DF93EC012196FC018491882339F00E949C
:1006C0002F03FE01849121968111F9CFDF91CF9103
:1006D0000895F8948091CC012091CB01789490E01A
:1006E00080589F4F821B91098F7799270895F8941E
:1006F0008091CB018093CC0178940895CF93DF93C0
:100700001F92CDB7DEB7198289818F5F8983898176
:100710008F5F898389818F5F898389818F5F8983D7
:1007200089818F5F89831BB88FEF8AB938E048E1F0
:100730002FEF0AC02BB92BB91BB889818F5F898332
:100740009150C1F7315011F0942FF4CF0F90DF91F9
:10075000CF910895CF93DF931F92CDB7DEB71BB82B
:100760008FEF8AB92FEF80E792E0215080409040D0
:10077000E1F700C0000020E032E09FEF19829BB952
:1007800089818981181634F089818F5F89838981F5
:100790001816D4F71BB8EFECF7E03197F1F700C06B
:1007A00000002150310951F70F90DF91CF9108954A
:1007B000CF93DF93CDB7DEB7C450D4400FB6F894D3
:1007C000DEBF0FBECDBFCE0101960E9474028FEF37
:1007D0008AB98BB983E390E00E94D70287E791E062
:1007E0000E9448038FE0E6E1F1E0DE01AB5FBD4F20
:1007F00001900D928A95E1F7809113019091140177
:10080000A0911501CC5EDD4F88839983AA83C451E2
:10081000D24088E0E8E0F1E0A5E0B2E0AC0FBD1F17
:10082000529601900D928A95E1F780911001909176
:100830001101A0911201C15EDD4F88839983AA83C3
:10084000CF51D24088E0E0E0F1E0A5E0B2E0AC0FAB
:10085000BD1F5D9601900D928A95E1F7C65DDD4F53
:10086000188219821A82CA52D24084E891E00E940A
:10087000480385E991E00E944803CE018B5F9D4FBC
:100880000E9448038AE00E942F0381EA91E00E94BF
:100890004803CC5EDD4F8881C451D2400E942F03B3
:1008A0008AE00E942F038EEA91E00E944803C15E15
:1008B000DD4F8881CF51D2400E942F038AE00E94F1
:1008C0002F034CEB51E0BE016B5F7D4FCE010196D3
:1008D0000E9460028FEB91E00E944803FFCFF894E2
:0208E000FFCF48
:1008E20081C366243C3CFFFF7E8181818181817EC0
:1008F2004B00084F000853616D706C65000008B42E
:1009020064B43C783C46696E616C207374726561B4
:100912006D696E672E2E0A0053686F77696E673AAB
:1009220000536561726368696E672E2E0A00636800
:1009320061725F64657363206E6F7420666F756E9B
:10094200640A00466F756E64200053747265616DAF
:10095200696E672E2E0A00426567696E6E696E6760
:100962002E2E0A0054657374696E6720666F6E746A
:10097200202E2E0A00466F6E74206E616D653A0954
:1009820000466972737420636861723A09005365A4
:10099200636F6E6420636861723A09004F4B0046D0
:0A09A200696E69736865642E0A002F
:00000001FF
