:100000000C9434000C9451000C9451000C94510049
:100010000C9451000C9451000C9451000C9451001C
:100020000C9451000C9451000C9451000C9451000C
:100030000C9451000C9451000C9451000C945100FC
:100040000C9451000C9451000C9475020C94AA026B
:100050000C9451000C9451000C9451000C945100DC
:100060000C9451000C94510011241FBECFEFD8E026
:10007000DEBFCDBF11E0A0E0B1E0E2E4F9E002C0F4
:1000800005900D92AC3EB107D9F722E0ACEEB1E09D
:1000900001C01D92A13FB207E1F70E94D7030C9463
:1000A0009F040C9400000F931F93CF93DF938B0159
:1000B000442311F1E9012F96F90187859089892B55
:1000C000F1F189E00E942E0388810E942E038AE0CC
:1000D0000E942E03888199818017910799F18A8166
:1000E000880F990B0396C80FD91F88819981892B96
:1000F00041F780E090E02EC0E9012F96F901878555
:100100009089892B11F189E00E942E0388810E9439
:100110002E038AE00E942E0388819981801791071F
:10012000B9F08A81082E000C990B0396C80FD91FCD
:1001300088819981892B39F780E090E00BC080E0BD
:1001400090E008C08C2F9D2F05C080E090E002C099
:100150008C2F9D2FDF91CF911F910F9108952F929A
:100160003F924F925F926F927F928F929F92AF9247
:10017000BF92CF92DF92EF92FF920F931F93CF9394
:10018000DF93CDB7DEB727970FB6F894DEBF0FBE6B
:10019000CDBFFC01EE5FFE4F0190F081E02D1E16F9
:1001A0001F060CF44CC06AC0113039F0123041F017
:1001B000111108C0FE80EF8005C0FA80EB8002C0FC
:1001C000FC80ED80292D3A2D8B2DEF2D0F2C000C6E
:1001D000FF0B6E2D0E2C000C770B90E0AF01482327
:1001E0005923452B39F0AB0148235923452B51F4B2
:1001F0004C910BC0AB0148235923452B29F04C915E
:10020000409503C0402F01C04D2D959587952150F5
:10021000310919F78BB84BB989818F5F8983CBB8C6
:100220001F5F1196133009F0BFCF2FEF621A720AC9
:10023000F2018081918168167906ECF01FC0612C73
:10024000712C1C01F2E02F0E311CC12C88248A94E1
:100250005A831B836C832D834E830F836894992468
:1002600093F8A12C6894BB24B7F8D12C082D2C014D
:100270002EEF421A520AD1011C2D96CF27960FB6A7
:10028000F894DEBF0FBECDBFDF91CF911F910F91CC
:10029000FF90EF90DF90CF90BF90AF909F908F90A6
:1002A0007F906F905F904F903F902F900895EF92C6
:1002B000FF920F931F93CF93DF938C01DB01129674
:1002C0008C911297181674F590E0E801CE5FDE4F1E
:1002D000442341F0E92FEE0FFF0BEA0FFB1FE380F1
:1002E000F48009C0FD01E90FF11D97FDFA95E38146
:1002F000EE2EEE0FFF0828813981211581E03807A5
:1003000098F4B9016F5F7F4F79836883200F311FA5
:10031000F901E2829F5F12968C9112979817C4F2AE
:1003200080E003C080E001C08EEFDF91CF911F918C
:100330000F91FF90EF9008952F923F925F926F92EE
:100340007F928F929F92AF92BF92CF92DF92EF9265
:10035000FF920F931F93CF93DF93CDB7DEB728970C
:100360000FB6F894DEBF0FBECDBF4C011B013A01A2
:100370000B831C832D83CE82DF82E886FC01EE5F37
:10038000FE4F1182108255245394FB0180858930E1
:100390000CF4512C85E291E00E9447038FEF8AB95B
:1003A0001BB8552019F08FE787B918B8F301808181
:1003B000882309F462C020E030E0F12C8823BCF4EB
:1003C000D301A20FB31F11968C9188234CF4808126
:1003D0009181A2818A839B83AC83F3E0FF0E0DC0E1
:1003E000808191819C838B83F394F39406C0082EC3
:1003F000000C990B9A838983F394B980AA808B2D82
:100400000E942E038AE00E942E038EE291E00E9459
:1004100047039101452D6B2D7A2DC4010E94530095
:100420005C01892B31F48BE391E00E94470381E06A
:100430002EC080E591E00E944703F50180810E9473
:100440002E038AE00E942E0387E591E00E94470375
:10045000CE80DF80E8840B811C812D81452DB50184
:10046000C4010E9457012F2D0F2C000C330BF301F8
:10047000E20FF31F80818111A1CF0E811F8128859A
:100480004B815C816D81C4010E94AF0080E02896A1
:100490000FB6F894DEBF0FBECDBFDF91CF911F9195
:1004A0000F91FF90EF90DF90CF90BF90AF909F9013
:1004B0008F907F906F905F903F902F900895CF9294
:1004C000DF92EF920F931F93FB01C484D584E684DF
:1004D0000185128523850E949C011F910F91EF9049
:1004E000DF90CF900895089508951F920F920FB650
:1004F0000F9211242F933F934F935F938F939F936A
:10050000EF93FF932091C0003091C6002871809135
:10051000EE0190E001968F7799274091ED0150E030
:100520004817590739F08093EE01FC01EF50FE4F58
:10053000308301C022E02093EC01FF91EF919F9165
:100540008F915F914F913F912F910F900FBE0F9020
:100550001F9018951F920F920FB60F9211248F9330
:100560009F93EF93FF939091F0018091EF01981783
:1005700079F08091EF0190E001968F779927809331
:10058000EF01FC01EF58FD4F80818093C60005C04C
:10059000E1ECF0E080818F7D8083FF91EF919F916E
:1005A0008F910F900FBE0F901F901895F894109296
:1005B000F0011092EF011092EE011092ED0178948B
:1005C000992324F422E02093C0009F779093C500E4
:1005D0008093C40088E98093C10086E08093C200C4
:1005E0000895F8949091EE018091ED01981304C064
:1005F000789480E091E0089578948091ED0190E006
:1006000001968F7799278093ED01FC01EF50FE4F03
:1006100020818091EC0190E0982F8827820F911D16
:100620000895F8949091EE018091ED01981304C023
:10063000789480E091E008957894E091ED01F0E005
:100640003196EF77FF27EF50FE4F20818091EC012C
:1006500090E0982F8827820F911D08954091F00116
:1006600050E04F5F5F4F4F7755272091EF0130E00B
:1006700024173507D1F3FA01EF58FD4F80834093DB
:10068000F001E1ECF0E08081806280830895CF93F7
:10069000DF93EC018881882331F021960E942E039C
:1006A00089918111FBCFDF91CF910895CF93DF9393
:1006B000EC012196FC018491882339F00E942E03DD
:1006C000FE01849121968111F9CFDF91CF91089598
:1006D000F8948091EE012091ED01789490E080589B
:1006E0009F4F821B91098F7799270895F8948091E5
:1006F000ED018093EE0178940895CF93DF931F92DC
:10070000CDB7DEB7198289818F5F898389818F5F39
:10071000898389818F5F898389818F5F89838981BB
:100720008F5F89831BB88FEF8AB938E048E12FEFDC
:100730000AC02BB92BB91BB889818F5F898391506F
:10074000C1F7315011F0942FF4CF0F90DF91CF917A
:100750000895CF93DF931F92CDB7DEB71BB88FEF0D
:100760008AB92FEF80E792E0215080409040E1F776
:1007700000C0000020E032E09FEF19829BB9898120
:100780008981181634F089818F5F898389811816D1
:10079000D4F71BB8EFECF7E03197F1F700C0000099
:1007A0002150310951F70F90DF91CF910895CF93E8
:1007B000DF93CDB7DEB7C452D2400FB6F894DEBF98
:1007C0000FBECDBFCE0101960E9473028FEF8AB992
:1007D0008BB983E390E00E94D60284E691E00E9408
:1007E00047038FE0E6E1F1E0DE01AB5FBE4F019031
:1007F0000D928A95E1F78091130190911401A091D7
:100800001501CC5EDE4F88839983AA83C451D14001
:1008100088E0E8E0F1E0A5E0B1E0AC0FBD1F529642
:1008200001900D928A95E1F780911001909111014C
:10083000A0911201C15EDE4F88839983AA83CF51B4
:10084000D14088E0E0E0F1E0A5E0B1E0AC0FBD1FF1
:100850005D9601900D928A95E1F7C65DDE4F188294
:1008600019821A82CA52D14081E791E00E9447035F
:1008700082E891E00E944703CE018B5F9E4F0E9469
:1008800047038AE00E942E038EE891E00E9447030E
:10089000CC5EDE4F8881C451D1400E942E038AE095
:1008A0000E942E038BE991E00E944703C15EDE4F58
:1008B0008881CF51D1400E942E038AE00E942E03EE
:1008C00049EA51E0BE016B5F7E4FCE0101960E9466
:1008D0005F028CEA91E00E94470387EB91E00E945F
:1008E0004703F12C0E946803892B81F4FBCF01E0C0
:1008F000010F0E94F102E5E0F2E0EC0FFD1FE10FB5
:10090000F11D17FDFA958083102F01C01F2D0E9445
:100910006803892B61F7E5E0F2E0EC0FFD1FE10FC2
:10092000F11D17FDFA951082AE014B5F5D4FBE01C0
:100930006B5F7E4FCE0101960E945F02D3CFF89489
:02094000FFCFE7
:1009420081C366243C3CFFFF7E8181818181817E5F
:100952004B00084F000853616D706C65000008B4CD
:1009620064B43C783C53686F77696E673A005365AC
:1009720061726368696E672E2E0A00636861725F36
:1009820064657363206E6F7420666F756E640A000F
:10099200466F756E64200053747265616D696E678F
:1009A2002E2E0A00426567696E6E696E672E2E0AE8
:1009B2000054657374696E6720666F6E74202E2E04
:1009C2000A00466F6E74206E616D653A09004669D1
:1009D20072737420636861723A09005365636F6EC3
:1009E2006420636861723A09004F4B0046696E6980
:1009F200736865642E0A0057616974696E672066C0
:100A02006F7220636F6D6D616E64206E6F772E2042
:100A120053656E6420616E7920737472696E67200B
:0C0A2200746F2073747265616D0A00002F
:00000001FF
