:100000000C9472000C9493000C9493000C94930045
:100010000C9493000C9493000C9493000C94930014
:100020000C9493000C9493000C9493000C94930004
:100030000C9493000C9493000C9493000C949300F4
:100040000C9493000C9493000C9493000C949300E4
:100050000C9493000C9493000C9493000C949300D4
:100060000C9493000C94C0020C94F9020C9493002D
:100070000C9493000C9493000C9493000C949300B4
:100080000C9493000C9493000C9493000C949300A4
:100090000C9493000C9493000C9493000C94930094
:1000A0000C9493000C9493000C9493000C94930084
:1000B0000C9493000C9493000C9493000C94930074
:1000C0000C9493000C9493000C9493000C94930064
:1000D0000C9493000C9493000C9493000C94930054
:1000E0000C94930011241FBECFEFD1E2DEBFCDBF31
:1000F00000E00CBF12E0A0E0B2E0E4E3FAE000E0D0
:100100000BBF02C007900D92AE3FB107D9F724E0B4
:10011000AEEFB2E001C01D92A330B207E1F70E943A
:1001200050040C9418050C9400000F931F93CF9368
:10013000DF938B01442311F1E9012F96F9018785A3
:100140009089892BF1F189E00E94810388810E94C6
:1001500081038AE00E948103888199818017910739
:1001600099F18A81880F990B0396C80FD91F88814E
:100170009981892B41F780E090E02EC0E9012F960C
:10018000F90187859089892B11F189E00E9481030B
:1001900088810E9481038AE00E948103888199817D
:1001A00080179107B9F08A81082E000C990B0396ED
:1001B000C80FD91F88819981892B39F780E090E099
:1001C0000BC080E090E008C08C2F9D2F05C080E020
:1001D00090E002C08C2F9D2FDF91CF911F910F9146
:1001E0000895EF92FF921F93CF93DF931F92CDB7A5
:1001F000DEB77C01FC01128185E292E00E949A0345
:10020000F701EE5FFC4F8081918118161906BCF44E
:10021000EF5FF24020E030E04FEFD701AE5FBC4F20
:100220004BB91BB989818F5F89831BB82F5F3F4F03
:1002300011918D919C911197281739078CF30F908C
:10024000DF91CF911F91FF90EF9008952F923F92F1
:100250004F925F926F927F928F929F92AF92BF92D6
:10026000CF92DF92EF92FF920F931F93CF93DF9382
:10027000CDB7DEB72A970FB6F894DEBF0FBECDBF5D
:10028000FB01328113160CF086C0A12C3C2C202ED1
:10029000DC01AE5FBC4F6894662467F8812C712C3A
:1002A000BB24BA9499249A94DB821C83ED822E831A
:1002B000CF8208877A836983C42ECC2059F04A2DD7
:1002C000440F550B09811A81400F511FFA016381B8
:1002D000748165C029813A812A0D311DA7FC3A95A8
:1002E000F9016381062E000C770B59C0113039F0EB
:1002F000123041F0111108C0EF80D88405C0EB80A6
:10030000DC8002C0ED80DE80262DED2D0D2C000C52
:10031000FF0B4E2C0E2C000C5508F12EFA87E987A6
:1003200030E049855A8542235323452B41F0A201F1
:1003300042235323452B69F06B2D792D0AC0A2016E
:1003400042235323452B19F06095709502C0682D08
:10035000772D4D915C9111974115F3E05F07E8F41B
:10036000FA0131961196FC93EE93480F591FFA014A
:100370006283359527952111D3CF1F2D1F5F133031
:1003800009F0B4CFA394E981FA812281A2160CF47A
:1003900094CF80E009C080E007C08EEF05C0E32C59
:1003A000D22CF12C1F2DB0CF2A960FB6F894DEBFB9
:1003B0000FBECDBFDF91CF911F910F91FF90EF90B6
:1003C000DF90CF90BF90AF909F908F907F906F9075
:1003D0005F904F903F902F9008952F923F925F92A1
:1003E0006F927F928F929F92AF92BF92CF92DF9245
:1003F000EF92FF920F931F93CF93DF93CDB7DEB7AA
:1004000028970FB6F894DEBF0FBECDBF4C011B017D
:100410003A010B831C832D83CE82DF82E886FC01A8
:10042000EE5FFC4F1182108255245394FB018085AE
:1004300089300CF4512C88E392E00E949A038FEFEC
:100440008AB91BB8552019F08FE787B918B8F3019E
:100450008081882309F462C020E030E0F12C8823F9
:10046000BCF4D301A20FB31F11968C9188234CF4D6
:1004700080819181A2818A839B83AC83F3E0FF0E0C
:100480000DC0808191819C838B83F394F39406C08B
:10049000082E000C990B9A838983F394B980AA8063
:1004A0008B2D0E9481038AE00E94810381E492E007
:1004B0000E949A039101452D6B2D7A2DC4010E9453
:1004C00095005C01892B31F48EE492E00E949A033E
:1004D00081E028C083E692E00E949A03F5018081C2
:1004E0000E9481038AE00E9481038AE692E00E94D2
:1004F0009A03CE80DF80E8840B811C812D81452DFD
:10050000B501C4010E9426012F2D0F2C000C330BC6
:10051000F301E20FF31F80818111A1CFC4010E947A
:10052000F10080E028960FB6F894DEBF0FBECDBF75
:10053000DF91CF911F910F91FF90EF90DF90CF90BF
:10054000BF90AF909F908F907F906F905F903F9003
:100550002F900895CF92DF92EF920F931F93FB019C
:10056000C484D584E6840185128523850E94ED012B
:100570001F910F91EF90DF90CF9008950895089507
:100580001F920F920FB60F9211240BB60F922F935A
:100590003F934F935F938F939F93EF93FF9320919C
:1005A000C0003091C60028718091000390E0019650
:1005B0008F7799274091FF0250E04817590739F08B
:1005C00080930003FC01ED5FFC4F308301C022E00B
:1005D0002093FE02FF91EF919F918F915F914F9138
:1005E0003F912F910F900BBE0F900FBE0F901F9059
:1005F00018951F920F920FB60F9211240BB60F92FF
:100600008F939F93EF93FF93909102038091010347
:10061000981779F08091010390E001968F779927E0
:1006200080930103FC01ED57FC4F80818093C6004D
:1006300005C0E1ECF0E080818F7D8083FF91EF9138
:100640009F918F910F900BBE0F900FBE0F901F9038
:100650001895F8941092020310920103109200036F
:100660001092FF027894992324F422E02093C00092
:100670009F779093C5008093C40088E98093C10060
:1006800086E08093C2000895F894909100038091D1
:10069000FF02981304C0789480E091E00895789464
:1006A0008091FF0290E001968F7799278093FF0257
:1006B000FC01ED5FFC4F20818091FE0290E0982FBD
:1006C0008827820F911D0895F894909100038091DE
:1006D000FF02981304C0789480E091E00895789424
:1006E000E091FF02F0E03196EF77FF27ED5FFC4FDE
:1006F00020818091FE0290E0982F8827820F911D23
:1007000008954091020350E04F5F5F4F4F775527A8
:100710002091010330E024173507D1F3FA01ED579A
:10072000FC4F808340930203E1ECF0E08081806223
:1007300080830895CF93DF93EC018881882331F083
:1007400021960E94810389918111FBCFDF91CF9186
:100750000895CF93DF93EC012196FC0184918823C7
:1007600039F00E948103FE01849121968111F9CF15
:10077000DF91CF910895F894809100032091FF02BA
:10078000789490E080589F4F821B91098F7799272A
:100790000895F8948091FF0280930003789408955F
:1007A000AF92BF92CF92DF92EF92FF920F931F937F
:1007B000CF93DF931F92CDB7DEB7198289818F5F08
:1007C000898389818F5F898389818F5F898389810B
:1007D0008F5F898389818F5F89831BB88FEF8AB987
:1007E0006894BB24B3F80F2EF8E1AF2EF02DEE2461
:1007F000EA940F2EF4EFCF2EF02DDD24D39414C005
:10080000EBB8EBB81BB80C2D1D2D8FE30E948103B4
:1008100001501109D1F789818F5F8983FA94F11012
:10082000EFCFBA94BB2011F0FA2CEACF0F90DF91F2
:10083000CF911F910F91FF90EF90DF90CF90BF90DD
:10084000AF900895CF93DF931F92CDB7DEB71BB85B
:100850008FEF8AB92FEF80E792E0215080409040DF
:10086000E1F700C0000020E032E09FEF19829BB961
:1008700089818981181634F089818F5F8983898104
:100880001816D4F71BB8EFECF7E03197F1F700C07A
:1008900000002150310951F70F90DF91CF91089559
:1008A000CF93DF93CDB7DEB7C452D4400FB6F894E0
:1008B000DEBF0FBECDBFCE0101960E94BE028FEFFC
:1008C0008AB98BB983E390E00E94290387E792E01D
:1008D0000E949A038FE0E6E1F2E0DE01AB5FBC4FDD
:1008E00001900D928A95E1F7809113029091140284
:1008F000A0911502CC5EDC4F88839983AA83C451F2
:10090000D34088E0E8E0F2E0A5E0B3E0AC0FBD1F23
:10091000529601900D928A95E1F780911002909184
:100920001102A0911202C15EDC4F88839983AA83D1
:10093000CF51D34088E0E0E0F2E0A5E0B3E0AC0FB7
:10094000BD1F5D9601900D928A95E1F7C65DDC4F63
:10095000188219821A82CA52D34084E892E00E9417
:100960009A0385E992E00E949A03CE018B5F9C4F27
:100970000E949A038AE00E94810381EA92E00E9429
:100980009A03CC5EDC4F8881C451D3400E9481031E
:100990008AE00E9481038EEA92E00E949A03C15E7F
:1009A000DC4F8881CF51D3400E9481038AE00E94AE
:1009B00081034CEB52E0BE016B5F7C4FCE01019690
:1009C0000E94AA028FEB92E00E949A038AEC92E0C6
:1009D0000E949A03F12C0E94BB03892B81F4FBCF68
:1009E00001E0010F0E944403E5E0F4E0EC0FFD1F7D
:1009F000E10FF11D17FDFA958083102F01C01F2D07
:100A00000E94BB03892B61F7E5E0F4E0EC0FFD1FCA
:100A1000E10FF11D17FDFA951082AE014B5F5B4FA0
:100A2000BE016B5F7C4FCE0101960E94AA02D3CF1C
:040A3000F894FFCF68
:100A340081C366243C3CFFFF7E8181818181817E6C
:100A44004B00084F000853616D706C65000008B4DA
:100A540064B43C783C46696E616C20737472656161
:100A64006D696E672E2E0A0053686F77696E673A58
:100A740000536561726368696E672E2E0A006368AD
:100A840061725F64657363206E6F7420666F756E48
:100A9400640A00466F756E64200053747265616D5C
:100AA400696E672E2E0A00426567696E6E696E670D
:100AB4002E2E0A0054657374696E6720666F6E7417
:100AC400202E2E0A00466F6E74206E616D653A0901
:100AD40000466972737420636861723A0900536551
:100AE400636F6E6420636861723A09004F4B00467D
:100AF400696E69736865642E0A0057616974696E6A
:100B04006720666F7220636F6D6D616E64206E6F17
:100B1400772E2053656E6420616E79207374726938
:0E0B24006E6720746F2073747265616D0A0035
:00000001FF
