:100000000C9434000C9451000C9451000C94510049
:100010000C9451000C9451000C9451000C9451001C
:100020000C9451000C9451000C9451000C9451000C
:100030000C9451000C9451000C9451000C945100FC
:100040000C9451000C9451000C947E020C94B30259
:100050000C9451000C9451000C9451000C945100DC
:100060000C9451000C94510011241FBECFEFD8E026
:10007000DEBFCDBF12E0A0E0B1E0ECEBF9E002C0E2
:1000800005900D92A430B107D9F723E0A4E0B2E0C7
:1000900001C01D92A930B207E1F70E9406040C943A
:1000A000DC040C9400000F931F93CF93DF938B011C
:1000B0004423F9F0E9012F96F90187859089892B6E
:1000C000C1F189E00E94370388810E94370388814B
:1000D00099818017910781F18A81880F990B039686
:1000E000C80FD91F88819981892B59F780E090E04A
:1000F0002BC0E9012F96F90187859089892BF9F0AA
:1001000089E00E94370388810E94370388819981A2
:1001100080179107B9F08A81082E000C990B03967D
:10012000C80FD91F88819981892B51F780E090E011
:100130000BC080E090E008C08C2F9D2F05C080E0B0
:1001400090E002C08C2F9D2FDF91CF911F910F91D6
:100150000895EF92FF921F93CF93DF931F92CDB735
:10016000DEB77C01FC01128185E291E00E94500320
:10017000F701EE5FFC4F8081918118161906BCF4DF
:10018000EF5FF24020E030E04FEFD701AE5FBC4FB1
:100190004BB91BB989818F5F89831BB82F5F3F4F94
:1001A00011918D919C911197281739078CF30F901D
:1001B000DF91CF911F91FF90EF9008952F923F9282
:1001C0004F925F926F927F928F929F92AF92BF9267
:1001D000CF92DF92EF92FF920F931F93CF93DF9313
:1001E000CDB7DEB72A970FB6F894DEBF0FBECDBFEE
:1001F000FB01328113160CF086C0A12C3C2C202E62
:10020000DC01AE5FBC4F6894662467F8812C712CCA
:10021000BB24BA9499249A94DB821C83ED822E83AA
:10022000CF8208877A836983C42ECC2059F04A2D67
:10023000440F550B09811A81400F511FFA01638148
:10024000748165C029813A812A0D311DA7FC3A9538
:10025000F9016381062E000C770B59C0113039F07B
:10026000123041F0111108C0EF80D88405C0EB8036
:10027000DC8002C0ED80DE80262DED2D0D2C000CE3
:10028000FF0B4E2C0E2C000C5508F12EFA87E98737
:1002900030E049855A8542235323452B41F0A20182
:1002A00042235323452B69F06B2D792D0AC0A201FF
:1002B00042235323452B19F06095709502C0682D99
:1002C000772D4D915C9111974115F3E05F07E8F4AC
:1002D000FA0131961196FC93EE93480F591FFA01DB
:1002E0006283359527952111D3CF1F2D1F5F1330C2
:1002F00009F0B4CFA394E981FA812281A2160CF40B
:1003000094CF80E009C080E007C08EEF05C0E32CE9
:10031000D22CF12C1F2DB0CF2A960FB6F894DEBF49
:100320000FBECDBFDF91CF911F910F91FF90EF9046
:10033000DF90CF90BF90AF909F908F907F906F9005
:100340005F904F903F902F9008952F923F925F9231
:100350006F927F928F929F92AF92BF92CF92DF92D5
:10036000EF92FF920F931F93CF93DF93CDB7DEB73A
:1003700028970FB6F894DEBF0FBECDBF4C011B010E
:100380003A010B831C832D83CE82DF82E886FC0139
:10039000EE5FFC4F1182108255245394FB0180853F
:1003A00089300CF4512C82E391E00E945003C30188
:1003B0000E9450038AE00E9437038FEF8AB91BB86E
:1003C000552019F08FE787B918B8F3018081882389
:1003D00009F462C020E030E0F12C8823BCF4D301A2
:1003E000A20FB31F11968C9188234CF480819181C8
:1003F000A2818A839B83AC83F3E0FF0E0DC08081D2
:1004000091819C838B83F394F39406C0082E000C97
:10041000990B9A838983F3948CE391E00E945003B3
:10042000B980AA808B2D0E9437038AE00E9437038F
:100430009101452D6B2D7A2DC4010E9453005C0162
:10044000892B31F489E491E00E94500381E028C0B7
:100450008EE591E00E945003F50180810E943703F0
:100460008AE00E94370385E691E00E945003CE8027
:10047000DF80E8840B811C812D81452DB501C401ED
:100480000E94DE002F2D0F2C000C330BF301E20F26
:10049000F31F80818111A1CFC4010E94A90080E0D7
:1004A00028960FB6F894DEBF0FBECDBFDF91CF9177
:1004B0001F910F91FF90EF90DF90CF90BF90AF9082
:1004C0009F908F907F906F905F903F902F900895B6
:1004D000CF92DF92EF920F931F93FB01C484D584D8
:1004E000E6840185128523850E94A5011F910F9145
:1004F000EF90DF90CF900895089508951F920F9286
:100500000FB60F9211242F933F934F935F938F93C6
:100510009F93EF93FF932091C0003091C600287104
:100520008091060290E001968F779927409105020D
:1005300050E04817590739F080930602FC01E75F45
:10054000FD4F308301C022E020930402FF91EF9120
:100550009F918F915F914F913F912F910F900FBE7F
:100560000F901F9018951F920F920FB60F921124A3
:100570008F939F93EF93FF939091080280910702CE
:10058000981779F08091070290E001968F7799276C
:1005900080930702FC01E757FD4F80818093C600DE
:1005A00005C0E1ECF0E080818F7D8083FF91EF91C9
:1005B0009F918F910F900FBE0F901F901895F894F8
:1005C0001092080210920702109206021092050281
:1005D0007894992324F422E02093C0009F7790938D
:1005E000C5008093C40088E98093C10086E08093B1
:1005F000C2000895F8949091060280910502981324
:1006000004C0789480E091E0089578948091050288
:1006100090E001968F77992780930502FC01E75FB0
:10062000FD4F20818091040290E0982F8827820F4F
:10063000911D0895F89490910602809105029813F7
:1006400004C0789480E091E008957894E0910502E8
:10065000F0E03196EF77FF27E75FFD4F2081809133
:10066000040290E0982F8827820F911D08954091F1
:10067000080250E04F5F5F4F4F77552720910702E8
:1006800030E024173507D1F3FA01E757FD4F808397
:1006900040930802E1ECF0E080818062808308955D
:1006A000CF93DF93EC018881882331F021960E945B
:1006B000370389918111FBCFDF91CF910895CF93BB
:1006C000DF93EC012196FC018491882339F00E948C
:1006D0003703FE01849121968111F9CFDF91CF91EB
:1006E0000895F8948091060220910502789490E094
:1006F00080589F4F821B91098F7799270895F8940E
:10070000809105028093060278940895AF92BF927B
:10071000CF92DF92EF92FF920F931F93CF93DF93CD
:100720001F92CDB7DEB7198289818F5F8983898156
:100730008F5F898389818F5F898389818F5F8983B7
:1007400089818F5F89831BB88FEF8AB96894BB2436
:10075000B3F80F2EF8E1AF2EF02DEE24EA940F2E11
:10076000F4EFCF2EF02DDD24D39414C0EBB8EBB80A
:100770001BB80C2D1D2D8FE30E943703015011096A
:10078000D1F789818F5F8983FA94F110EFCFBA9402
:10079000BB2011F0FA2CEACF0F90DF91CF911F917F
:1007A0000F91FF90EF90DF90CF90BF90AF900895A2
:1007B000CF93DF931F92CDB7DEB71BB88FEF8AB907
:1007C0002FEF80E792E0215080409040E1F700C099
:1007D000000020E032E09FEF19829BB98981898176
:1007E000181634F089818F5F898389811816D4F7B0
:1007F0001BB8EFECF7E03197F1F700C00000215093
:10080000310951F70F90DF91CF910895CF93DF9386
:10081000CDB7DEB7C452D4400FB6F894DEBF0FBEDA
:10082000CDBFCE0101960E947C028FEF8AB98BB9B1
:1008300083E390E00E94DF0281E791E00E94500391
:100840008FE0E6E1F1E0DE01AB5FBC4F01900D927D
:100850008A95E1F78091130190911401A0911501FF
:10086000CC5EDC4F88839983AA83C451D34088E04F
:10087000E8E0F1E0A5E0B3E0AC0FBD1F52960190B7
:100880000D928A95E1F78091100190911101A0914C
:100890001201C15EDC4F88839983AA83CF51D34074
:1008A00088E0E0E0F1E0A5E0B3E0AC0FBD1F5D96AD
:1008B00001900D928A95E1F7C65DDC4F188219828E
:1008C0001A82CA52D3408EE791E00E9450038FE80B
:1008D00091E00E945003CE018B5F9C4F0E94500319
:1008E0008AE00E9437038BE991E00E945003CC5EBE
:1008F000DC4F8881C451D3400E9437038AE00E94B4
:10090000370388EA91E00E945003C15EDC4F888182
:10091000CF51D3400E9437038AE00E94370346EB51
:1009200051E0BE016B5F7C4FCE0101960E946802D0
:1009300089EB91E00E94500384EC91E00E94500307
:10094000F12C0E947103892B91F4FBCF01E0010F80
:10095000E5E0F4E0EC0FFD1FE10FF11D17FDFA9546
:1009600080830E947103892BE1F3102F01C01F2D9A
:100970000E94FA028A3051F7E5E0F4E0EC0FFD1F27
:10098000E10FF11D17FDFA95108288EF91E00E94AA
:100990005003CE018B5F9B4F0E9450038AE00E9460
:1009A0003703AE014B5F5B4FBE016B5F7C4FCE01E7
:0C09B00001960E946802C5CFF894FFCFAA
:1009BC0081C366243C3CFFFF7E8181818181817EE5
:1009CC004B00084F000853616D706C65000008B453
:1009DC0064B43C783C53747265616D696E672E2EFD
:1009EC000A0053686F77696E673A09005365617244
:1009FC006368696E672E2E0900636861725F6465B7
:100A0C007363206E6F7420666F756E640A00466F98
:100A1C00756E642000537461636B696E672E2E0AC9
:100A2C0000426567696E6E696E672E2E0A0054650A
:100A3C007374696E6720666F6E74202E2E0A0046E2
:100A4C006F6E74206E616D653A090046697273743D
:100A5C0020636861723A09005365636F6E642063AA
:100A6C006861723A09004F4B0046696E697368659C
:100A7C00642E0A0057616974696E6720666F722074
:100A8C00636F6D6D616E64206E6F772E2053656E93
:100A9C006420616E7920737472696E6720746F20A4
:100AAC0073747265616D0A0052656365697665647D
:040ABC003A090000F3
:00000001FF
