:100000000C9414020C9431020C9431020C943102C1
:100010000C9431020C9431020C9431020C94310294
:100020000C9431020C9431020C9431020C94310284
:100030000C9431020C9431020C9431020C94310274
:100040000C9431020C9431020C9499280C94CE2813
:100050000C9431020C9431020C9431020C94310254
:100060000C9431020C943102E322EE22F622F822A3
:10007000FA22FC22FE22002303237D1D0100632CB3
:10008000001E9601A01E5A01001F0806101F06063A
:10009000201F0806301F0806401F0606511F0700D4
:1000A000591F521F5B1F541F5D1F561F5F1F601F8C
:1000B0000806701F0E00BA1FBB1FC81FC91FCA1F2A
:1000C000CB1FDA1FDB1FF81FF91FEA1FEB1FFA1FF8
:1000D000FB1F801F0806901F0806A01F0806B01F00
:1000E0000400B81FB91FB21FBC1FCC1F0100C31FE3
:1000F000D01F0206E01F0206E51F0100EC1FF21FE1
:100100000100FC1F4E2101003221702110028421C8
:1001100001008321D0241A05302C2F04602C020109
:10012000672C0601752C0201802C6401002D260825
:1001300041FF1A03000061001A03E0001703F800F2
:100140000703FF00010078010001300132010601C0
:10015000390110014A012E017901060180014D008B
:1001600043028101820182018401840186018701A9
:10017000870189018A018B018B018D018E018F011D
:1001800090019101910193019401F601960197016B
:10019000980198013D029B019C019D0120029F0155
:1001A000A001A001A201A201A401A401A601A7012E
:1001B000A701A901AA01AB01AC01AC01AE01AF01DD
:1001C000AF01B101B201B301B301B501B501B7018E
:1001D000B801B801BA01BB01BC01BC01BE01F70105
:1001E000C001C101C201C301C401C501C401C701ED
:1001F000C801C701CA01CB01CA01CD011001DD014F
:1002000001008E01DE011201F3010300F101F4018E
:10021000F401F8012801220212013A020900652CBA
:100220003B023B023D02662C3F024002410241027A
:1002300046020A01530240008101860155028901EC
:100240008A0158028F015A0290015C025D025E022F
:100250005F02930161026202940164026502660218
:100260006702970196016A02622C6C026D026E02AF
:100270009C01700271029D01730274029F0176025B
:100280007702780279027A027B027C02642C7E0279
:100290007F02A60181028202A901840285028602F0
:1002A0008702AE014402B101B20145028D028E0205
:1002B0008F0290029102B7017B030300FD03FE034E
:1002C000FF03AC0304008603880389038A03B10398
:1002D0001103C2030200A303A303C4030803CC0356
:1002E00003008C038E038F03D8031801F2030A0066
:1002F000F903F303F403F503F603F703F703F90334
:10030000FA03FA03300420035004100760042201AA
:100310008A043601C1040E01CF040100C004D004D8
:100320004401610526040000C700FC00E900E2006A
:10033000E400E000E500E700EA00EB00E800EF0081
:10034000EE00EC00C400C500C900E600C600F400E1
:10035000F600F200FB00F900FF00D600DC00A2006E
:10036000A300A500A7209201E100ED00F300FA0030
:10037000F100D100AA00BA00BF001023AC00BD00FC
:10038000BC00A100AB00BB0091259225932502255E
:100390002425612562255625552563255125572598
:1003A0005D255C255B251025142534252C251C2571
:1003B00000253C255E255F255A255425692566259F
:1003C000602550256C2567256825642565255925F8
:1003D0005825522553256B256A2518250C25882577
:1003E00084258C2590258025B103DF009303C0036D
:1003F000A303C303B500C403A6039803A903B4036E
:100400001E22C603B50329226122B100652264229F
:1004100020232123F7004822B0001922B7001A2216
:100420007F20B200A025A00011241FBECFEFD8E08E
:10043000DEBFCDBF13E0A0E0B1E0EEE1FCE502C01D
:1004400005900D92AE32B107D9F720E1AEE2B3E0EC
:1004500001C01D92A33AB207E1F70E94FB290C9458
:100460000D2E0C9400000F931F93CF93DF938B01FD
:10047000442311F1E9012F96F90187859089892B91
:10048000F1F189E00E94522988810E9452298AE074
:100490000E945229888199818017910799F18A8158
:1004A000880F990B0396C80FD91F88819981892BD2
:1004B00041F780E090E02EC0E9012F96F901878591
:1004C0009089892B11F189E00E94522988810E942C
:1004D00052298AE00E9452298881998180179107C8
:1004E000B9F08A81082E000C990B0396C80FD91F0A
:1004F00088819981892B39F780E090E00BC080E0FA
:1005000090E008C08C2F9D2F05C080E090E002C0D5
:100510008C2F9D2FDF91CF911F910F910895CF9335
:10052000DF931F92CDB7DEB78091300320912E0369
:1005300030912F0312161306ACF4E1E3F3E020E050
:1005400030E09FEF9BB98BB989818F5F89831BB89E
:100550002F5F3F4F819140912E0350912F0324171D
:10056000350784F30F90DF91CF9108952F923F923A
:100570004F925F926F927F928F929F92AF92BF92B3
:10058000CF92DF92EF92FF920F931F93CF93DF935F
:10059000CDB7DEB72D970FB6F894DEBF0FBECDBF37
:1005A0007D836C834B83FB01828118160CF088C01D
:1005B00040902E0350902F031B01F3E02F0E311CAF
:1005C0003A822982612CDE821F83E8862987CA86C7
:1005D0000B87812C712C99249A94AA24AA94CF2C4D
:1005E0008B81882321F0F1014081518166C0E9812E
:1005F000FA814081042E000C550B5FC09701F1E099
:10060000DF1641F082E0D81641F0D11008C0BA845C
:10061000CB8405C0BE80CF8002C0B884C984F701F6
:10062000E05DFC4F98E0E90EF11C870180E86C2D3D
:100630000C2C000C770BAB2D0B2C000CBB0B7D870F
:100640006C8790E06C857D8568237923672B41F06A
:10065000BD0168237923672B69F0492D5A2D0AC003
:10066000BD0168237923672B19F04095509502C08E
:10067000482D572D2F5F3F4F419395958795021732
:100680001307F9F6D394E3E0DE12B8CF6394F8E1F0
:100690004F0E511C89819A8101969A83898392E039
:1006A000290E311CEC81FD81828168160CF498CFF3
:1006B00030932F0320932E0303C0D12C72019ECFC1
:1006C00080E02D960FB6F894DEBF0FBECDBFDF9150
:1006D000CF911F910F91FF90EF90DF90CF90BF903F
:1006E000AF909F908F907F906F905F904F903F90D2
:1006F0002F9008952F923F925F926F927F928F92E8
:100700009F92AF92BF92CF92DF92EF92FF920F93A0
:100710001F93CF93DF93CDB7DEB728970FB6F8942A
:10072000DEBF0FBECDBF4C011B013A010B831C8302
:100730002D83CE82DF82E88610922F0310922E0343
:1007400055245394FB01808589300CF4512C8DEB9A
:1007500091E00E946B298FEF8AB91BB8552019F0E0
:100760008FE787B918B8F3018081882309F462C044
:1007700020E030E0F12C8823BCF4D301A20FB31F9A
:1007800011968C9188234CF480819181A2818A8377
:100790009B83AC83F3E0FF0E0DC0808191819C832D
:1007A0008B83F394F39406C0082E000C990B9A8364
:1007B0008983F394B980AA808B2D0E9452298AE004
:1007C0000E94522986EC91E00E946B299101452DEF
:1007D0006B2D7A2DC4010E9433025C01892B31F408
:1007E00083ED91E00E946B2981E028C088EE91E0C2
:1007F0000E946B29F50180810E9452298AE00E94A3
:1008000052298FEE91E00E946B29CE80DF80E88430
:100810000B811C812D81452DB501C4010E94B602BA
:100820002F2D0F2C000C330BF301E20FF31F8081EF
:100830008111A1CFC4010E948F0280E028960FB6DB
:10084000F894DEBF0FBECDBFDF91CF911F910F9106
:10085000FF90EF90DF90CF90BF90AF909F908F90E0
:100860007F906F905F903F902F900895CF92DF928E
:10087000EF920F931F93FB01C484D584E684018516
:10088000128523850E947A031F910F91EF90DF90CC
:10089000CF90089508950895CF92DF92EF92FF923E
:1008A0000F931F93CF93DF93EC016B017A018901C2
:1008B0000E944A04FE01E05EFE4FD182C082329661
:1008C000F182E082CC5DDE4F19830883DF91CF9106
:1008D0001F910F91FF90EF90DF90CF90089541E02E
:1008E0006CEA72E08A5D9E4F0E94361A21E0892BE5
:1008F00009F020E0822F0895AF92BF92CF92DF924D
:10090000EF92FF920F931F93CF93DF93EB015A0166
:100910006901BA01CE010E94CC2D28812F3251F4F9
:10092000892B21F06C2F7D2F80E04DC060E070E0BE
:1009300080E849C0FE0101900020E9F731979F014E
:100940002C1B3D0BF60101900020E9F73197EC19C3
:10095000FD09E20FEF5F892BA1F0EE1624F460E0B1
:1009600070E081E830C0B601802F912F0E94A32D46
:10097000BE01802F912F0E94982D602F712F80E053
:1009800022C0D5010D900020E9F71197AA19BB09E3
:100990000E2C000CFF08AE0FB11DE7FDBA95EA164C
:1009A000FB0620F460E070E081E80DC0B601802F06
:1009B000912F0E94A32DBE01802F912F0E94982D70
:1009C000602F712F80E0DF91CF911F910F91FF90E9
:1009D000EF90DF90CF90BF90AF900895CF92DF92CD
:1009E000EF920F931F93CF93DF93CDB7DEB7CA5B20
:1009F000D1090FB6F894DEBF0FBECDBF6C01FC016C
:100A0000EE5DFE4F208131816894EE24E7F88E017F
:100A10000F5F1F4F4CEF51E00E947C0481113CC0DE
:100A200040E0962F692FCE018F579F4F0E94721A78
:100A3000892BA1F580E090E00E94062C8C010097A4
:100A400021F1C557DF4F48815981CB58D0409E01D5
:100A500027543F4FBC01CE018F579F4F0E94331B3D
:100A6000892B21F0C8010E949B2C0FC0CE018F570B
:100A70009F4F0E94961CF601848195810E949B2CB9
:100A8000F6011583048381E00AC0CE018F579F4F82
:100A90000E94961C80E003C080E001C080E0C65444
:100AA000DF4F0FB6F894DEBF0FBECDBFDF91CF9101
:100AB0001F910F91EF90DF90CF900895EF92FF92EA
:100AC0001F93CF93DF937B01672B31F40F2EFCEA4A
:100AD000EF2EF2E0FF2EF02DEC01269610E048E01C
:100AE00050E0BE01C7010E94BE2D892B31F01F5F6F
:100AF0002E961431A1F782E801C0812FDF91CF91AA
:100B00001F91FF90EF90089580E008952F923F92FB
:100B10004F925F926F927F928F929F92AF92BF920D
:100B2000CF92DF92EF92FF920F931F93CF93DF93B9
:100B3000CDB7DEB7C052D2400FB6F894DEBF0FBEBD
:100B4000CDBF4C018B01DE01A75EBD4F8AE28D93C4
:100B500085E0E1E0F2E001900D928A95E1F740E84E
:100B600050E0CE01855E9E4F0E94AA2D482EEBE1FB
:100B7000F1E0EC0FFD1FE80FF11D87FDFA958FE204
:100B800080839E01275E3D4FA801BE016F5F7F4FAE
:100B9000CE0185569E4F0E942022892B09F0C2C0AB
:100BA0008B8D882309F4C0C0042C000C55088FEFEE
:100BB000481A580AEBE1F1E0EC0FFD1F4E0E5F1EE4
:100BC0003E01F1EE6F1AFDEF7F0A262C372CBE0195
:100BD000655E7F4FC2010E94A32D40E0BE01655EAD
:100BE0007E4FCE018F519E4F0E94721A892B09F0C1
:100BF0008DC0C551DE4F2881CB5ED140C451DE4F40
:100C00003881CC5ED140C351DE4F4881CD5ED140AA
:100C1000C251DE4F5881CE5ED140C151DE4F688156
:100C2000CF5ED140C051DE4F7881C05FD1400F2EE2
:100C3000FEE0AF2EF02DB12CC12CD12CE12CF12CEB
:100C400000E010E0CF50DE4F8881C15FD140CE5030
:100C5000DE4F9881C25FD1400E94F92AF22E2223F2
:100C600009F464C060E070E0C4010E945E05082FD2
:100C7000880F110B02388FEF180709F447C0C8011D
:100C8000880F991FBC01660F771F660F771F660FCD
:100C9000771F681B790B6A5F7F4F680D791D222DC6
:100CA000332D4EE050E0CE018F519E4F0E94331BFA
:100CB000892B29F4F301808191810E9781F0000F37
:100CC000111FC801880F991F880F991F880F991F3E
:100CD000801B910BF401E80FF91F168217C0FA94DC
:100CE000F110C0CFCE018F519E4F0E94961CBE01C5
:100CF0006F5F7F4FCE0185569E4F0E94F221892B58
:100D000029F48B8D811163CF81E020C0CE018F51FA
:100D10009E4F0E94961CCE0185569E4F0E94AC218C
:100D200080E014C081E012C081E010C0CE018F517C
:100D30009E4F0E94961CBE016F5F7F4FCE0185566D
:100D40009E4F0E94F221892BE1F2E0CFC05EDD4F81
:100D50000FB6F894DEBF0FBECDBFDF91CF911F91CC
:100D60000F91FF90EF90DF90CF90BF90AF909F904A
:100D70008F907F906F905F904F903F902F9008954D
:100D80008F929F92AF92BF92CF92DF92EF92FF929B
:100D90000F931F93CF93DF93CDB7DEB7C75CD10915
:100DA0000FB6F894DEBF0FBECDBF4C016B01FC0146
:100DB000E05EFE4F208131810F2EFDE0EF2EF02D01
:100DC0008E0107541F4F46E052E00E947C048111BF
:100DD000D2C040E0B601CE018F579F4F0E94721AD9
:100DE000892B09F0CAC00E947F2D392F282F990F17
:100DF000990BC557DF4FA880CB58D040C457DF4F61
:100E0000B880CC58D040C357DF4FC880CD58D040B1
:100E1000C257DF4FD880CE58D040C157DF4FE8804F
:100E2000CF58D040C057DF4FF880C059D040CF5680
:100E3000DF4F0881C159D040CE56DF4F1881C259CB
:100E4000D040492F592F692F792F892F0E949E2A30
:100E5000A0EC0E94CD2BAA24AA940F2EFFE7BF2E50
:100E6000F02DC12CD12CE12CF12C00E010E00E94DF
:100E7000F92A022F132F242F352F462F572F682F93
:100E8000792FCE018F579F4F0E94AF1E892B39F0CB
:100E9000CE018F579F4F0E94961C80E083C09E0119
:100EA0002A533F4F40E850E0BE016F5F7F4FCE01B5
:100EB0008F579F4F0E94331B892B39F0CE018F57DC
:100EC0009F4F0E94961C80E06DC0CE018F579F4FB0
:100ED0000E94961CCA53DF4F28813981C65CD040DE
:100EE0002034310508F44BC089818A3009F44FC0A1
:100EF0002115310509F445C0D12C07C08D2D0D2CCD
:100F0000000C990B28173907F1F1D3940D2D0D2CF6
:100F1000000C110BE1E0F0E0EC0FFD1FE00FF11F02
:100F200080818A3059F736C00E949B2C8D2D0D2C64
:100F3000000C990B9C01201B310B8901C901019602
:100F40000E94062C7C01F401E25EFE4F91838083B7
:100F50000097D9F0CD2CDD0CDD08BE016C0D7D1D98
:100F60006E5F7F4FA8010E948F2DF701EC0DFD1DD4
:100F7000108281E017C080E015C080E013C080E0DF
:100F800011C080E00FC080E00DC080E00BC000E029
:100F900010E0D12CF401E25EFE4F80819181009738
:100FA00019F6C4CFC953DF4F0FB6F894DEBF0FBE9A
:100FB000CDBFDF91CF911F910F91FF90EF90DF9008
:100FC000CF90BF90AF909F908F900895AB01FC01A0
:100FD000648175810E94360491E0811190E0892F2F
:100FE0000895CF930E94C006C82F811104C08BE0E2
:100FF00092E00E946B298C2FCF910895CF93DF93BD
:10100000EC0165E272E00E94EE04811106C08EE2FE
:1010100092E00E946B2980E03EC00C80DD81C02DF3
:1010200048E050E065E272E0CE010E94BE2D8823C8
:1010300031F080E492E00E946B2980E02CC08F8523
:1010400098898B34910531F088E592E00E946B29F4
:1010500080E021C08989282F082E000C330B8930AD
:101060001CF042E050E002C041E050E0429FC0016D
:10107000439F900D529F900D1124C80FD91F8A894C
:101080009B898F34910531F087E792E00E946B29AC
:1010900080E001C081E0DF91CF910895CF93DF938D
:1010A000EC01FC01EC5DFE4F608171810E948605C0
:1010B000811104C086E992E00E946B296DEA72E01A
:1010C000CE010E945E05823831F486EB92E00E94E8
:1010D0006B2980E00EC06FEC72E0CE010E945E05CD
:1010E000823831F485ED92E00E946B2980E001C0E6
:1010F00081E0DF91CF910895FC016381862F90E01C
:10110000A0E0B0E0BA2FA92F982F88272281822B48
:10111000BA2FA92F982F88272181822BBA2FA92F88
:10112000982F88272081BC01CD01622B08950F9351
:10113000FC01278130E040E050E060E070E080E0BA
:1011400090E008E00E948D2BA6812A2B0E948D2B17
:10115000A5812A2B0E948D2BA4812A2B0E948D2BE6
:10116000A3812A2B0E948D2BA2812A2B0E948D2BDA
:10117000A1812A2B0E948D2BE0812E2B0F910895A7
:10118000DC01FB012D91819130E0B901681B7109EF
:10119000CB014150510911F00097A1F308950F932D
:1011A0001F93FC019A01AB012250310941095109F9
:1011B000878D90A1A1A1B2A10297A109B109281719
:1011C00039074A075B0768F4A185B2850E94932A14
:1011D00003A914A925A936A9600F711F821F931FA7
:1011E00003C060E070E0CB011F910F9108950F9351
:1011F0001F93DC01ED91FC9111979F012F5F3F4FF1
:101200002D933C93608170E080E090E08B019C0125
:1012100001561109210931090A311105210531054C
:1012200028F4605271098109910912C06038710572
:101230008105910568F0DC01CB0180589109A10975
:10124000B109FC01E55FFE4F608170E080E090E055
:101250001F910F9108954F925F926F927F92AF927C
:10126000BF92CF92DF92EF92FF920F931F93CF9393
:10127000DF9300D000D000D0CDB7DEB78C017E83E5
:101280006D8359017A01E114F10471F0CE010596E4
:101290000E94F70821E0E21AF108672B682B692BFE
:1012A00091F780E090E060C0F8018081811152C028
:1012B000A114B10409F44EC081E090E055C08A3217
:1012C000D1F0CE0103960E94F7082B013C01CE011C
:1012D00001960E94F7086B017C01461657066806C6
:1012E000790659F545284628472831F3EB81FC81DA
:1012F00080818F3321F720E030E040E050E0EB8147
:10130000FC81CF0101969C838B8360816F3349F50B
:101310004F5F5F4F61816F3391F36A3281F369816F
:101320007A810E942B09892B39F6E981FA81C080E4
:101330000C2C000CDD08EE08FF08CE0105960E947B
:10134000F708A114B10409F4ACCFCD28CE28CF28DA
:1013500009F4A7CF1C830B838D819E819A83898397
:10136000C5CF21E030E0D6CF26960FB6F894DEBF89
:101370000FBECDBFDF91CF911F910F91FF90EF90E6
:10138000DF90CF90BF90AF907F906F905F904F9025
:101390000895DC014D915C91119741155105F9F0CB
:1013A000FA01BF018191803218F08A33D1F704C06D
:1013B0008091900F90E00895FA0121916E177F07B8
:1013C00071F480ED820F823050F4022E000C330B4A
:1013D000C901C0974E5F5F4F4D935C9308958FEFA7
:1013E0009FEF08950F931F93CF93DF93EC018B0131
:1013F000892BF9F0E881F9813097D9F08081882331
:10140000C1F02A813B81858196812817390789F4AB
:1014100081810E94142380FD0CC02881398180E0E5
:1014200090E0F80131832083DF91CF911F910F91DC
:10143000089589E090E020E030E0F3CF0F931F9310
:10144000CF93DF93EA01890145EB51E00E947022BE
:101450008F3F910541F038F00230110558F0988324
:10146000898382E008C0009729F0012B19F0888356
:1014700081E001C080E0DF91CF911F910F9108952D
:10148000A0E0B0E0E6E4FAE00C94562BDC018D908D
:101490009C901197FB01128E9E960D911D912D919E
:1014A0003C91D197011511052105310509F49FC122
:1014B000EB018C01D4018C91843009F09AC01D9607
:1014C000ED90FC901E97A12CB12CB0E4CB2ED12C2A
:1014D00000E010E080E090E088248A94912CD7010D
:1014E00093962C9130E0A216B30608F044C0B0E603
:1014F000CB16B2E0DB0608F043C096012F7133270C
:10150000232B19F4E2E0CE0ED11CF701EC0DFD1DEA
:101510004180512C542C44242081422AF2E0CF0EE9
:10152000D11C2FEFA21AB20A009729F49201385D5C
:1015300021153840F0F0A801465E5F4F4C0F5D1F4B
:10154000612C712CA0E0B0E0DC0199278827BC0158
:10155000CD0164297529862997299401201B310B17
:101560000E941E0A90E0009759F0080F191F412CA5
:10157000512CC201B4CF892B19F40115110521F4A6
:101580008FE38A8F01E010E0FE01E00FF11F128E61
:101590001D86F70184818C8784FD05C0C701C8962C
:1015A0000E94970808C020E030E040E050E060E092
:1015B00070E080E090E0288339834A835B836C830A
:1015C0007D838E839F83D7011D968C911D9790E01C
:1015D000982F88271C962C911C97822B9B878A8793
:1015E0001F968C911F9790E0982F88271E962C911C
:1015F000FBC0F801E05CFF4F80819181A281B38143
:101600008F3F9F4FAF4FBF4F09F44AC0A12CB12C61
:10161000C12CD12CE12CF12C66246A94712CD401BC
:101620001B96ED91FC911C97EA0DFB1D8081918129
:10163000009771F1C114D10429F49C01385D211582
:101640003840F8F0A701465E5F4F4C0F5D1FA0E0E9
:10165000B0E01601412C512C210133242224BC017D
:10166000CD01622973298429952993012E193F09F7
:101670000E941E0A90E0009749F0E80EF91E80E0F3
:1016800090E022E0A20EB11C6C01C9CFE12CF12C3C
:10169000CD2811F0E12CF12CFE01EE0DFF1D128E74
:1016A00020E030E080E090E06EE2AC014F5F5F4F01
:1016B000D801D296ED91FC91D397E80FF91F808164
:1016C00090E080329105B9F08530910511F485EEF6
:1016D00090E04930510549F42C30310530F4FE01D9
:1016E000E20FF31F65872F5F3F4FFE01E20FF31FED
:1016F00085872F5F3F4FCA014B305105B1F6FE0180
:10170000E20FF31F15868A8D811144C0232B31F01F
:10171000BE01665E7F4FE0E0F0E012C08FE38A8F8B
:10172000E1E0F0E02BC0082E000C990B9C01215445
:1017300031092A31310558F0DB018D93BD01319615
:10174000CB010D97DC018C918111EDCF17C0D80131
:10175000D2962D913C91D397D9011C962C9130E0D3
:10176000E930F10518F448E050E002C040E150E0F3
:1017700024233523232B01F38096DECFEC0FFD1FAE
:10178000128ED801D296ED91FC91D3978485811168
:1017900001C01D86D801D296ED91FC91D397838527
:1017A0008C87D2960D911C91D397C8014C960E94BC
:1017B0007C084B015C01C12CD12C76016883998295
:1017C000AA82BB821C821D821E821F82F801878929
:1017D00090E0982F88272689822B9B878A87818D86
:1017E00090E0982F8827208D822B99878887CDB706
:1017F000DEB7E2E10C94722BFB01480F591F2191D7
:10180000DC012D93CD01A417B507C9F70895FB019D
:10181000438D50E0542F4427928D492B60E070E0B7
:10182000833079F4858990E0982F88272489822B4A
:10183000A0E0B0E0DC0199278827482B592B6A2BC0
:101840007B2BCB01BA0108950F931F93CF93DF93A6
:101850008C01EB01C4960E947C086E837F8388878D
:101860009987C801C8960E9497082A873B874C87AA
:101870005D876E877F87888B998BF80181A1827045
:101880008D831E8A1F8A188E198EDF91CF911F912A
:101890000F910895A0E0B0E0E0E5FCE00C94602B2F
:1018A000EC016A017B018FA998ADA9ADBAAD4817CB
:1018B00059076A077B07D1F001E010E09A01AB01FC
:1018C000BE01655C7F4F89810E942223892B39F0FC
:1018D00081E090E0CC24CA94DC2C760102C080E048
:1018E00090E0CFAAD8AEE9AEFAAE02C080E090E0B8
:1018F000CDB7DEB7E8E00C947C2BA4E0B0E0E3E8E1
:10190000FCE00C94562BFC016A017B0120813181A3
:101910003B832A83423051056105710508F456C1A5
:10192000AA81BB815F964D915D916D917C9192975B
:10193000C416D506E606F70608F048C18C91823039
:1019400009F45CC018F4813041F040C1833009F4DF
:101950007FC0843009F4A7C039C186011695079568
:101960000C0D1D1DC801892F99278695EA81FB81E1
:1019700043A554A565A576A5480F591F611D711D86
:10198000CF010E944A0C892B21F06FEF7FEFCB0132
:1019900026C15801FFEFAF1ABF0A1170EA81FB811F
:1019A000E00FF11F13ADC501892F99278695AA81F4
:1019B000BB819B964D915D916D917C919E97480F57
:1019C000591F611D711DCD010E944A0C892BE9F63A
:1019D000B1E0BB22EA81FB81EA0DFB1D83AD612FE3
:1019E00070E0782BC0FE06C0E4E076956795EA9536
:1019F000E1F701C07F7080E090E0F1C077276F2DA4
:101A00005E2D4D2DEA81FB8183A594A5A5A5B6A5E4
:101A1000480F591F6A1F7B1FCF010E944A0C892B58
:101A200009F0B3CFCC0CDD1CE894C0F8F1E0DF2264
:101A3000EA81FB81EC0DFD1D94AD692F70E0762FDE
:101A40006627EA81FB81EC0DFD1D83AD682BD3CFAA
:101A5000EA81FB8183A594A5A5A5B6A5B701A6013A
:101A600027E076956795579547952A95D1F7480FC2
:101A7000591F6A1F7B1FCF010E944A0C892B09F056
:101A800084CFCC0CDD1CCC0CDD1CFCEFCF22F1E0B4
:101A9000DF22C601CB962A813B81820F931F0E94D1
:101AA0007C089F709CC0B285B9834384548465844C
:101AB000768407851089B189BC832981342D452D11
:101AC000562D672D702F812F9B2FA0E00E94EB2BAE
:101AD00009F47CC0468157816085718546015701B4
:101AE000841A950AA60AB70AAA81BB8119962D9075
:101AF0003C901A978581823059F5452D562D672DDA
:101B0000702F812FAFEF0E94CD2B09E00E94A82BF0
:101B1000B22FA32FF42FE52F910140E050E06B2F5F
:101B20007A2F8F2F9E2F0E946B2A281539054A0580
:101B30005B0508F44BC082169306A406B50609F4AB
:101B40004AC0C701B6016F5F7F4F8F4F9F4F47C09D
:101B5000833049F482899389A489B58988169906C6
:101B6000AA06BB0670F386899789A08DB18D892B53
:101B70008A2B8B2B81F5EA81FB8183A594A5A5A5F2
:101B8000B6A5B701A60127E07695679557954795C5
:101B90002A95D1F7480F591F6A1F7B1FCF010E945A
:101BA0004A0C892B09F0F1CECC0CDD1CCC0CDD1CD1
:101BB000FCEFCF22F1E0DF22C601CB962A813B81E8
:101BC000820F931F0E947C089F7709C061E070E03C
:101BD00080E090E004C06FEF7FEF8FEF9FE72496E7
:101BE000E2E10C94722BA0E0B0E0E9EFFDE00C9490
:101BF000582BEC016A017B0108811981F801808171
:101C0000843029F080E090E0A0E2B0E004C080E001
:101C100090E0A0E0B0E1C816D906EA06FB0618F08D
:101C200082E090E0ACC0D701C6018F719927AA2746
:101C3000BB27892B8A2B8B2B99F7CEA2DFA2E8A694
:101C4000F9A68E809F80A884B98481149104A10490
:101C5000B10469F5F80180818330E8F4F8018781E7
:101C60009085A0E0B0E0B701A601E5E07695679524
:101C700057954795EA95D1F7481759076A077B07A3
:101C800078F6F80187A590A9A1A9B2A98EA79FA768
:101C9000A8ABB9AB48C0F80187A590A9A1A9B2A982
:101CA0001D820097A105B105C9F24C015D01F80143
:101CB00041845284612C712C39E0440C551C661C03
:101CC000771C3A95D1F7B501A401C414D504E604F4
:101CD000F70410F1CE010E947D0C4B015C016F3FB7
:101CE0007F4F8F4F9F4F09F448C082E088169104C0
:101CF000A104B10408F494CFF801878D90A1A1A1AB
:101D0000B2A188169906AA06BB0608F089CFC418A6
:101D1000D508E608F708D7CFC8010E94CF086EA7FC
:101D20007FA788AB99AB8AA69BA6ACA6BDA68EA5BD
:101D30009FA5A8A9B9A90097A105B10509F470CF7D
:101D4000B701A60129E076956795579547952A959D
:101D5000D1F7840F951FA61FB71F8EA79FA7A8AB0B
:101D6000B9ABF1E0DF228BE3C80ED11CC00ED11E4F
:101D7000DBAACAAA80E090E002C081E090E0CDB783
:101D8000DEB7E0E10C94742BCF93DF93EC011B8260
:101D90008FEF9FEFDC018FAB98AFA9AFBAAFCE0149
:101DA0000E944A0C892BA1F5FE01E65CFD4F808163
:101DB00090E0982F882731972081822B85359A4A89
:101DC00049F54BE050E06CEE72E0CE01CB960E94FC
:101DD000C008892B09F18BAD8B3E19F0885E8230EB
:101DE000F8F443E050E068EF72E0CE018F589F4F67
:101DF0000E94C008892B91F045E050E06CEF72E042
:101E0000CE0183579F4F0E94C008892B49F406C01A
:101E100084E007C083E005C081E003C080E001C02A
:101E200082E0DF91CF910895A2E3B0E0EAE1FFE024
:101E30000C94562B7B01DB011D921C920E94C90958
:101E40008C0197FD55C3FC01EE0FFF1FED56F04FBF
:101E5000208031802114310409F44DC3F70131820F
:101E60002082D1018C91811109C0F101108201837E
:101E7000802F0E941B2380FD41C308C0D101119611
:101E80008C910E94142380FDF0CF3BC340E050E0D2
:101E9000BA01C1010E94C40E823009F042C0FE01A5
:101EA00031967F0181010F5F1D4F5101FFEBAF1A8A
:101EB000FDEFBF0A6701F80134978081882321F084
:101EC000C8010E947C0803C060E070E0CB01D6012D
:101ED0006D937D938D939D936D01005F1F4F0A1548
:101EE0001B0549F78E010F5E1F4FD7014D905D9086
:101EF0006D907D907D01498E5A8E6B8E7C8E411443
:101F000051046104710441F0B301A201C1010E94B6
:101F1000C40E823010F413C083E0E016F10629F7F6
:101F2000FAC2198E1A8E1B8E1C8E843019F481E031
:101F300090E0F5C2823018F08DE090E0F0C2F1013F
:101F4000EA5BFF4F813051F4910125583F4F819159
:101F50008111F2CFE217F307D1F775C1D101A95B67
:101F6000BF4F8C9190E0982F88272081822B81157C
:101F7000924011F7F101EE5AFF4F8080912C982C7E
:101F8000882431978081882A8114910419F0A12C2A
:101F9000B12C07C0C101815A9F4F0E947C084B01A0
:101FA0005C01D10193968D929D92AD92BC929697D1
:101FB000F101E55BFF4F0081F10102838FEF800F9C
:101FC000823008F0B9CFE85BFF4F1081812F90E09D
:101FD0001A969C938E931997009709F4ADCF9C01A4
:101FE0002150310982239323892B09F0A5CF3596FF
:101FF000808190E0382F2227319780812901482A5B
:102000005A8A498A18965C924E921797C2018F702D
:102010009927892B09F090CF3396808190E0982FF3
:10202000882731972081822B2C01612C712C892BE0
:1020300039F4C101855A9F4F0E947C082B013C0155
:10204000F101E65BFF4FE081F0E0FE2FEE27D101CA
:10205000A75BBF4F8C91E82B309709F46DCFA02F71
:10206000B0E0A50194010E94932A6D8F7E8F8F8F1F
:1020700098A36F01E12CF12CC9A2DAA2EBA2FCA279
:1020800089899A89E4E096958795EA95E1F7C80EE3
:10209000D91EE11CF11CD701C601CD8CDE8CEF8C62
:1020A000F8A0C80ED91EEA1EFB1E4C145D046E0477
:1020B0007F0408F441CFC301B2016C197D098E0978
:1020C0009F09212F30E040E050E00E946B2A21154B
:1020D00031054105510509F42FCF263F0FEF300799
:1020E00040070FE0500708F027CF263F1FEF3107CA
:1020F0004105510540F4263F8FE038074105510561
:1021000020F411E003C013E001C012E029013A01FC
:1021100092E0490E511C611C711CD1015F964D92D9
:102120005D926D927C929297298D3A8D4B8D5C8D4C
:1021300097962D933D934D935C939A97DA01C9013D
:1021400029A13AA14BA15CA1820F931FA41FB51F27
:10215000F10183A794A7A5A7B6A7498D5A8D6B8DCA
:102160007C8D4C0D5D1D6E1D7F1D43AB54AB65AB6F
:1021700076AB133031F5EA59FF4F808190E0982F0C
:10218000882731972081822B892B09F0D5CEC988E9
:10219000DA88C114D10409F0CFCEC10189599F4F0B
:1021A0000E947C08D1019F966D937D938D939C93A3
:1021B000D29762E0440C551C661C771C6A95D1F7D7
:1021C0002EC0C988DA88C114D10409F4B5CECD8CEB
:1021D000DE8CEF8CF8A0C80ED91EEA1EFB1EC7A627
:1021E000D0AAE1AAF2AA123029F4440C551C661CAC
:1021F000771C15C0A3E0B0E0A30192010E94932ACE
:10220000DC01CB01B695A79597958795E1E04E2225
:10221000552466247724480E591E6A1E7B1EFFEF44
:102220004F0EF1E05F1E611C711C39E076946794DB
:10223000579447943A95D1F784149504A604B704AB
:1022400008F47ACE34C1F101EC55FF4F808190E063
:10225000982F882731972081822B8115914009F092
:102260006BCEF101E955FF4F81E090E0008002C0A4
:10227000880F991F0A94E2F78115924009F05CCE0D
:10228000C1018D579F4F0E949708498C5A8C6B8CC7
:102290007C8C53014201C12CD12C7601498A9A8A47
:1022A000AB8ABC8ACD8ADE8AEF8AF88E5201CB884F
:1022B000DC88E12CF12C00E010E00E94C42B2D8F73
:1022C00039A3742E652E562E472E8DA39EA3562D10
:1022D000652D742D2F3F3F4F4F4F5F4F61057105A7
:1022E0008105910511F008F027CEC10181579F4F5C
:1022F0000E947C08D10193966D937D938D939C935E
:102300009697F101E755FF4F8081F101828381307B
:1023100009F012CEE855FF4F01E010E0008002C046
:10232000000F111F0A94E2F71A961C930E93199747
:102330000115110509F400CEC10189569F4F0E9475
:102340007C089B01AC016E3FBFEF7B078B07BFE7AB
:102350009B0708F0F1CDDC01CB010296A11DB11D58
:10236000F101878F90A3A1A3B2A3898C9A8CAB8C27
:10237000BC8C87A290A6A1A6B2A6C1018D569F4F84
:102380002FA338A749A75AA70E947C08860E971E3C
:10239000A81EB91E898A9A8AAB8ABC8AF10183AACF
:1023A00094AAA5AAB6AAC10185579F4F0E947C088E
:1023B000898C9A8CAB8CBC8C860E971EA81EB91E7D
:1023C000F10183A694A6A5A6B6A6A988BA88CB884B
:1023D000DC8845015601C12CD12C76018BA69CA628
:1023E000ADA6BEA6CFA6D8AAE9AAFAAAD8012FA15F
:1023F00038A549A55AA50E94932A7B018C0120E0AB
:1024000030E0A901698BFA8A0B8B1C8B2D8B3E8BDC
:102410004F8B588F9401A50160E070E080E090E060
:1024200057016801E12CF12C00E010E00E94C42B60
:1024300059016A017B018C012D8D39A1472D562D43
:10244000652D742D8DA19EA10E94E22B08F474CD00
:10245000C10185569F4F0E947C08AB01BC01D10190
:102460009F964D935D936D937C93D297C1010E948B
:10247000CF08AB01BC01C1010E944A0C892B09F0B5
:1024800056CD8101015B1F4F7101B1EBEB1ABDEF1E
:10249000FB0AF801749780818138B1F5C8010E9468
:1024A0007C08623071058105910571F514E0D10158
:1024B0001C938091910F9091920F01969093920F9F
:1024C0008093910F16969C938E93159780E39BE0D3
:1024D0001C969C938E931B9780E39DE01E969C9385
:1024E0008E931D97F1011786108A118A128A09C0EE
:1024F0008BE090E014C08CE090E011C083E090E0AD
:102500000EC080E090E00BC0005E1F4F0E151F054F
:1025100009F0BFCF11CD843009F00ECD08CDE29681
:10252000E2E10C94722BA0E0B0E0E9E9F2E10C9456
:102530005C2BEC0108811981CEA0DFA0E8A4F9A4EE
:102540004EA55FA568A979A94115510561057105D9
:1025500009F497C0F8018081843029F080E090E090
:10256000A0E2B0E004C080E090E0A0E0B0E1F0E2E2
:10257000CF0ED11CE11CF11CC816D906EA06FB06D9
:1025800008F07FC0D701C6019170AA27BB27892B0D
:102590008A2B8B2B09F065C04F5F5F4F6F4F7F4FCA
:1025A0004EA75FA768AB79AB4AA55BA56CA57DA5D7
:1025B000F8014115510561057105C1F487819085C8
:1025C000A0E0B0E0B701A60135E076956795579594
:1025D00047953A95D1F7481759076A077B0708F4DA
:1025E00040C01EA61FA618AA19AA4BC081859285B5
:1025F0000197A0E0B0E04601570129E0B694A79406
:10260000979487942A95D1F788219921AA21BB21F3
:10261000892B8A2B8B2B29F5CE010E947D0CAB01D7
:10262000BC01423051056105710570F14F3FFFEF6C
:102630005F076F077F0759F1F801878D90A1A1A16E
:10264000B2A1481759076A077B0758F64AA75BA744
:102650006CA77DA7C8010E94CF086EA77FA788AB93
:1026600099ABCEA2DFA2E8A6F9A6F1E0DF222BE328
:10267000C20ED11CC00ED11EDBAACAAA80E090E017
:1026800008C084E090E005C082E090E002C081E0F4
:1026900090E0CDB7DEB7ECE00C94782BA0E0B0E092
:1026A000E4E5F3E10C94602BEC0188819981FC0155
:1026B000058516854EA55FA568A979A90E944A0CD3
:1026C000009709F0BCC06AA97BA9FB01808185380D
:1026D00011F022E0B7C040E250E0C8010E94FC0BBC
:1026E000F801E180F12CFFEFEF1AFF0A95E0EE0C04
:1026F000FF1C9A95E1F7C7018056910981309240FD
:1027000040F7CE010E9493128430910511F3009797
:1027100009F095C04EA55FA568A979A9888199811E
:102720000E944A0C009709F08AC06AA97BA9FB01A4
:102730008081803C71F640E250E0C80180960E94A2
:10274000FC0BF80183A190E08C966FE070E00E9492
:10275000572A85E0660F771F8A95E1F7E616F70698
:1027600008F4B7CFB0E4CB2ED12CCE010E94931247
:102770008430910519F0009721F061C082E090E06B
:102780005EC04EA55FA568A979A9888199810E943C
:102790004A0C009709F053C06AA97BA9FB0180810C
:1027A000813C09F096CFF0E6CF16F2E0DF0638F470
:1027B00040E250E0C8018C0D9D1D0E94FC0B20E200
:1027C000C20ED11CCE14DF0480F281E6C81682E06E
:1027D000D806B8F5F801818190E00196A5E0880F50
:1027E000991FAA95E1F720E030E040E050E0423048
:1027F000510591F0B9016170772720FF02C060E0B8
:1028000070E8F801E40FF51FE081369527952E0F4B
:10281000311D260F371F02C043E050E04F5F5F4F6E
:102820004817590720F3F801838190E0982F8827F3
:102830004281842B2817390709F04BCF02C0282F7B
:1028400002C020E090E0822FCDB7DEB7E8E00C9424
:102850007C2B6F927F929F92AF92BF92CF92DF922A
:10286000EF92FF920F931F93CF93DF93EC01E880D9
:10287000F9800FEF1FEF64E0C62ED12C7DE0972E7C
:102880005C0140E4A40EB11C4EA55FA568A979A91E
:10289000411551056105710509F4CCC0C7010E94BD
:1028A0004A0C6C01892B09F0C8C0EAA9FBA98081F8
:1028B000882309F4C9C0D7019C919430E9F4853884
:1028C00009F0B0C08EA19FA1A8A5B9A5FE01E05C4A
:1028D000FF4F80839183A283B383CE010E944E1366
:1028E000009709F0B5C0D7011D96ED91FC911E9798
:1028F00084818F738C83AEC093859F739C83853E48
:1029000009F48FC08E3209F48CC0292F2F71283022
:1029100009F487C09F3009F06AC086FF0EC00585A4
:10292000182F1F7B4EA15FA168A579A5D5014D93F6
:102930005D936D937C93139702C0811372C085855C
:1029400008136FC0D7011B968D919C911C97238D06
:1029500030E0322F2227428D242B232B09F061C037
:10296000408150E04F7B41505109949E9001959ECB
:10297000300D11244BE8642E41E0742E61E070E0CC
:10298000D3014D913D016F01C40ED11CD6011196AA
:102990004C91119750E0542F4427DC904D2961153C
:1029A000710579F02F3F3105E0F5B901660F771F0A
:1029B000680F791FDB014D935C93BA012F5F3F4F86
:1029C00003C04F3F5F4F69F548E9641641E0740664
:1029D000B9F6408146FF36C02F3F310510F5220F72
:1029E000331FFC01E20FF31F118210822BC0111163
:1029F0000EC09F01255F3F4F80E080FB879587F9E0
:102A00009191890FE217F307C1F7081719F1C05C1C
:102A1000DF4F8FEF9FEFDC0188839983AA83BB830D
:102A200019C01FEFCE010E9493126C01892B09F48B
:102A30002BCF03C0C114D10469F01EA61FA618AA8B
:102A400019AA08C01150EECF84E0C82ED12CF5CFC2
:102A50006C01F3CFC601DF91CF911F910F91FF90D1
:102A6000EF90DF90CF90BF90AF909F907F906F904E
:102A70000895ADE5B0E0EFE3F5E10C94562B8C0141
:102A80002B01DC012D903C90FB0180818F3211F0F5
:102A90008C3511F492010BC0F10187859089A189D1
:102AA000B289F80186839783A087B1870EC0290178
:102AB000D9018C912F5F3F4F8F32C9F38C35B9F319
:102AC000F8011682178210861186D80156961D923B
:102AD0001D921D921C925997F1018081843009F05A
:102AE0006CC016968D919D910D90BC91A02D892B57
:102AF0008A2B8B2B09F461C083899489A589B689B7
:102B0000F801828F938FA48FB58FF1018788908C05
:102B1000A18CB28CF801868E978EA0A2B1A2F10191
:102B2000438D548D658D768DF80142A353A364A324
:102B300075A33A8229828F839887A987BA878E8264
:102B40008824C12CD12C76018B869C86AD86BE86CE
:102B50001F86188A198A1A8A1F8A188E198E1A8E49
:102B600025964CAF5DAF6EAF7FAF2597CE01019636
:102B70000E94F30D009709F074C4CE0101960E94E3
:102B80004E13009709F06DC4D1011D96ED90FC9095
:102B90001E97C701C8960E947C089B01AC01F801F2
:102BA000628733874487558716861786108A118A6D
:102BB000D70191968C9182708583F2018081803259
:102BC000A0F098012C5C3F4F2F963FAF2EAF2F9770
:102BD000255F3F4F67963FAF2EAF67972F5F3F4F01
:102BE0002D963FAF2EAF2D97CCC080E8D801DF9651
:102BF0008C9340E050E0BA01C8010E94F30D31C44B
:102C00008F32910559F18C35910541F1803891054C
:102C100028F4E2E0F3E021912111C0C0EFEFEE16BD
:102C2000F10409F4FEC3FFEFEF1AFF0AD4018D93FC
:102C30009D934D01BFEF4B1A5B0AF20131978081E2
:102C4000882309F4A8C065EB71E090E00E94992206
:102C5000009709F4E6C38032910590F6A2012A019B
:102C6000FA0120814F5F5F4F2F32C9F32C35B9F342
:102C7000809708F49BC0712CF701EE0FFF1F21E035
:102C8000E216F10409F095C0D5018D919C918E97C3
:102C900009F09BC0EA0DFB1D118210822F96EEAD4C
:102CA000FFAD2F9780E090E08E159F0508F490C04F
:102CB00020E2219301968B309105B1F7872D806238
:102CC000F80187AFF8016080718040E050E0BA0100
:102CD000C8010E94F30D0097C9F4F301808184308C
:102CE00009F02DC2E384F484C12CD12CD7016D915D
:102CF0007D917D016115710509F095C1C8010E94A2
:102D000029147C01892B09F4B5C1C701F80127AD4D
:102D1000009709F05EC322FDA4C3D801848184FF1B
:102D20007DC3F1018081843009F066C316968D91D0
:102D30009D910D90BC91A02DF801828F938FA48F4F
:102D4000B58F82859385A485B58588272581822BBB
:102D5000868F978FA0A3B1A32D96EEADFFAD2D97D3
:102D600080819181A281B381F80182A393A3A4A35E
:102D7000B5A3B801D1011D968D919C911E970E941B
:102D8000240CD801ED91FC91A384B4846501450124
:102D9000E12CF12C4FCF80E090E05DCF022E000CB3
:102DA000330B2817390709F036CF3BC354E0752E93
:102DB00063CFB2E0EB16F10441F4D50112968D9188
:102DC0009C9113978E9709F45FCFEA0DFB1D0AC003
:102DD0002EE26FCF929182918032910539F421E0F9
:102DE000E21AF108E114F104A9F702C08E97B9F3D1
:102DF000D701AA0FBB1F9D012A0D3B1DD9011D92B2
:102E00001C92E114F10409F40CC3E0E0F0E0D601F7
:102E10008D919D916D018032910511F43196F7CF1E
:102E2000309711F48E9719F4B72DB3607B2ED9012A
:102E30009E918E918E9721F021E0E21AF108C1F760
:102E40002F96AEADBFAD2F9780E28D9367968EAC77
:102E50009FAC6797A815B905C1F728E0C22ED12C01
:102E600020E030E0612C4F014FEF841A940AEE0FFE
:102E7000FF1FEA0DFB1D80819181009709F4A9C015
:102E80008032910539F08E32910549F48E149F04F9
:102E900009F4E1C2572D5360752EF401E4CF2C15CF
:102EA0003D0520F48E149F04F9F4CFC26BE0C616E2
:102EB000D10439F4772D7360772E8BE0C82ED12C96
:102EC00088C08E149F0439F0872D8360782EE81413
:102ED000F90408F47EC0660C660C4701BBE0CB2EFB
:102EE000D12C28E030E0D9CF80389105D8F1A72D3A
:102EF000A2602896AFAF2897BC0180E090E045EB38
:102F000051E06A962FAF6A9768963FAF68970E9424
:102F100070226A962FAD6A9768963FAD689787FFD3
:102F20000BC08F779927FC01E55FFE4F808190E011
:102F300028967FAC289716C08F3F9105B1F0A8F076
:102F4000A601415051092417350728F0B72DB36069
:102F50007B2E9601A2CFF801E20FF31F94AB2F5FF7
:102F60003F4F2DC028967FAE2897009759F0EBE091
:102F7000F3E04191442381F0042E000C550B4817D7
:102F80005907B9F72896EFAD2897E3602896EFAF79
:102F900028978FE590E013C0AC01415451094A31A4
:102FA000510518F4F62DF2606F2EAC01415651090F
:102FB0004A31510520F4462D4160642E8097F80176
:102FC000E20FF31F84AB2F5F3F4F28967FAC28970B
:102FD00064CFD801D4968C91D497853E19F485E0BE
:102FE000D4968C93B8E0CB16D10411F4660C660C21
:102FF000862D8C708C3021F0862D8370833019F4EF
:10300000E72DE2607E2E71FC0AC060FE03C0F72D42
:10301000F0617F2E62FE03C0272D2860722ED8013A
:10302000DF967C924FCE80E090E00E94AE22F601C7
:10303000E170FF27C0FE02C0E0E0F0E8D694C7943C
:103040009B013327C20ED31EA6014E0F5F1F9A01AC
:103050002170332740FF02C020E030E8FA01F695E6
:10306000E795472F5527CF01840F951F6C01C20E9E
:10307000D31E3CCED3011D96ED91FC911E9785A1E8
:1030800090E0982F882724A1822B8C159D0509F0AC
:1030900035CE83A1882E912C61969FAE8EAE61971E
:1030A000A12CB12C80E4882E912C61962EAD3FADE1
:1030B0006197A216B30609F4B7C1C4018F719927AD
:1030C000892B19F422E0820E911CD3011D96ED91FB
:1030D000FC911E97E80DF91D618170E0762F66273F
:1030E0008081682B80E090E00E94AE222B966CAF2E
:1030F0007DAF8EAF9FAF2B97D3011B96ED91FC91C7
:103100001C97C501880F991FE80FF91F6081718115
:1031100080E090E00E94AE222B962CAD3DAD4EADEE
:103120005FAD2B97261737074807590709F0E6CDFB
:1031300032E0830E911C4FEFA41AB40AB6CF4FEFC2
:103140005FEFBA012D96AEADBFAD2D974D935D9358
:103150006D937C9313972FEF28962FAF2897D80164
:103160009E964D915D916D917C91D197C3016A9628
:103170002FAF6A970E944A0C6A962FAD6A97009704
:1031800009F0C4CDF801C2A8D3A8D6018C91882338
:1031900009F419C11B963C91932F9F739483853E2C
:1031A00009F4F6C033FF04C09F3009F0F1C003C03A
:1031B0009F3009F0C9C0F80197AD96FDF7C086FFB2
:1031C00015C0D6011D96BC912896BFAF2897282F11
:1031D0002F7B86A197A1A0A5B1A52D96EEADFFAD41
:1031E0002D9780839183A283B38302C08213DDC0B5
:1031F000D6011D968C9128968FAC28978812D5C041
:10320000D3011B960D90BC91A02D6C96BFAFAEAFB5
:103210006C97F601838D90E0982F8827328D832B51
:10322000892B09F0C2C080818F7390E00197FDE087
:10323000F89F7001F99FF00C11244BE851E081E0F8
:1032400090E0DA013D91AD01F601E30FF11DA1809F
:10325000B12CBA2CAA2430814501832A6E969FAEE8
:103260008EAE6E97009709F44CC03FEFE316F10461
:1032700008F09BC0B40180E090E06A962FAF6A9797
:103280006896AFAF689769965FAF69970E94AE2264
:1032900063966CAF7DAF8EAF9FAF6397B7016F5FE3
:1032A0007F4F65967FAF6EAF6597EE0CFF1C6C96F7
:1032B000EEADFFAD6C97EE0DFF1D6081718180E07A
:1032C00090E00E94AE226A962FAD6A9768964FAD45
:1032D000689769965FAD699763968CAC9DACAEAC10
:1032E000BFAC639786169706A806B90609F05DC0BD
:1032F0006E968EAD9FAD6E976596EEACFFAC659702
:1033000009C06E96AEACBFAC6E973FEFA316B30686
:1033100009F04BC061E04839560709F092CFD60159
:103320003C9136FF90C0892B09F48DC0EE0CFF1C38
:103330006C96EEADFFAD6C97EE0DFF1D8081918117
:10334000892B09F480C031C0211112C0F601960109
:10335000255F3F4F80E080FB879587F99191890F2A
:10336000E217F307C1F728968FAC2897881671F1FA
:10337000D801DF968C9180FD0BC04BE050E02F967A
:103380006EAD7FAD2F97C6010E94C008892BF1F06A
:1033900088248A94982C54012D96AEADBFAD2D97FC
:1033A0008D929D92AD92BC9213972FEFC8016A96B1
:1033B0002FAF6A970E9493126A962FAD6A97009773
:1033C00009F4CDCEA3CC84E090E0A0CC80E090E0E6
:1033D0009DCC8430910509F044C0322F347025FF14
:1033E00008C0332309F4CDCC80E887AF80E090E0BB
:1033F00038C0311136C012C0F80166A177A17170D2
:10340000655C7F4F620D731D0E94070CD8011696F4
:103410006D937D938D939C931997B3CC85E090E049
:1034200020C086E090E01DC0AA0CBB1CD3011B96F7
:10343000ED91FC911C97EA0DFB1D80819181892BF8
:1034400009F05CCC62CC2150B1CFBBE0CB16D104EB
:1034500009F041CD2FCDEBE0CE16D10409F03BCDE4
:1034600029CDC35ADF4FE2E10C94722BA7E0B0E004
:10347000ECE3FAE10C94662B9C838B837E836D8353
:103480007A836983CE0101964F830E94C9094F81D7
:1034900097FD1FC0880F991FFC01ED56F04F01905A
:1034A000F081E02D309709F01082EB81FC8130979C
:1034B00009F01082DC01AD56B04FED93FC9344232C
:1034C00059F0BE016D5F7F4FCE0105960E94140F2B
:1034D00005C08BE090E002C080E090E02796E2E03B
:1034E0000C94822BAAE4B0E0E8E7FAE10C945B2BA1
:1034F0002B967FAF6EAF2B97009739F1742E8C010E
:10350000BE01695B7F4FCE01875B9F4F0E94140F06
:10351000009709F0A0C029968EAD9FAD29979A8398
:1035200089832B966EAD7FAD2B97CE0101960E94BD
:103530003915009709F08FC021968FAD219787FD2F
:1035400085C08D8184FD85C003C089E090E086C080
:1035500029964EAD5FAD2997DA018C91843039F50B
:103560008F819885A985BA85F801828F938FA48F62
:10357000B58F8B859C85AD85BE8588272E81822B56
:10358000868F978FA0A3B1A325968CAD9DADAEADD0
:10359000BFAD259782A393A3A4A3B5A3B801DA0175
:1035A0001D968D919C911E970E94240C2BC0EBA818
:1035B000FCA8B7010E94070CF80166837783808717
:1035C0009187C7014C960E947C084B015C01C12C7D
:1035D000D12C7601D8011A966C931A971B969C925F
:1035E0001B971C96AC921C971D96BC921D971E961D
:1035F0001C921E971F961C921F9750961C925097D4
:1036000051961C922996EEADFFAD2997D8011196DF
:10361000FC93EE938581968113969C938E931297DB
:10362000472D417096964C93969797961C92F80169
:1036300014AA15AA16AA17AA10A611A612A613A6AE
:1036400014A615A616A617A680E080CF86E090E007
:1036500002C084E090E0F80111821082C65BDF4F67
:10366000EDE00C94772BAAE0B0E0E9E3FBE10C94E9
:10367000562B4C012B013A011901D9011D921C92C4
:10368000BE016F5F7F4F0E94F209009709F04AC1A7
:10369000F40187A190E0009709F044C186A180FF62
:1036A0003FC1228533854485558566857785808928
:1036B0009189A0A4B1A4C2A4D3A4E4A4F5A406A5AE
:1036C00017A50E94D92BF22FE32F6A017B018C01F1
:1036D000930140E050E060E070E080E090E0AF2EC9
:1036E000BE2E0E94E22B09F008F4ABC0CF01692E78
:1036F000782EA7C0D4019896FC9198979996EC9152
:1037000099979A96BC909A979B96CC909B979C96EB
:10371000DC909C979D96EC909D979E96FC909E9732
:103720009F96AC903E2F31702F2F40E050E060E02C
:1037300070E080E090E0A0E00E94EB2B09F0C5C0B3
:103740003E2F4B2D5C2D6D2D7E2D8F2D9A2D09E05A
:103750000E94A82B2B833C834D835E836F837887E5
:1037600089879A8789819A81DC0119960D911C912C
:103770001A97015011092B813C8102231323011553
:10378000110509F463C0C980DA80F40140A951A988
:1037900062A973A9C6010E94CF0861157105810550
:1037A000910509F474C09B01AC01200F311F411D2C
:1037B000511D7301EF2CFF24E694E114F10409F488
:1037C0007DC0D60119968D919C911A97B701600F13
:1037D000711F8617970718F47C01E01AF10A870118
:1037E000B201F60181810E942223892B09F05AC07F
:1037F000FE2CEE24FF0C6E187F08D1018D919C9158
:1038000011978E0D9F1D8D939C934E0C5F1C9701FD
:1038100040E050E060E070E080E090E0F401A0A4BF
:10382000B1A4C2A4D3A4E4A4F5A406A517A50E943C
:10383000C42B20A731A742A753A764A775A786A7C3
:1038400097A76114710409F055CF68C02F2F3E2F40
:103850004B2D5C2D6D2D7E2D8F2D9A2DA0E00E947D
:10386000EB2B41F4D40116966D917D918D919C9135
:10387000199708C0F40140A951A962A973A9C4010C
:103880000E947D0C623071058105910528F482E06B
:10389000D40197968C9345C06F3FBFEF7B078B0792
:1038A0009B0721F481E0F40187A33BC0D401D096AB
:1038B0006D937D938D939C93D39765CFD401D496CC
:1038C0002D933D934D935C93D797F40180A591A5DB
:1038D000917020E032E0281B390B73012615370563
:1038E00008F47901D401D4964D915D916D917C914C
:1038F000D79789819A810E944A0C892B99F6F40105
:1039000060A571A57170655C7F4F89819A81680F90
:10391000791FA701C2010E94FC0B6DCF80E001C09E
:1039200087E090E02A96E2E10C94722BA2E0B0E0EE
:10393000ECE9FCE10C94642B8C01BE016F5F7F4FBE
:103940000E94F209009719F4F80111821082229660
:10395000E4E00C94802BA2E0B0E0E1EBFCE10C94FD
:10396000662B9A838983CE0101960E94C90997FD2F
:1039700005C08093900F80E090E002C08BE090E063
:103980002296E2E00C94822BAAE4B0E0EAECFCE19F
:103990000C94622B2B969FAF8EAF2B97BE01695B69
:1039A0007F4FCE01875B9F4F0E94140F8C01892BA4
:1039B00009F07DC029968EAD9FAD29979A838983A2
:1039C0002B966EAD7FAD2B97CE0101960E943915D7
:1039D0008C01009709F067C021968FAD219787FF72
:1039E00025C02996EEADFFAD29978F819885A985D1
:1039F000BA858787908BA18BB28B8081843009F048
:103A000056C08B8D9C8DAD8DBE8D838B948BA58B7D
:103A1000B68B8F8D98A1A9A1BAA1878B908FA18F0A
:103A2000B28F8BA19CA1ADA1BEA12EC08D8184FFC0
:103A30003CC02996EEACFFAC2997F7018081843019
:103A400041F585859685C4960E947C08F7016787B5
:103A5000708B818B928B8F819885A985BA85838B9A
:103A6000948BA58BB68B8B859C85AD85BE85882771
:103A70002E81822B878B908FA18FB28F25968CAD54
:103A80009DADAEADBFAD2597838F948FA58FB68FBB
:103A90000EC06BA97CA90E94070CF7016787708B89
:103AA000818B928B04C0049711F405E010E0C801EB
:103AB000C65BDF4FE6E00C947E2B4F925F926F92D5
:103AC0007F92BF92CF92DF92EF92FF920F931F935C
:103AD000CF93DF93CDB7DEB7C456D1400FB6F8947D
:103AE000DEBF0FBECDBFCD59DE4F99838883C3564D
:103AF000D1406B01DC011C92BE016F597E4FCE019B
:103B00008D599E4F0E94140F7C01892B09F011C121
:103B1000CF59DE4FE881F981C156D140C55EDE4FF5
:103B2000F983E883CB51D1408081843009F4C8C047
:103B300087859089A189B289CF5DDE4F888399837B
:103B4000AA83BB83C152D14086012FE2B22ECF5D42
:103B5000DE4F488059806A807B80C152D140411439
:103B600051046104710409F4B7C040E250E060E020
:103B700070E0CE01855E9E4F0E94F30D009709F024
:103B8000D6C0C75BDE4F488159816A817B81C954A9
:103B9000D140CF59DE4F88819981C156D1400E94D2
:103BA0004A0C009709F0C3C0C35BDE4F688179817E
:103BB000CD54D140CF59DE4FE881F981C156D14073
:103BC00080810E94070CCF5DDE4F688379838A83F2
:103BD0009B83C152D14040E050E0BA01CE01855EE6
:103BE0009E4F0E94F30D009709F0A1C0CE01855EA3
:103BF0009E4F0E942914009709F068C0C35BDE4FF6
:103C000068817981CD54D140CF59DE4FE881F98167
:103C1000C156D14080810E94070C4616570668069F
:103C2000790669F4BE016F5F7F4FCE01855E9E4FBE
:103C30000E94400AFE017B9680E090E008C0CE0121
:103C4000855E9E4F0E949312009781F23FC02191A2
:103C5000222311F00196FBCF9C012D5F3F4F0217ED
:103C6000130780F1A801481B590B9801BC01601B88
:103C7000710B24173507B1F021503109F901E60F16
:103C8000F71FA1E0B0E0AC0FBD1FEA0FFB1FA28D34
:103C9000CD59DE4FE881F981C356D140E20FF31FC1
:103CA000A083E7CF80959095080F191FCD59DE4F5F
:103CB000E881F981C356D140E00FF11FB08247CFB0
:103CC00086010AC091E1E92EF12C06C084309105ED
:103CD00071F582E0E82EF12CCD59DE4FE881F981B3
:103CE000C356D140E114F10401F58091900F805D3D
:103CF00080838AE381830C151D0521F48FE2828382
:103D0000339613C032963196CD59DE4FA881B981D2
:103D1000C356D140A00FB11F8C91DF0111978C9336
:103D20000F5F1F4F0C151D0570F3108202C07C0140
:103D3000D3CFC701CC59DE4F0FB6F894DEBF0FBE0C
:103D4000CDBFDF91CF911F910F91FF90EF90DF904A
:103D5000CF90BF907F906F905F904F900895A0E2BA
:103D6000B0E0E5EBFEE10C94562B1C0179013A0121
:103D70004B01BE016F5F7F4F0E94F209009709F06F
:103D800062C2D10197968C9190E0009709F05BC2D6
:103D9000E981FA81FC83EB8380818430C1F0980152
:103DA000A701B301C4012F3F3F4F4F4F5F4F610544
:103DB00071058105910559F050F00FEF1FEFEE24CA
:103DC000EA94FF24FA94612C712C812C912CD1015E
:103DD0001A96BC91BB87F101F385FA8BD1011C9631
:103DE0004C901C971D965C901D971E96BC91F101FE
:103DF000A785F089FE8BF101F189FF8B0C871D8768
:103E0000EE86FF86688A798A9801A701B301C4010A
:103E1000AB84BA886201EB2EFA2E0E891F2F0E9406
:103E2000E22B41F038F0AC86BD864E865F86B88BBB
:103E3000A98B4801D10198967C9098979996EC901F
:103E400099979A96FC909A979B960C919B979C9623
:103E50001C919C979D96BC91F10166A457A410A655
:103E600011A612A613A614A615A616A617A62C858B
:103E70003D854E855F8568897989C401A0E00E94EF
:103E8000EB2B21F4412C512C3201C0C1EB81FC8180
:103E90004185528560E070E05A016B0189E0AA0C0F
:103EA000BB1CCC1CDD1C8A95D1F7AA8ABB8ACC8AA4
:103EB000DD8A272D3E2D4F2D502F612F7B2F862DF4
:103EC000952DA0E00E94EB2B09F491C0AFEF0E946A
:103ED000CD2B2E8B3F8B488F598F2B013C012C858E
:103EE0003D854E855F8568897989C4010E94CD2B07
:103EF0007601650156016701E12CF12C8701AB8247
:103F0000BC82CD82DE82EF82F88609871A87E12C97
:103F1000F12C00E010E00E94F92A2B873A8F4B8F9A
:103F20005C8F6D8F7E8F8F8F98A32E893F89488DF0
:103F3000598DB201C3010E94F92A59016A017B011E
:103F40008C012B853A8D4B8D5C8D6D8D7E8D8F8D8B
:103F500098A10E94E22B08F44AC00A891B892C8987
:103F60003D890150110921093109A02EA094B12EDB
:103F7000B094C22EC094D32ED094EE88AE20FF8889
:103F8000BF20088DC022198DD122D1019896AC9204
:103F900098979996BC9299979A96CC929A979B9655
:103FA000DC929B979C964C929C979D965C929D97D9
:103FB0009E966C929E979F967C929F972C853D85AE
:103FC0004E855F8568897989C401720183010E94E9
:103FD000D92B2C873D874E875F87688B798B4C0167
:103FE000D0964D905D906D907C90D39709C0F10173
:103FF000468057806084718440AA51AA62AA73AA3D
:10400000411451046104710409F43CCFCA88DB886F
:10401000EC88FD8856016701E12CF12C8701AB8209
:10402000BC82CD82DE82EF82F88609871A872C85D2
:104030003D854E855F8568897989C401AB80BC80E8
:10404000CD80DE80E12CF12C00E010E00E94E22B1C
:1040500009F008F47CC02C853D854E855F85688914
:104060007989C401AB80BC80CD80DE80E12CF12C4D
:1040700000E010E00E94D92B2C873D874E875F8798
:10408000688B798B4C019501A60160E070E080E0BF
:1040900090E0D1019896AC9098979996BC9099979A
:1040A0009A96CC909A979B96DC909B979C96EC90D6
:1040B0009C979D96FC909D979E960C919E979F969F
:1040C0001C919F970E94C42B98962C939897999631
:1040D0003C9399979A964C939A979B965C939B974F
:1040E0009C966C939C979D967C939D979E968C93A3
:1040F0009E979F969C93B301A201C1010E947D0CE3
:104100002B013C016F3FBFEF7B078B079B0721F41F
:1041100081E0F10187A396C06230710581059105A8
:1041200058F0E981FA81878D90A1A1A1B2A148162A
:1041300059066A067B0628F082E0D10197968C9397
:1041400081C0F10140AA51AA62AA73AA70CFD1011D
:104150009896AC9098979996BC9099979A96CC908F
:104160009A979B96DC909B979C96EC909C979D963B
:10417000FC909D979E960C919E979F961C919F9761
:104180000E94C42B98962C93989799963C93999754
:104190009A964C939A979B965C939B979C966C935C
:1041A0009C979D967C939D979E968C939E979F96A9
:1041B0009C932C853D85317040E050E060E070E0DC
:1041C00080E090E0A0E00E94EB2B09F45BCEB3010D
:1041D000A20189819A810E94CF082B013C01672BA3
:1041E000682B692B09F4A8CF2C853D854E855F850A
:1041F00068897989C40109E00E94A82B49015A0104
:104200006B017C01480C591C6A1C7B1CF10120A528
:1042100031A5317040E050E060E070E080E090E077
:10422000A0E00E94EB2B69F084A995A9A6A9B7A9E3
:10423000481659066A067B0621F044AA55AA66AAC2
:1042400077AA80E090E0A096E2E10C94722BA4E0C3
:10425000B0E0EDE2F1E20C94642B7C836B83009779
:1042600009F46BC08C01BE016F5F7F4FCE010396D6
:104270000E94140F009709F05CC089819A81F801AF
:10428000918380836B817C81C8010E9439150097DE
:1042900009F05AC0F80187AD87FD39C0848184FFD9
:1042A00046C049815A81FA018081F801843031F594
:1042B00086819781A085B185828F938FA48FB58FDA
:1042C00082859385A485B58588272581822B868F55
:1042D000978FA0A3B1A3D801A05CBF4F8D919D91F2
:1042E0000D90BC91A02D82A393A3A4A3B5A3B80164
:1042F000FA01858596850E94240C09C062A973A9DC
:104300000E94070CF8016683778380879187E98193
:10431000FA8185819681F8019383828340E050E0A1
:10432000BA01C8010E94F30D8430910541F485E083
:1043300090E0F801118210820BC089E003C0009761
:10434000C1F780E090E004C08430910591F7EFCF91
:104350002496E4E00C94802BA2E0B0E0E2EBF1E2E2
:104360000C94642B8C01BE016F5F7F4F0E94F20999
:10437000009719F4F801118210822296E4E00C945F
:10438000802BA2E0B0E0E7ECF1E20C94602B7C0122
:104390006B01BE016F5F7F4F0E94F2098C01892B78
:1043A000E1F4C114D10439F440E050E0BA01C7018E
:1043B0000E94F30D11C0C7010E9429149C012B7F9C
:1043C000232B51F4B601C7010E94400AC7010E9485
:1043D00093128430910509F08C01C8012296E8E01F
:1043E0000C947C2BA0E0B0E0E8EFF1E20C945E2BA3
:1043F0007C01EB015B018AE1A80EB11C6701E4E4DA
:10440000CE0ED11CBE01C7010E94C1218C01892B97
:1044100089F4209779F08A8D882361F020E030E0DC
:1044200040E050E0B501F601808191810E942B09A6
:10443000892B41F3C801CDB7DEB7EAE00C947A2BA3
:104440000F931F93CF93DF93EC018B01FC01EC5B87
:10445000FF4F31832083BA010E942721009721F466
:10446000B801CE010E94F221DF91CF911F910F91EF
:104470000895A8E4B0E0EFE3F2E20C94622B2996F1
:104480009FAF8EAF29977B01BE016F5F7F4FCE013B
:10449000895B9F4F0E94140F8C01892BD9F42996B8
:1044A0006EAD7FAD2997CE0101960E9439158C0122
:1044B000892B81F421968FAD219787FD09C0E114E6
:1044C000F10441F0B701CE0101960E94400A02C0FA
:1044D00006E010E0C801C85BDF4FE6E00C947E2BDD
:1044E000603871058105910510F4CB0108956115BF
:1044F000710521E082079105C8F4453B5140B1F4B4
:1045000028E233E080E090E0F9014591549164178E
:10451000750731F001962E5F3F4F80389105A1F766
:10452000BC0160587F4FCB019927089580E090E04F
:1045300008958038910588F0653B714061F48F3FA4
:10454000910509F040F4880F991FFC01E85DFD4FCB
:1045500085919491089580E090E00895CF93DF9342
:104560006115710521E08207910508F05AC0EB0141
:10457000611570418105910518F02AE730E002C00D
:1045800026E331E0F901659174916115710509F433
:1045900045C0C617D70708F441C02C5F3F4FF9014B
:1045A000329745915491E52FFF275527DA01A60F41
:1045B000B71FCA17DB0750F5E930F10578F5EC5C59
:1045C000FF4F0C948D2ACE01861B970B880F991FE5
:1045D000F901E80FF91FC081D18120C09E01261B7F
:1045E000370B21703327C21BD30B18C0609716C03E
:1045F000A09714C0E09712C06A9710C028960EC00A
:10460000C055D1090BC0C056DC4108C0EF2B09F0E2
:10461000B9CF440F551F240F351FB4CFBE0180E022
:1046200090E0DF91CF910895811103C00E9417257A
:10463000089581E00895811103C00E9457240895D0
:1046400081E008950F931F93FB01811107C0BA0108
:10465000A901CF0198010E941A2502C084E090E0D0
:104660001F910F9108950F931F93FB01811107C0B4
:10467000BA01A901CF0198010E94622502C084E01D
:1046800090E01F910F910895962F811105C0BA01F6
:10469000892F0E94CC25089584E090E008950E941F
:1046A0008528089582E18CBD84B184B985B185B92E
:1046B00008958EBD0DB407FEFDCF8EB508956AE056
:1046C00070E00E94572A6093980F8FEF0E94592341
:1046D000282F8F3F21F08091980F8111F6CF81E034
:1046E00090E02F3F11F080E090E008952A9A8FEF3C
:1046F0000E9459230895A2E0B0E0E1E8F3E20C94AF
:10470000662B2A988FEF0E94592384EF91E00E9434
:104710005F23009739F489839A830E9476238981E5
:104720009A8102C081E090E02296E2E00C94822B14
:10473000FF920F931F93CF93DF93C82FD42F152F82
:10474000062FF72E87FF09C040E050E0BA0187E34B
:104750000E9498238230A0F5CF77CC3099F48C2F2B
:1047600080640E9459238F2D0E945923802F0E941C
:104770005923812F0E9459238D2F0E945923CC2326
:1047800069F008C00E9476230E947B23892B39F7A9
:104790008FEF16C0C83021F081E003C085E901C069
:1047A00087E80E945923CC3019F48FEF0E945923D7
:1047B000CAE08FEF0E94592387FF02C0C150C9F79A
:1047C000CDB7DEB7E5E00C947F2B0F931F93CF930B
:1047D000DF93EC018B0184E18093990F8FEF0E94AE
:1047E00059238F3F29F48091990F8111F7CF1EC073
:1047F0008E3FE1F48FEF8EBD0DB407FEFDCF9EB569
:1048000098838EBD0DB407FEFDCF22969EB5FE01A6
:10481000319790830250110971F78FEF0E9459234D
:104820008FEF0E94592381E090E002C080E090E089
:10483000DF91CF911F910F9108951F93CF93DF9335
:10484000EC01162F84EF91E00E945F23009759F14D
:10485000812F0E9459231D3F21F1CE019E5F2881A7
:104860002EBD0DB407FEFDCF2296FE0131972081AB
:104870002EBD0DB407FEFDCFC817D90781F78FEF06
:104880000E9459238FEF0E9459238FEF0E945923D2
:104890008F7131E020E0853009F030E0832F922FD6
:1048A00002C081E090E0DF91CF911F910895A4E0D4
:1048B000B0E0EDE5F4E20C94612B0E9452238AE013
:1048C0008093990F8091990F8111FCCF8091000105
:1048D00081FDA7C085B18B7D85B92B9A84B18C628F
:1048E00084B982E58CBD8CB582608CBD8CB58E7F21
:1048F0008CBD1AE08FEF0E9459231150D9F740E088
:1049000050E0BA0180E00E949823813009F075C020
:1049100084E68093990F4AEA51E060E070E088E015
:104920000E949823813009F040C08E010F5F1F4F15
:10493000780184E0D82ED00E8FEF0E945923F70122
:1049400081937F01DE12F8CF8B81813009F055C051
:104950008C818A3A09F051C08091990F811106C06B
:104960008091990F882309F448C00AC040E050E0C4
:1049700060E070E489EA0E9498238111EDCFF0CFC6
:1049800040E050E0BA018AE30E949823811135C0CB
:104990008FEF0E945923F80181938F01DE12F8CF27
:1049A000898186FD2CC014E02BC040E050E0BA01A4
:1049B00089EA0E949823823018F011E001E002C0D9
:1049C00012E009EA8091990F811105C08091990F39
:1049D000882399F009C040E050E0BA01802F0E947E
:1049E00098238111EFCFF2CF40E052E060E070E019
:1049F00080E10E949823882319F010E001C01CE098
:104A00001093970F0E947623112349F080910001A3
:104A10008E7F809300018CB58C7F8CBD02C00E947C
:104A20005223809100012496E7E00C947D2B809125
:104A300000010895EF92FF921F93CF93DF937C01C3
:104A4000E9012097A9F18091000180FD33C0809198
:104A5000970F83FD07C089E0440F551F661F771F1E
:104A60008A95D1F7C230D10510F411E101C012E1ED
:104A7000812F0E949823811113C060E072E0C7016A
:104A80000E94E523892B21F08EEFF81A2197A9F7D0
:104A9000123131F440E050E0BA018CE00E949823DA
:104AA0000E94762381E090E0CD2B31F480E004C0B9
:104AB00084E001C083E090E0DF91CF911F91FF90EF
:104AC000EF900895A0E0B0E0E8E6F5E20C94602BEA
:104AD0008C016A017B01E901209709F452C08091A1
:104AE000000180FD50C08091000182FD4EC0809188
:104AF000970F83FD07C099E0CC0CDD1CEE1CFF1C5A
:104B00009A95D1F7C130D10599F4B701A60188E192
:104B10000E94982381112DC06EEFC8010E941D24B0
:104B200031E020E0892B09F030E0C32FD22F21C0E3
:104B3000867031F0AE0160E070E087E90E94982352
:104B4000B701A60189E10E949823811112C06CEF80
:104B5000C8010E941D24892B19F01E5F2197B9F707
:104B60006DEF80E090E00E941D24892B11F4C1E0DC
:104B7000D0E00E94762381E090E0CD2B41F480E0EC
:104B800006C084E003C083E001C082E090E0CDB7BE
:104B9000DEB7E8E00C947C2BA2E1B0E0E2EDF5E2B8
:104BA0000C945F2B9091000190FDA7C28B01833381
:104BB00009F462C198F4833009F48CC028F4882386
:104BC00009F1813069F19BC2873009F492C18233C7
:104BD00009F44DC1843009F092C2F8C0863309F45B
:104BE00071C138F4843309F44CC1853309F454C1DC
:104BF00086C2883309F4E3C108F484C1893309F417
:104C000030C27DC20E947B2331E020E0892B09F075
:104C100030E0398B2A8B0E94762389899A8971C268
:104C200040E050E0BA0189E00E94982381115FC200
:104C300060E170E0CE0101960E94E523892B09F422
:104C400056C29981929596959695937088854985D7
:104C50002A859130E1F48F7390E0A0E0B0E0DC01B0
:104C6000992788270196A11DB11D50E0542F442794
:104C7000BA01620F711D860F971FA11DB11D7AE049
:104C8000880F991FAA1FBB1F7A95D1F798C042952C
:104C9000469546954370F4E08F9FC0011124840F20
:104CA000911D01964F81437050E0542F4427550FBA
:104CB000550F840F951FA0E0B0E03E81432F4F7049
:104CC0003B85331F3327331F340F2370220F230FED
:104CD000275027C0F090970F40E050E0BA01F2FE55
:104CE00028C08DE80E949823811101C28FEF0E9495
:104CF000592360E170E0CE0101960E94E523892BE3
:104D000009F4F5C1A0E3FA2E8FEF0E945923FA941B
:104D1000F110FACF2B8522952F7080E190E0A0E072
:104D2000B0E004C0880F991FAA1FBB1F2A95D2F7B5
:104D300046C089E00E9498238111D9C160E170E0EA
:104D4000CE0101960E94E523892B09F4D0C12B8561
:104D50008C85F1FE16C0881F8827881F90E0019679
:104D60002F73820F911D820F911D2E8522952695FE
:104D700026952370215002C0880F991F2A95E2F7CB
:104D80001CC0382F337082958695877090E0F8E0CC
:104D90003F9F800D911D112401962C7730E03595B1
:104DA0002795359527952F5F3F4F829FA001839FC1
:104DB000500D929F500D1124CA01A0E0B0E0F801FF
:104DC00080839183A283B38300E092C1B090970F58
:104DD0008B2D867011F481E093C1BE016F5F7F4F10
:104DE00083E30E94CC25892BB1F789818295869532
:104DF0008695837019F48B8586FFEDCFF80140818D
:104E0000518162817381C480D580E680F780B3FCD4
:104E10000EC039E0440F551F661F771F3A95D1F732
:104E2000E9E0CC0CDD1CEE1CFF1CEA95D1F780E21A
:104E30000E9498238111CFCFB701A60181E20E9481
:104E400098238111C8CF40E050E0BA0186E20E9469
:104E500098238111C0CF80E395E70E945F2331E062
:104E600020E0892B09F030E0832F922F4AC18091F6
:104E7000970FFB01808344C040E050E0BA0189E015
:104E800004C040E050E0BA018AE00E9498238111FA
:104E90002EC160E170E023C040E050E0BA018AE337
:104EA0000E949823811123C17801F4E0EF0EF11CD8
:104EB0008FEF0E945923F80181938F01EE15FF05B2
:104EC000B9F782CF40E050E0BA018DE80E94982304
:104ED00081110DC18FEF0E94592360E470E0C80179
:104EE0000E94E52301E010E0892B09F402C100E0F3
:104EF00000C10E94522380910001816080930001D3
:104F000080E0FEC0FB01438154816581768139E0F8
:104F1000440F551F661F771F3A95D1F7706880813F
:104F200090E0A0E0B0E02CE1880F991FAA1FBB1F02
:104F30002A95D1F7482B592B6A2B7B2B81819281A3
:104F400001979170A0E0B0E0482B592B6A2B7B2B86
:104F500080E30E9498238111CAC084E68093990F50
:104F60008FEF0E9459238F3F29F48091990F81116F
:104F7000F7CFBDC08E3F09F0BAC0F801E780F084DA
:104F8000C180D280CE0CDF1CEC14FD0439F08FEF11
:104F90000E945923F70181937F01F6CFF8018181A7
:104FA000928102E012E0081B190B0115110509F4AA
:104FB0000BCF8FEF0E94592301501109F6CFFB014F
:104FC000438154816581768139E0440F551F661F06
:104FD000771F3A95D1F77068808190E0A0E0B0E04B
:104FE0002CE1880F991FAA1FBB1F2A95D1F7482BC8
:104FF000592B6A2B7B2B8181928101979170A0E0C4
:10500000B0E0482B592B6A2B7B2B81E30E9498231D
:1050100081116DC08FEF0E9459238EEF0E9459239A
:10502000F801E780F084C180D280CE0CDF1CEC1444
:10503000FD0431F0F70181917F010E945923F7CFE0
:10504000F8018181928102E012E0081B190B8FEFB9
:105050000115110509F441C00E945923015011099D
:10506000F6CFFB01438154816581768189E0440F4D
:10507000551F661F771F8A95D1F77468808190E06D
:10508000A0E0B0E02CE1880F991FAA1FBB1F2A9552
:10509000D1F7482B592B6A2B7B2B828190E0A0E023
:1050A000B0E0482B592B6A2B7B2B81E30E9498237D
:1050B00081111DC08FEF0E9459238EEF0E9459234A
:1050C000F80181810E94592301E012E08FEF0E94D4
:1050D000592301501109D1F78FEF0E9459238F7185
:1050E00001E090E0853009F400E0192F02C001E0F2
:1050F00010E00E947623C80104C083E001C084E070
:1051000090E06296E9E00C947B2B8091990F8823C4
:1051100019F081508093990F8091980F882319F08E
:1051200081508093980F80910001897F80930001C6
:1051300008951F920F920FB60F9211242F933F9351
:105140004F935F938F939F93EF93FF932091C000B2
:105150003091C600287180919C0F90E001968F7766
:10516000992740919B0F50E04817590739F08093D9
:105170009C0FFC01E156F04F308301C022E02093E8
:105180009A0FFF91EF919F918F915F914F913F9176
:105190002F910F900FBE0F901F9018951F920F9296
:1051A0000FB60F9211248F939F93EF93FF939091DB
:1051B0009E0F80919D0F981779F080919D0F90E040
:1051C00001968F77992780939D0FFC01E15EFF4E3A
:1051D00080818093C60005C0E1ECF0E080818F7D86
:1051E0008083FF91EF919F918F910F900FBE0F9051
:1051F0001F901895F89410929E0F10929D0F109288
:105200009C0F10929B0F7894992324F422E0209312
:10521000C0009F779093C5008093C40088E9809375
:10522000C10086E08093C2000895F89490919C0F8D
:1052300080919B0F981304C0789480E091E00895CA
:10524000789480919B0F90E001968F7799278093B7
:105250009B0FFC01E156F04F208180919A0F90E066
:10526000982F8827820F911D0895F89490919C0F94
:1052700080919B0F981304C0789480E091E008958A
:105280007894E0919B0FF0E03196EF77FF27E1569D
:10529000F04F208180919A0F90E0982F8827820FFD
:1052A000911D089540919E0F50E04F5F5F4F4F77E3
:1052B000552720919D0F30E024173507D1F3FA01CF
:1052C000E15EFF4E808340939E0FE1ECF0E0808131
:1052D000806280830895CF93DF93EC0188818823D7
:1052E00031F021960E94522989918111FBCFDF91E3
:1052F000CF910895CF93DF93EC012196FC01849127
:10530000882339F00E945229FE018491219681114F
:10531000F9CFDF91CF910895F89480919C0F20915F
:105320009B0F789490E080589F4F821B91098F7754
:1053300099270895F89480919B0F80939C0F7894FF
:105340000895CF93DF931F92CDB7DEB7198289817D
:105350008F5F898389818F5F898389818F5F89834B
:1053600089818F5F898389818F5F89831BB88FEFE4
:105370008AB938E048E12FEF0AC02BB92BB91BB826
:1053800089818F5F89839150C1F7315011F0942F3B
:10539000F4CF0F90DF91CF910895CF93DF931F92B9
:1053A000CDB7DEB71BB88FEF8AB92FEF80E792E059
:1053B000215080409040E1F700C0000020E032E042
:1053C0009FEF19829BB989818981181634F08981F0
:1053D0008F5F898389811816D4F71BB8EFECF7E04B
:1053E0003197F1F700C000002150310951F70F90BB
:1053F000DF91CF910895CF93DF93CDB7DEB7C25041
:10540000D2400FB6F894DEBF0FBECDBFCE018F5F86
:105410009D4F0E944A048FEF8AB98BB983E390E0D5
:105420000E94FA2882E193E00E946B298FE0EEEA65
:10543000F1E0DE01119601900D928A95E1F78091DD
:10544000AB019091AC01A091AD01888B998BAA8B97
:1054500088E0E0EAF1E0DE01539601900D928A9532
:10546000E1F78091A8019091A901A091AA018B8FE9
:105470009C8FAD8F88E0E8E9F1E0DE015E96019057
:105480000D928A95E1F71EA21FA218A60E94A129DB
:105490004FE153E0BE016F5F7F4FCE018F5F9D4FA5
:1054A0000E94360482E293E00E946B29FFCFAA1B80
:1054B000BB1B51E107C0AA1FBB1FA617B70710F0FF
:1054C000A61BB70B881F991F5A95A9F78095909531
:1054D000BC01CD010895A1E21A2EAA1BBB1BFD0140
:1054E0000DC0AA1FBB1FEE1FFF1FA217B307E407C3
:1054F000F50720F0A21BB30BE40BF50B661F771F1B
:10550000881F991F1A9469F76095709580959095FA
:105510009B01AC01BD01CF010895EE0FFF1F059067
:10552000F491E02D09940E94F72BA59F900DB49F54
:10553000900DA49F800D911D11240895DF93CF93AA
:105540001F930F939A9DF02D219FF00D8B9DF00DD1
:105550008A9DE02DF10D039FF00D029FE00DF11DDE
:105560004E9DE00DF11D5E9DF00D4F9DF00D7F9362
:105570006F93BF92AF925F934F93D5010E94F72B29
:105580008B01AC01D7010E94F72BEB01E80FF91F4B
:10559000D6010E94EE2A2F913F91D6010E94F72B4F
:1055A000C60FD71FE81FF91FAF91BF910E94EE2AC7
:1055B0002F913F910E94F72BC60FD71FE81FF91FAD
:1055C000D6010E94F72BE60FF71F9801BE01CF010D
:1055D00011240F911F91CF91DF9108950E94F72B15
:1055E000460F571FC81FD91F08F4319608956894B5
:1055F00001C0E8948F929F92CF93DF930E94052B76
:10560000DF91CF919F908F90089588249924F40181
:10561000E401B0E49F93AA279A158B049C04ED053E
:10562000FE05CF05D007A10798F4AD2FDC2FCF2FB3
:10563000FE2FE92D982C892E982F872F762F652FF6
:10564000542F432F322F2227B85031F7BF9127C054
:105650001B2EBF91BB27220F331F441F551F661FF0
:10566000771F881F991F881C991CEE1FFF1FCC1FD6
:10567000DD1FAA1FBB1F8A149B04EC05FD05CE0588
:10568000DF05A007B10748F08A189B08EC09FD095F
:10569000CE09DF09A00BB10B21601A94E1F62EF4BC
:1056A0009401AF01BE01CD01000C08952F923F92ED
:1056B0004F925F926F927F928F929F92AF92BF9222
:1056C000CF92DF92EF92FF920F931F93CF93DF93CE
:1056D000CDB7DEB7CA1BDB0B0FB6F894DEBF0FBE2B
:1056E000CDBF09942A88398848885F846E847D8478
:1056F0008C849B84AA84B984C884DF80EE80FD807A
:105700000C811B81AA81B981CE0FD11D0FB6F894EF
:10571000DEBF0FBECDBFED0108950F93083090F0AE
:10572000982F872F762F652F542F432F322F222724
:105730000850F4CF220F331F441F551F661F771FD9
:10574000881F991F0A95B2F70F91089597FB10F8DB
:10575000169400080F93083098F00850232F342F28
:10576000452F562F672F782F892F902DF4CF059432
:105770009795879577956795579547953795279589
:105780000A95AAF70F9108952A0D3B1D4C1D5D1D2A
:105790006E1D7F1D801F911F08950024A7FD00949A
:1057A0002A0F301D401D501D601D701D801D901D55
:1057B00008952A193B094C095D096E097F09800B80
:1057C000910B08952A153B054C055D056E057F0577
:1057D0008007910708950024A7FD00942A1730053B
:1057E0004005500560057005800590050895A29F4D
:1057F000B001B39FC001A39F700D811D1124911DA5
:10580000B29F700D811D1124911D0895CF93DF93D8
:105810008230910510F482E090E0E091A110F091C7
:10582000A21020E030E0C0E0D0E0309711F14081DC
:10583000518148175907C0F04817590761F4828110
:105840009381209719F09B838A832BC09093A21099
:105850008093A11026C02115310519F04217530776
:1058600018F49A01BE01DF01EF010280F381E02DFF
:10587000DCCF2115310509F1281B390B2430310506
:1058800090F412968D919C9113976115710521F0FA
:10589000FB019383828304C09093A2108093A11094
:1058A000FD01329644C0FD01E20FF31F81939193F5
:1058B000225031092D933C933AC020919F10309192
:1058C000A010232B41F42091030130910401309367
:1058D000A01020939F102091010130910201211509
:1058E000310541F42DB73EB74091050150910601B5
:1058F000241B350BE0919F10F091A010E217F307E5
:10590000A0F42E1B3F0B2817390778F0AC014E5F2F
:105910005F4F2417350748F04E0F5F1F5093A010BC
:1059200040939F108193919302C0E0E0F0E0CF019B
:10593000DF91CF9108950F931F93CF93DF9300973B
:1059400009F48CC0FC013297138212820091A110DD
:105950001091A2100115110581F420813181820F6F
:10596000931F20919F103091A0102817390779F5C7
:10597000F093A010E0939F1071C0D80140E050E078
:10598000AE17BF0750F412962D913C911397AD01BD
:105990002115310509F1D901F3CF9D01DA013383D6
:1059A000228360817181860F971F8217930769F4A4
:1059B000EC0128813981260F371F2E5F3F4F31833D
:1059C00020838A819B8193838283452B29F4F093E2
:1059D000A210E093A11042C01396FC93EE9312978D
:1059E000ED01499159919E01240F351FE217F307EC
:1059F00071F480819181840F951F029611969C937A
:105A00008E938281938113969C938E931297E0E0FC
:105A1000F0E0D80112968D919C911397009719F0A0
:105A2000F8018C01F6CF8D919C9198012E5F3F4F2C
:105A3000820F931F20919F103091A01028173907D3
:105A400069F4309729F41092A2101092A11002C0AC
:105A5000138212821093A01000939F10DF91CF91B8
:105A60001F910F9108958F929F92AF92BF92CF9204
:105A7000DF92EF92FF92CF93DF93EC0168817981FF
:105A80008A819B81611571058105910521F464E28C
:105A900079ED8BE597E02DE133EF41E050E00E9496
:105AA000E62D49015A019B01AC01A7EAB1E40E942D
:105AB000932A6B017C01ACEEB4EFA50194010E9426
:105AC000082EDC01CB018C0D9D1DAE1DBF1DB7FF47
:105AD00003C00197A109B04888839983AA83BB8337
