:100000000C9434000C9451000C9451000C94510049
:100010000C9451000C9451000C9451000C9451001C
:100020000C9451000C9451000C9451000C9451000C
:100030000C9451000C9451000C9451000C945100FC
:100040000C9451000C9451000C942E020C946302F9
:100050000C9451000C9451000C9451000C945100DC
:100060000C9451000C94510011241FBECFEFD8E026
:10007000DEBFCDBF11E0A0E0B1E0EEE1F8E002C0EC
:1000800005900D92A83BB107D9F722E0A8EBB1E0AB
:1000900001C01D92AD3BB207E1F70E9490030C94A2
:1000A0000D040C9400000F931F93CF93DF938B01EB
:1000B000442311F1E9012F96F90187859089892B55
:1000C000F1F189E00E94E70288810E94E7028AE05C
:1000D0000E94E702888199818017910799F18A81AE
:1000E000880F990B0396C80FD91F88819981892B96
:1000F00041F780E090E02EC0E9012F96F901878555
:100100009089892B11F189E00E94E70288810E9481
:10011000E7028AE00E94E7028881998180179107AF
:10012000B9F08A81082E000C990B0396C80FD91FCD
:1001300088819981892B39F780E090E00BC080E0BD
:1001400090E008C08C2F9D2F05C080E090E002C099
:100150008C2F9D2FDF91CF911F910F9108952F929A
:100160003F924F925F926F927F928F929F92AF9247
:10017000BF92CF92DF92EF92FF920F931F93CF9394
:10018000DF9300D000D01F92CDB7DEB75B01742E95
:10019000FB01828118160CF07EC0812C612C7FEF50
:1001A000512E4D2C322E2E2C0C83CD826894EE24B1
:1001B000E3F8C12C6894DD24D7F80FEF1FEF772008
:1001C00051F0E82DEE0FFF0BEA0DFB1D83819481AA
:1001D0009A8389835EC0F501E80DF11D87FCFA95CD
:1001E0008381082E000C990B9A83898352C0613059
:1001F00039F0623041F0611108C0FC809D8005C07B
:10020000F52C942C02C0F32C922C2E2D3C2D8D2DF0
:10021000AF2D0F2C000CBB0BE92D092C000CFF0B94
:1002200090E0AC014A235B23452B41F0AC014E2307
:100230005F23452B89F01A8309830EC0AC014E233E
:100240005F23452B39F049815A81409550955A8357
:10025000498302C01A8219827BB949814BB94B810B
:10026000423034F44B814F5F4B834B814230D4F3A7
:100270001BB8959587952150310991F66F5F6330D2
:1002800009F0B5CF8394F501828188160CF497CFDD
:1002900002C0662DACCF80E00F900F900F900F90B2
:1002A0000F90DF91CF911F910F91FF90EF90DF9012
:1002B000CF90BF90AF909F908F907F906F905F9006
:1002C0004F903F902F9008952F923F925F926F92A0
:1002D0007F928F929F92AF92BF92CF92DF92EF92D6
:1002E000FF920F931F93CF93DF93CDB7DEB728977D
:1002F0000FB6F894DEBF0FBECDBF4C011B013A0113
:100300000B831C832D83CE82DF82E8865524539491
:10031000FB01808589300CF4512C85E291E00E942C
:1003200000038FEF8AB91BB8552019F08FE787B902
:1003300018B8F3018081882309F462C020E030E01E
:10034000F12C8823BCF4D301A20FB31F11968C911A
:1003500088234CF480819181A2818A839B83AC8322
:10036000F3E0FF0E0DC0808191819C838B83F39419
:10037000F39406C0082E000C990B9A838983F3949A
:10038000B980AA808B2D0E94E7028AE00E94E702D2
:100390008EE291E00E9400039101452D6B2D7A2D94
:1003A000C4010E9453005C01892B31F48BE391E07E
:1003B0000E94000381E024C080E591E00E940003D8
:1003C000F50180810E94E7028AE00E94E70287E54A
:1003D00091E00E940003CE80DF80E8840B811C81C5
:1003E0002D81452DB501C4010E94AF002F2D0F2C8A
:1003F000000C330BF301E20FF31F80818111A1CFB9
:1004000028960FB6F894DEBF0FBECDBFDF91CF9117
:100410001F910F91FF90EF90DF90CF90BF90AF9022
:100420009F908F907F906F905F903F902F90089556
:10043000CF92DF92EF920F931F93FB01C484D58478
:10044000E6840185128523850E9464011F910F9126
:10045000EF90DF90CF900895089508951F920F9226
:100460000FB60F9211242F933F934F935F938F9367
:100470009F93EF93FF932091C0003091C6002871A5
:100480008091BA0190E001968F7799274091B90148
:1004900050E04817590739F08093BA01FC01E35442
:1004A000FE4F308301C022E02093B801FF91EF910D
:1004B0009F918F915F914F913F912F910F900FBE20
:1004C0000F901F9018951F920F920FB60F92112444
:1004D0008F939F93EF93FF939091BC018091BB0109
:1004E000981779F08091BB0190E001968F7799275A
:1004F0008093BB01FC01E35CFD4F80818093C600CB
:1005000005C0E1ECF0E080818F7D8083FF91EF9169
:100510009F918F910F900FBE0F901F901895F89498
:100520001092BC011092BB011092BA011092B90155
:100530007894992324F422E02093C0009F7790932D
:10054000C5008093C40088E98093C10086E0809351
:10055000C2000895F8949091BA018091B90198135E
:1005600004C0789480E091E0089578948091B90176
:1005700090E001968F7799278093B901FC01E354AD
:10058000FE4F20818091B80190E0982F8827820F3C
:10059000911D0895F8949091BA018091B901981332
:1005A00004C0789480E091E008957894E091B901D6
:1005B000F0E03196EF77FF27E354FE4F20818091E2
:1005C000B80190E0982F8827820F911D08954091DF
:1005D000BC0150E04F5F5F4F4F7755272091BB0123
:1005E00030E024173507D1F3FA01E35CFD4F808337
:1005F0004093BC01E1ECF0E080818062808308954B
:10060000CF93DF93EC018881882331F021960E94FB
:10061000E70289918111FBCFDF91CF910895CF93AC
:10062000DF93EC012196FC018491882339F00E942C
:10063000E702FE01849121968111F9CFDF91CF91DC
:100640000895F8948091BA012091B901789490E0CE
:1006500080589F4F821B91098F7799270895F894AE
:100660008091B9018093BA0178940895CF93DF9374
:100670001F92CDB7DEB7198289818F5F8983898107
:100680008F5F898389818F5F898389818F5F898368
:1006900089818F5F89831BB88FEF8AB938E048E181
:1006A0002FEF0AC02BB92BB91BB889818F5F8983C3
:1006B0009150C1F7315011F0942FF4CF0F90DF918A
:1006C000CF910895CF93DF931F92CDB7DEB71BB8BC
:1006D0008FEF8AB92FEF80E792E021508040904061
:1006E000E1F700C0000020E032E09FEF19829BB9E3
:1006F00089818981181634F089818F5F8983898186
:100700001816D4F71BB8EFECF7E03197F1F700C0FB
:1007100000002150310951F70F90DF91CF910895DA
:10072000CF93DF93CDB7DEB7C250D2400FB6F89467
:10073000DEBF0FBECDBFCE018F5F9D4F0E942C024A
:100740008FEF8AB98BB983E390E00E948F0284E631
:1007500091E00E9400038FE0E6E1F1E0DE011196F6
:1007600001900D928A95E1F7809113019091140107
:10077000A0911501888B998BAA8B88E0E8E0F1E0C5
:10078000DE01539601900D928A95E1F78091100158
:1007900090911101A09112018B8F9C8FAD8F88E0F9
:1007A000E0E0F1E0DE015E9601900D928A95E1F7BE
:1007B0001EA21FA218A681E791E00E94000382E812
:1007C00091E00E940003CE0101960E9400038AE09E
:1007D0000E94E7028EE891E00E94000388890E944F
:1007E000E7028AE00E94E7028BE991E00E940003A1
:1007F0008B8D0E94E7028AE00E94E70249EA51E0FD
:10080000BE016F5F7F4FCE018F5F9D4F0E94180228
:0E0810008CEA91E00E940003FFCFF894FFCF26
:10081E0081C366243C3CFFFF7E8181818181817E84
:10082E004B00084F000853616D706C65000008B4F2
:10083E0064B43C783C53686F77696E673A005365D1
:10084E0061726368696E672E2E0A00636861725F5B
:10085E0064657363206E6F7420666F756E640A0034
:10086E00466F756E64200053747265616D696E67B4
:10087E002E2E0A00426567696E6E696E672E2E0A0D
:10088E000054657374696E6720666F6E74202E2E29
:10089E000A00466F6E74206E616D653A09004669F6
:1008AE0072737420636861723A09005365636F6EE8
:1008BE006420636861723A09004F4B0046696E69A5
:0808CE00736865642E0A000046
:00000001FF
