:100000000C9414020C9431020C9431020C943102C1
:100010000C9431020C9431020C9431020C94310294
:100020000C9431020C9431020C9431020C94310284
:100030000C9431020C9431020C9431020C94310274
:100040000C9431020C9431020C94DA270C940F2892
:100050000C9431020C9431020C9431020C94310254
:100060000C9431020C94310224222F22372239229F
:100070003B223D223F22412244227D1D0100632C70
:10008000001E9601A01E5A01001F0806101F06063A
:10009000201F0806301F0806401F0606511F0700D4
:1000A000591F521F5B1F541F5D1F561F5F1F601F8C
:1000B0000806701F0E00BA1FBB1FC81FC91FCA1F2A
:1000C000CB1FDA1FDB1FF81FF91FEA1FEB1FFA1FF8
:1000D000FB1F801F0806901F0806A01F0806B01F00
:1000E0000400B81FB91FB21FBC1FCC1F0100C31FE3
:1000F000D01F0206E01F0206E51F0100EC1FF21FE1
:100100000100FC1F4E2101003221702110028421C8
:1001100001008321D0241A05302C2F04602C020109
:10012000672C0601752C0201802C6401002D260825
:1001300041FF1A03000061001A03E0001703F800F2
:100140000703FF00010078010001300132010601C0
:10015000390110014A012E017901060180014D008B
:1001600043028101820182018401840186018701A9
:10017000870189018A018B018B018D018E018F011D
:1001800090019101910193019401F601960197016B
:10019000980198013D029B019C019D0120029F0155
:1001A000A001A001A201A201A401A401A601A7012E
:1001B000A701A901AA01AB01AC01AC01AE01AF01DD
:1001C000AF01B101B201B301B301B501B501B7018E
:1001D000B801B801BA01BB01BC01BC01BE01F70105
:1001E000C001C101C201C301C401C501C401C701ED
:1001F000C801C701CA01CB01CA01CD011001DD014F
:1002000001008E01DE011201F3010300F101F4018E
:10021000F401F8012801220212013A020900652CBA
:100220003B023B023D02662C3F024002410241027A
:1002300046020A01530240008101860155028901EC
:100240008A0158028F015A0290015C025D025E022F
:100250005F02930161026202940164026502660218
:100260006702970196016A02622C6C026D026E02AF
:100270009C01700271029D01730274029F0176025B
:100280007702780279027A027B027C02642C7E0279
:100290007F02A60181028202A901840285028602F0
:1002A0008702AE014402B101B20145028D028E0205
:1002B0008F0290029102B7017B030300FD03FE034E
:1002C000FF03AC0304008603880389038A03B10398
:1002D0001103C2030200A303A303C4030803CC0356
:1002E00003008C038E038F03D8031801F2030A0066
:1002F000F903F303F403F503F603F703F703F90334
:10030000FA03FA03300420035004100760042201AA
:100310008A043601C1040E01CF040100C004D004D8
:100320004401610526040000C700FC00E900E2006A
:10033000E400E000E500E700EA00EB00E800EF0081
:10034000EE00EC00C400C500C900E600C600F400E1
:10035000F600F200FB00F900FF00D600DC00A2006E
:10036000A300A500A7209201E100ED00F300FA0030
:10037000F100D100AA00BA00BF001023AC00BD00FC
:10038000BC00A100AB00BB0091259225932502255E
:100390002425612562255625552563255125572598
:1003A0005D255C255B251025142534252C251C2571
:1003B00000253C255E255F255A255425692566259F
:1003C000602550256C2567256825642565255925F8
:1003D0005825522553256B256A2518250C25882577
:1003E00084258C2590258025B103DF009303C0036D
:1003F000A303C303B500C403A6039803A903B4036E
:100400001E22C603B50329226122B100652264229F
:1004100020232123F7004822B0001922B7001A2216
:100420007F20B200A025A00011241FBECFEFD8E08E
:10043000DEBFCDBF13E0A0E0B1E0E4E1FAE502C029
:1004400005900D92A432B107D9F728E0A4E2B3E0F9
:1004500001C01D92A739B207E1F70E94E2280C946F
:10046000082D0C940000442301F1F9013F96D901B5
:100470001F968D919C9150970097C1F18617970711
:1004800039F403C08617970719F48E2F9F2F08950C
:100490008281880F990B0396E80FF91F8081918163
:1004A000009781F780E090E00895F9013F96D90127
:1004B0001F968D919C9150970097D9F068177907F6
:1004C00039F403C06817790719F48E2F9F2F089508
:1004D0008281082E000C990B0396E80FF91F80818A
:1004E0009181009779F780E090E0089580E090E0B6
:1004F000089580E090E00895CF920F93CF93DF931B
:1005000000D01F92CDB7DEB7FB01828118160CF028
:1005100059C0442329F0838194819A83898306C03A
:100520008381082E000C990B9A838983202F3C2D00
:10053000EFE76FEF7FEF5FEF2CC0332319F01A82E4
:1005400019820BC089819A81809590959A838983BD
:1005500004C0311102C07A8369835BB94423E1F09E
:10056000E8B9898189B98A8186B98B818630D4F4CA
:100570008B818F5F8B838B818630D4F389819A81C5
:10058000809590959A83898389B9442311F08A8153
:1005900086B92111D2CFDDCF898189B98B8186308F
:1005A0003CF308C089819A81809590959A838983CC
:1005B00089B9EDCF89819A81809590959A838983B5
:1005C00089B9E7CF80E00F900F900F90DF91CF9126
:1005D0000F91CF9008955F926F927F928F929F922A
:1005E000AF92BF92CF92DF92EF92FF920F931F9341
:1005F000CF93DF93CDB7DEB728970FB6F894DEBF61
:100600000FBECDBF5C0155245394FB01808589301A
:100610000CF4512C8FEF8AB91BB8552019F08FE7D5
:1006200087B918B8FA018081882309F44AC0CE82BC
:10063000DF82E8860B831C832D834A013B0120E087
:1006400030E0F12C8823BCF4D401A20FB31F119623
:100650008C9188234CF480819181A2818A839B8331
:10066000AC83F3E0FF0E0DC0808191819C838B836E
:10067000F394F39406C0082E000C990B9A83898397
:10068000F39469817A819301452DC5010E9433025B
:100690000097B1F0CE80DF80E8840B811C812D8132
:1006A000452DBC01C5010E947C022F2D0F2C000C92
:1006B000330BF401E20FF31F80818111C3CF01C01E
:1006C00081E028960FB6F894DEBF0FBECDBFDF9154
:1006D000CF911F910F91FF90EF90DF90CF90BF903F
:1006E000AF909F908F907F906F905F900895CF9282
:1006F000DF92EF920F931F93FB01C484D584E684AD
:100700000185128523850E94EB021F910F91EF90C6
:10071000DF90CF90089508950895CF92DF92EF92E1
:10072000FF920F931F93CF93DF93EC016B017A013C
:1007300089010E948B03FE01E05EFE4FD182C082E0
:100740003296F182E082CC5DDE4F19830883DF911F
:10075000CF911F910F91FF90EF90DF90CF90089570
:1007600041E06CEF72E08A5D9E4F0E94771921E0B4
:10077000892B09F020E0822F0895AF92BF92CF928B
:10078000DF92EF92FF920F931F93CF93DF93EB01D2
:100790005A016901BA01CE010E94C72C28812F326B
:1007A00051F4892B21F06C2F7D2F80E04DC060E04B
:1007B00070E080E849C0FE0101900020E9F7319720
:1007C0009F012C1B3D0BF60101900020E9F73197AA
:1007D000EC19FD09E20FEF5F892BA1F0EE1624F46E
:1007E00060E070E081E830C0B601802F912F0E9458
:1007F0009E2CBE01802F912F0E94932C602F712F71
:1008000080E022C0D5010D900020E9F71197AA19C8
:10081000BB090E2C000CFF08AE0FB11DE7FDBA9509
:10082000EA16FB0620F460E070E081E80DC0B60136
:10083000802F912F0E949E2CBE01802F912F0E940D
:10084000932C602F712F80E0DF91CF911F910F913A
:10085000FF90EF90DF90CF90BF90AF900895CF9230
:10086000DF92EF920F931F93CF93DF93CDB7DEB755
:10087000CA5BD1090FB6F894DEBF0FBECDBF6C01C5
:10088000FC01EE5DFE4F208131816894EE24E7F893
:100890008E010F5F1F4F4DEB51E00E94BD03811190
:1008A0003CC040E0962F692FCE018F579F4F0E948A
:1008B000B319892BA1F580E090E00E94012B8C01F7
:1008C000009721F1C557DF4F48815981CB58D0405F
:1008D0009E0127543F4FBC01CE018F579F4F0E946E
:1008E000741A892B21F0C8010E94962B0FC0CE01EB
:1008F0008F579F4F0E94D71BF601848195810E94DC
:10090000962BF6011583048381E00AC0CE018F5730
:100910009F4F0E94D71B80E003C080E001C080E0B1
:10092000C654DF4F0FB6F894DEBF0FBECDBFDF91C8
:10093000CF911F910F91EF90DF90CF900895EF929C
:10094000FF921F93CF93DF937B01672B31F40F2E20
:10095000FCEFEF2EF2E0FF2EF02DEC01269610E0DA
:1009600048E050E0BE01C7010E94B92C892B31F04C
:100970001F5F2E961431A1F782E801C0812FDF910D
:10098000CF911F91FF90EF90089580E008952F92EE
:100990003F924F925F926F927F928F929F92AF920F
:1009A000BF92CF92DF92EF92FF920F931F93CF935C
:1009B000DF93CDB7DEB7C052D2400FB6F894DEBF9A
:1009C0000FBECDBF4C018B01DE01A75EBD4F8AE299
:1009D0008D9385E0E2ECF1E001900D928A95E1F7CC
:1009E00040E850E0CE01855E9E4F0E94A52C482E27
:1009F000EBE1F1E0EC0FFD1FE80FF11D87FDFA952B
:100A00008FE280839E01275E3D4FA801BE016F5F8C
:100A10007F4FCE0185569E4F0E946121892B09F0A0
:100A2000C2C08B8D882309F4C0C0042C000C55086B
:100A30008FEF481A580AEBE1F1E0EC0FFD1F4E0E64
:100A40005F1E3E01F1EE6F1AFDEF7F0A262C372C58
:100A5000BE01655E7F4FC2010E949E2C40E0BE0138
:100A6000655E7E4FCE018F519E4F0E94B319892B38
:100A700009F08DC0C551DE4F2881CB5ED140C451F5
:100A8000DE4F3881CC5ED140C351DE4F4881CD5E10
:100A9000D140C251DE4F5881CE5ED140C151DE4FB0
:100AA0006881CF5ED140C051DE4F7881C05FD140B8
:100AB0000F2EFEE0AF2EF02DB12CC12CD12CE12C4D
:100AC000F12C00E010E0CF50DE4F8881C15FD140B3
:100AD000CE50DE4F9881C25FD1400E94F429F22EA1
:100AE000222309F464C060E070E0C4010E949F0406
:100AF000082F880F110B02388FEF180709F447C031
:100B0000C801880F991FBC01660F771F660F771FFA
:100B1000660F771F681B790B6A5F7F4F680D791D21
:100B2000222D332D4EE050E0CE018F519E4F0E947A
:100B3000741A892B29F4F301808191810E9781F039
:100B4000000F111FC801880F991F880F991F880F68
:100B5000991F801B910BF401E80FF91F168217C033
:100B6000FA94F110C0CFCE018F519E4F0E94D71B37
:100B7000BE016F5F7F4FCE0185569E4F0E9433218D
:100B8000892B29F48B8D811163CF81E020C0CE01A8
:100B90008F519E4F0E94D71BCE0185569E4F0E94BB
:100BA000ED2080E014C081E012C081E010C0CE01D1
:100BB0008F519E4F0E94D71BBE016F5F7F4FCE01AA
:100BC00085569E4F0E943321892BE1F2E0CFC05E13
:100BD000DD4F0FB6F894DEBF0FBECDBFDF91CF91D2
:100BE0001F910F91FF90EF90DF90CF90BF90AF904B
:100BF0009F908F907F906F905F904F903F902F903D
:100C000008958F929F92AF92BF92CF92DF92EF9210
:100C1000FF920F931F93CF93DF93CDB7DEB7C75CDF
:100C2000D1090FB6F894DEBF0FBECDBF4C016B01EA
:100C3000FC01E05EFE4F208131810F2EFDE0EF2EA2
:100C4000F02D8E0107541F4F47EC51E00E94BD0369
:100C50008111D2C040E0B601CE018F579F4F0E9454
:100C6000B319892B09F0CAC00E947A2C392F282F7A
:100C7000990F990BC557DF4FA880CB58D040C45768
:100C8000DF4FB880CC58D040C357DF4FC880CD5815
:100C9000D040C257DF4FD880CE58D040C157DF4F29
:100CA000E880CF58D040C057DF4FF880C059D040BF
:100CB000CF56DF4F0881C159D040CE56DF4F188143
:100CC000C259D040492F592F692F792F892F0E945F
:100CD0009929A0EC0E94C82AAA24AA940F2EFFE703
:100CE000BF2EF02DC12CD12CE12CF12C00E010E016
:100CF0000E94F429022F132F242F352F462F572F10
:100D0000682F792FCE018F579F4F0E94F01D892B9E
:100D100039F0CE018F579F4F0E94D71B80E083C0D0
:100D20009E012A533F4F40E850E0BE016F5F7F4F66
:100D3000CE018F579F4F0E94741A892B39F0CE0134
:100D40008F579F4F0E94D71B80E06DC0CE018F57F9
:100D50009F4F0E94D71BCA53DF4F28813981C65C41
:100D6000D0402034310508F44BC089818A3009F421
:100D70004FC02115310509F445C0D12C07C08D2D78
:100D80000D2C000C990B28173907F1F1D3940D2D78
:100D90000D2C000C110BE1E0F0E0EC0FFD1FE00F5B
:100DA000F11F80818A3059F736C00E94962B8D2D15
:100DB0000D2C000C990B9C01201B310B8901C901E2
:100DC00001960E94012B7C01F401E25EFE4F9183AB
:100DD00080830097D9F0CD2CDD0CDD08BE016C0DB1
:100DE0007D1D6E5F7F4FA8010E948A2CF701EC0DDC
:100DF000FD1D108281E017C080E015C080E013C0A7
:100E000080E011C080E00FC080E00DC080E00BC02A
:100E100000E010E0D12CF401E25EFE4F8081918170
:100E2000009719F6C4CFC953DF4F0FB6F894DEBF51
:100E30000FBECDBFDF91CF911F910F91FF90EF902B
:100E4000DF90CF90BF90AF909F908F900895AB01AF
:100E5000FC01648175810E94770391E0811190E02B
:100E6000892F0895CF930E940106C82F811104C0D5
:100E70008CEC91E00E94AC288C2FCF910895CF93F9
:100E8000DF93EC0166EE71E00E942F04811106C031
:100E90008FEE91E00E94AC2880E03EC00C80DD81A6
:100EA000C02D48E050E066EE71E0CE010E94B92C02
:100EB000882331F081E092E00E94AC2880E02CC0D1
:100EC0008F8598898B34910531F089E192E00E94F9
:100ED000AC2880E021C08989282F082E000C330B14
:100EE00089301CF042E050E002C041E050E0429FF7
:100EF000C001439F900D529F900D1124C80FD91F20
:100F00008A899B898F34910531F088E392E00E94B1
:100F1000AC2880E001C081E0DF91CF910895CF93AC
:100F2000DF93EC01FC01EC5DFE4F608171810E945A
:100F3000C704811104C087E592E00E94AC286EE6E8
:100F400072E0CE010E949F04823831F487E792E07C
:100F50000E94AC2880E00EC060E972E0CE010E94E1
:100F60009F04823831F486E992E00E94AC2880E048
:100F700001C081E0DF91CF910895FC016381862F4C
:100F800090E0A0E0B0E0BA2FA92F982F8827228107
:100F9000822BBA2FA92F982F88272181822BBA2F35
:100FA000A92F982F88272081BC01CD01622B08959D
:100FB0000F93FC01278130E040E050E060E070E0FA
:100FC00080E090E008E00E94882AA6812A2B0E94F7
:100FD000882AA5812A2B0E94882AA4812A2B0E9474
:100FE000882AA3812A2B0E94882AA2812A2B0E9468
:100FF000882AA1812A2B0E94882AE0812E2B0F911A
:101000000895DC01FB012D91819130E0B901681B4D
:101010007109CB014150510911F00097A1F30895D6
:101020000F931F93FC019A01AB0122503109410932
:101030005109878D90A1A1A1B2A10297A109B1097F
:10104000281739074A075B0768F4A185B2850E9413
:101050008E2903A914A925A936A9600F711F821F23
:10106000931F03C060E070E0CB011F910F910895C2
:101070000F931F93DC01ED91FC9111979F012F5F5E
:101080003F4F2D933C93608170E080E090E08B01B6
:101090009C0101561109210931090A311105210567
:1010A000310528F4605271098109910912C0603834
:1010B00071058105910568F0DC01CB01805891092B
:1010C000A109B109FC01E55FFE4F608170E080E09D
:1010D00090E01F910F9108954F925F926F927F92CF
:1010E000AF92BF92CF92DF92EF92FF920F931F9336
:1010F000CF93DF9300D000D000D0CDB7DEB78C0106
:101100007E836D8359017A01E114F10471F0CE01FF
:1011100005960E94380821E0E21AF108672B682B37
:10112000692B91F780E090E060C0F8018081811127
:1011300052C0A114B10409F44EC081E090E055C042
:101140008A32D1F0CE0103960E9438082B013C016F
:10115000CE0101960E9438086B017C0146165706A5
:101160006806790659F545284628472831F3EB816A
:10117000FC8180818F3321F720E030E040E050E0B7
:10118000EB81FC81CF0101969C838B8360816F335F
:1011900049F54F5F5F4F61816F3391F36A3281F39D
:1011A00069817A810E946C08892B39F6E981FA817C
:1011B000C0800C2C000CDD08EE08FF08CE0105965F
:1011C0000E943808A114B10409F4ACCFCD28CE2870
:1011D000CF2809F4A7CF1C830B838D819E819A832E
:1011E0008983C5CF21E030E0D6CF26960FB6F8949C
:1011F000DEBF0FBECDBFDF91CF911F910F91FF904A
:10120000EF90DF90CF90BF90AF907F906F905F9006
:101210004F900895DC014D915C9111974115510556
:10122000F9F0FA01BF018191803218F08A33D1F7C9
:1012300004C08091840790E00895FA0121916E170F
:101240007F0771F480ED820F823050F4022E000C83
:10125000330BC901C0974E5F5F4F4D935C93089568
:101260008FEF9FEF08950F931F93CF93DF93EC01C0
:101270008B01892BF9F0E881F9813097D9F08081D1
:101280008823C1F02A813B818581968128173907FF
:1012900089F481810E94552280FD0CC0288139810A
:1012A00080E090E0F80131832083DF91CF911F919E
:1012B0000F91089589E090E020E030E0F3CF0F93A4
:1012C0001F93CF93DF93EA01890145EB51E00E9420
:1012D000B1218F3F910541F038F00230110558F0EF
:1012E0009883898382E008C0009729F0012B19F0C8
:1012F000888381E001C080E0DF91CF911F910F9141
:101300000895A0E0B0E0E7E8F9E00C94512ADC0190
:101310008D909C901197FB01128E9E960D911D91C0
:101320002D913C91D197011511052105310509F445
:101330009FC1EB018C01D4018C91843009F09AC0DB
:101340001D96ED90FC901E97A12CB12CB0E4CB2EF5
:10135000D12C00E010E080E090E088248A94912C69
:10136000D70193962C9130E0A216B30608F044C042
:10137000B0E6CB16B2E0DB0608F043C096012F7151
:101380003327232B19F4E2E0CE0ED11CF701EC0D2C
:10139000FD1D4180512C542C44242081422AF2E02E
:1013A000CF0ED11C2FEFA21AB20A009729F4920196
:1013B000385D21153840F0F0A801465E5F4F4C0FB4
:1013C0005D1F612C712CA0E0B0E0DC01992788271B
:1013D000BC01CD0164297529862997299401201B18
:1013E000310B0E945F0990E0009759F0080F191F18
:1013F000412C512CC201B4CF892B19F401151105D0
:1014000021F48FE38A8F01E010E0FE01E00FF11F6D
:10141000128E1D86F70184818C8784FD05C0C7016B
:10142000C8960E94D80708C020E030E040E050E0B5
:1014300060E070E080E090E0288339834A835B833A
:101440006C837D838E839F83D7011D968C911D971E
:1014500090E0982F88271C962C911C97822B9B87B5
:101460008A871F968C911F9790E0982F88271E9649
:101470002C91FBC0F801E05CFF4F80819181A2813B
:10148000B3818F3F9F4FAF4FBF4F09F44AC0A12C8C
:10149000B12CC12CD12CE12CF12C66246A94712C36
:1014A000D4011B96ED91FC911C97EA0DFB1D8081E8
:1014B0009181009771F1C114D10429F49C01385D28
:1014C00021153840F8F0A701465E5F4F4C0F5D1FB5
:1014D000A0E0B0E01601412C512C2101332422243C
:1014E000BC01CD01622973298429952993012E1904
:1014F0003F090E945F0990E0009749F0E80EF91E4D
:1015000080E090E022E0A20EB11C6C01C9CFE12C7A
:10151000F12CCD2811F0E12CF12CFE01EE0DFF1D78
:10152000128E20E030E080E090E06EE2AC014F5F90
:101530005F4FD801D296ED91FC91D397E80FF91F38
:10154000808190E080329105B9F08530910511F4E9
:1015500085EE90E04930510549F42C30310530F4E6
:10156000FE01E20FF31F65872F5F3F4FFE01E20F81
:10157000F31F85872F5F3F4FCA014B305105B1F6EE
:10158000FE01E20FF31F15868A8D811144C0232BC3
:1015900031F0BE01665E7F4FE0E0F0E012C08FE305
:1015A0008A8FE1E0F0E02BC0082E000C990B9C0123
:1015B000215431092A31310558F0DB018D93BD01E9
:1015C0003196CB010D97DC018C918111EDCF17C0C5
:1015D000D801D2962D913C91D397D9011C962C918C
:1015E00030E0E930F10518F448E050E002C040E195
:1015F00050E024233523232B01F38096DECFEC0F1C
:10160000FD1F128ED801D296ED91FC91D39784855F
:10161000811101C01D86D801D296ED91FC91D3971E
:1016200083858C87D2960D911C91D397C8014C96D7
:101630000E94BD074B015C01C12CD12C760168834F
:101640009982AA82BB821C821D821E821F82F8019F
:10165000878990E0982F88272689822B9B878A8705
:10166000818D90E0982F8827208D822B99878887FD
:10167000CDB7DEB7E2E10C946D2AFB01480F591F8C
:101680002191DC012D93CD01A417B507C9F7089569
:10169000FB01438D50E0542F4427928D492B60E08D
:1016A00070E0833079F4858990E0982F8827248929
:1016B000822BA0E0B0E0DC0199278827482B592B2A
:1016C0006A2B7B2BCB01BA0108950F931F93CF9305
:1016D000DF938C01EB01C4960E94BD076E837F836C
:1016E00088879987C801C8960E94D8072A873B87B0
:1016F0004C875D876E877F87888B998BF80181A1E6
:1017000082708D831E8A1F8A188E198EDF91CF9169
:101710001F910F910895A0E0B0E0E1E9FBE00C9487
:101720005B2AEC016A017B018FA998ADA9ADBAAD26
:10173000481759076A077B07D1F001E010E09A01CA
:10174000AB01BE01655C7F4F89810E946322892BBA
:1017500039F081E090E0CC24CA94DC2C760102C000
:1017600080E090E0CFAAD8AEE9AEFAAE02C080E049
:1017700090E0CDB7DEB7E8E00C94772AA4E0B0E0C3
:10178000E4ECFBE00C94512AFC016A017B0120810E
:1017900031813B832A83423051056105710508F48C
:1017A00056C1AA81BB815F964D915D916D917C91EF
:1017B0009297C416D506E606F70608F048C18C9144
:1017C000823009F45CC018F4813041F040C18330AC
:1017D00009F47FC0843009F4A7C039C18601169589
:1017E00007950C0D1D1DC801892F99278695EA8143
:1017F000FB8143A554A565A576A5480F591F611D1A
:10180000711DCF010E948B0B892B21F06FEF7FEFB1
:10181000CB0126C15801FFEFAF1ABF0A1170EA8150
:10182000FB81E00FF11F13ADC501892F9927869524
:10183000AA81BB819B964D915D916D917C919E9704
:10184000480F591F611D711DCD010E948B0B892B03
:10185000E9F6B1E0BB22EA81FB81EA0DFB1D83AD15
:10186000612F70E0782BC0FE06C0E4E076956795A6
:10187000EA95E1F701C07F7080E090E0F1C0772742
:101880006F2D5E2D4D2DEA81FB8183A594A5A5A525
:10189000B6A5480F591F6A1F7B1FCF010E948B0BF3
:1018A000892B09F0B3CFCC0CDD1CE894C0F8F1E033
:1018B000DF22EA81FB81EC0DFD1D94AD692F70E004
:1018C000762F6627EA81FB81EC0DFD1D83AD682B29
:1018D000D3CFEA81FB8183A594A5A5A5B6A5B701C1
:1018E000A60127E076956795579547952A95D1F7F4
:1018F000480F591F6A1F7B1FCF010E948B0B892B3A
:1019000009F084CFCC0CDD1CCC0CDD1CFCEFCF220D
:10191000F1E0DF22C601CB962A813B81820F931F23
:101920000E94BD079F709CC0B285B98343845484D4
:101930006584768407851089B189BC832981342D1B
:10194000452D562D672D702F812F9B2FA0E00E94D3
:10195000E62A09F47CC0468157816085718546017D
:101960005701841A950AA60AB70AAA81BB8119965B
:101970002D903C901A978581823059F5452D562D32
:10198000672D702F812FAFEF0E94C82A09E00E94B7
:10199000A32AB22FA32FF42FE52F910140E050E0AE
:1019A0006B2F7A2F8F2F9E2F0E94662928153905BD
:1019B0004A055B0508F44BC082169306A406B506DB
:1019C00009F44AC0C701B6016F5F7F4F8F4F9F4F29
:1019D00047C0833049F482899389A489B5898816E0
:1019E0009906AA06BB0670F386899789A08DB18DEA
:1019F000892B8A2B8B2B81F5EA81FB8183A594A50A
:101A0000A5A5B6A5B701A60127E0769567955795D8
:101A100047952A95D1F7480F591F6A1F7B1FCF01A1
:101A20000E948B0B892B09F0F1CECC0CDD1CCC0C69
:101A3000DD1CFCEFCF22F1E0DF22C601CB962A812C
:101A40003B81820F931F0E94BD079F7709C061E011
:101A500070E080E090E004C06FEF7FEF8FEF9FE7D2
:101A60002496E2E10C946D2AA0E0B0E0EAE3FDE008
:101A70000C94532AEC016A017B0108811981F80159
:101A80008081843029F080E090E0A0E2B0E004C0E2
:101A900080E090E0A0E0B0E1C816D906EA06FB06B7
:101AA00018F082E090E0ACC0D701C6018F71992791
:101AB000AA27BB27892B8A2B8B2B99F7CEA2DFA2D3
:101AC000E8A6F9A68E809F80A884B9848114910429
:101AD000A104B10469F5F80180818330E8F4F801CC
:101AE00087819085A0E0B0E0B701A601E5E076959A
:101AF000679557954795EA95D1F7481759076A07AB
:101B00007B0778F6F80187A590A9A1A9B2A98EA7AD
:101B10009FA7A8ABB9AB48C0F80187A590A9A1A918
:101B2000B2A91D820097A105B105C9F24C015D0162
:101B3000F80141845284612C712C39E0440C551C0D
:101B4000661C771C3A95D1F7B501A401C414D504DD
:101B5000E604F70410F1CE010E94BE0B4B015C01BC
:101B60006F3F7F4F8F4F9F4F09F448C082E0881628
:101B70009104A104B10408F494CFF801878D90A1D9
:101B8000A1A1B2A188169906AA06BB0608F089CFC2
:101B9000C418D508E608F708D7CFC8010E94100876
:101BA0006EA77FA788AB99AB8AA69BA6ACA6BDA65D
:101BB0008EA59FA5A8A9B9A90097A105B10509F40B
:101BC00070CFB701A60129E076956795579547959F
:101BD0002A95D1F7840F951FA61FB71F8EA79FA721
:101BE000A8ABB9ABF1E0DF228BE3C80ED11CC00E6D
:101BF000D11EDBAACAAA80E090E002C081E090E09A
:101C0000CDB7DEB7E0E10C946F2ACF93DF93EC0100
:101C10001B828FEF9FEFDC018FAB98AFA9AFBAAFFC
:101C2000CE010E948B0B892BA1F5FE01E65CFD4FD6
:101C3000808190E0982F882731972081822B8535ED
:101C40009A4A49F54BE050E06DEA72E0CE01CB963E
:101C50000E940108892B09F18BAD8B3E19F0885E3B
:101C60008230F8F443E050E069EB72E0CE018F5827
:101C70009F4F0E940108892B91F045E050E06DEBE9
:101C800072E0CE0183579F4F0E940108892B49F4CF
:101C900006C084E007C083E005C081E003C080E0A7
:101CA00001C082E0DF91CF910895A2E3B0E0EBE5BF
:101CB000FEE00C94512A7B01DB011D921C920E94D4
:101CC0000A098C0197FD55C3FC01EE0FFF1FE95770
:101CD000F84F208031802114310409F44DC3F701FD
:101CE00031822082D1018C91811109C0F1011082D1
:101CF0000183802F0E945C2280FD41C308C0D10176
:101D000011968C910E94552280FDF0CF3BC340E09C
:101D100050E0BA01C1010E94050E823009F042C0B4
:101D2000FE0131967F0181010F5F1D4F5101FFEBD5
:101D3000AF1AFDEFBF0A6701F8013497808188234D
:101D400021F0C8010E94BD0703C060E070E0CB0134
:101D5000D6016D937D938D939D936D01005F1F4F11
:101D60000A151B0549F78E010F5E1F4FD7014D90D5
:101D70005D906D907D907D01498E5A8E6B8E7C8E2C
:101D8000411451046104710441F0B301A201C10185
:101D90000E94050E823010F413C083E0E016F106B5
:101DA00029F7FAC2198E1A8E1B8E1C8E843019F4F4
:101DB00081E090E0F5C2823018F08DE090E0F0C252
:101DC000F101EA5BFF4F813051F4910125583F4FFB
:101DD00081918111F2CFE217F307D1F775C1D101DB
:101DE000A95BBF4F8C9190E0982F88272081822B90
:101DF0008115924011F7F101EE5AFF4F8080912C2E
:101E0000982C882431978081882A8114910419F0B4
:101E1000A12CB12C07C0C101815A9F4F0E94BD0760
:101E20004B015C01D10193968D929D92AD92BC9233
:101E30009697F101E55BFF4F0081F10102838FEF7F
:101E4000800F823008F0B9CFE85BFF4F1081812FFF
:101E500090E01A969C938E931997009709F4ADCF52
:101E60009C012150310982239323892B09F0A5CFAE
:101E70003596808190E0382F222731978081290183
:101E8000482A5A8A498A18965C924E921797C2013C
:101E90008F709927892B09F090CF3396808190E03D
:101EA000982F882731972081822B2C01612C712C4F
:101EB000892B39F4C101855A9F4F0E94BD072B0120
:101EC0003C01F101E65BFF4FE081F0E0FE2FEE27E1
:101ED000D101A75BBF4F8C91E82B309709F46DCFF0
:101EE000A02FB0E0A50194010E948E296D8F7E8FF6
:101EF0008F8F98A36F01E12CF12CC9A2DAA2EBA27B
:101F0000FCA289899A89E4E096958795EA95E1F79C
:101F1000C80ED91EE11CF11CD701C601CD8CDE8C88
:101F2000EF8CF8A0C80ED91EEA1EFB1E4C145D04EF
:101F30006E047F0408F441CFC301B2016C197D091E
:101F40008E099F09212F30E040E050E00E94662971
:101F5000211531054105510509F42FCF263F0FEF1B
:101F6000300740070FE0500708F027CF263F1FEF4C
:101F700031074105510540F4263F8FE03807410500
:101F8000510520F411E003C013E001C012E0290163
:101F90003A0192E0490E511C611C711CD1015F96FF
:101FA0004D925D926D927C929297298D3A8D4B8DD8
:101FB0005C8D97962D933D934D935C939A97DA01A0
:101FC000C90129A13AA14BA15CA1820F931FA41FB3
:101FD000B51FF10183A794A7A5A7B6A7498D5A8D70
:101FE0006B8D7C8D4C0D5D1D6E1D7F1D43AB54AB09
:101FF00065AB76AB133031F5EA59FF4F808190E045
:10200000982F882731972081822B892B09F0D5CEF4
:10201000C988DA88C114D10409F0CFCEC101895929
:102020009F4F0E94BD07D1019F966D937D938D9325
:102030009C93D29762E0440C551C661C771C6A95F1
:10204000D1F72EC0C988DA88C114D10409F4B5CEFD
:10205000CD8CDE8CEF8CF8A0C80ED91EEA1EFB1EBC
:10206000C7A6D0AAE1AAF2AA123029F4440C551C42
:10207000661C771C15C0A3E0B0E0A30192010E948A
:102080008E29DC01CB01B695A79597958795E1E060
:102090004E22552466247724480E591E6A1E7B1E44
:1020A000FFEF4F0EF1E05F1E611C711C39E076946A
:1020B0006794579447943A95D1F784149504A604ED
:1020C000B70408F47ACE34C1F101EC55FF4F80819A
:1020D00090E0982F882731972081822B811591409D
:1020E00009F06BCEF101E955FF4F81E090E00080EF
:1020F00002C0880F991F0A94E2F78115924009F0F7
:102100005CCEC1018D579F4F0E94D807498C5A8CD5
:102110006B8C7C8C53014201C12CD12C7601498AF5
:102120009A8AAB8ABC8ACD8ADE8AEF8AF88E5201FF
:10213000CB88DC88E12CF12C00E010E00E94BF2A63
:102140002D8F39A3742E652E562E472E8DA39EA358
:10215000562D652D742D2F3F3F4F4F4F5F4F61051B
:1021600071058105910511F008F027CEC101815755
:102170009F4F0E94BD07D10193966D937D938D93E0
:102180009C939697F101E755FF4F8081F10182837F
:10219000813009F012CEE855FF4F01E010E00080D9
:1021A00002C0000F111F0A94E2F71A961C930E93B7
:1021B00019970115110509F400CEC10189569F4FE9
:1021C0000E94BD079B01AC016E3FBFEF7B078B07F1
:1021D000BFE79B0708F0F1CDDC01CB010296A11D02
:1021E000B11DF101878F90A3A1A3B2A3898C9A8C12
:1021F000AB8CBC8C87A290A6A1A6B2A6C1018D56BD
:102200009F4F2FA338A749A75AA70E94BD07860E44
:10221000971EA81EB91E898A9A8AAB8ABC8AF101C8
:1022200083AA94AAA5AAB6AAC10185579F4F0E9466
:10223000BD07898C9A8CAB8CBC8C860E971EA81E11
:10224000B91EF10183A694A6A5A6B6A6A988BA8848
:10225000CB88DC8845015601C12CD12C76018BA698
:102260009CA6ADA6BEA6CFA6D8AAE9AAFAAAD8016E
:102270002FA138A549A55AA50E948E297B018C0162
:1022800020E030E0A901698BFA8A0B8B1C8B2D8B27
:102290003E8B4F8B588F9401A50160E070E080E089
:1022A00090E057016801E12CF12C00E010E00E9461
:1022B000BF2A59016A017B018C012D8D39A1472D5F
:1022C000562D652D742D8DA19EA10E94DD2A08F446
:1022D00074CDC10185569F4F0E94BD07AB01BC0163
:1022E000D1019F964D935D936D937C93D297C101DD
:1022F0000E941008AB01BC01C1010E948B0B892B0D
:1023000009F056CD8101015B1F4F7101B1EBEB1A52
:10231000BDEFFB0AF801749780818138B1F5C801DF
:102320000E94BD07623071058105910571F514E0C9
:10233000D1011C9380918507909186070196909317
:1023400086078093850716969C938E93159784E253
:1023500093E01C969C938E931B9784E295E01E96C7
:102360009C938E931D97F1011786108A118A128A09
:1023700009C08BE090E014C08CE090E011C083E0D5
:1023800090E00EC080E090E00BC0005E1F4F0E1585
:102390001F0509F0BFCF11CD843009F00ECD08CD57
:1023A000E296E2E10C946D2AA0E0B0E0EAEDF1E102
:1023B0000C94572AEC0108811981CEA0DFA0E8A473
:1023C000F9A44EA55FA568A979A941155105610534
:1023D000710509F497C0F8018081843029F080E00C
:1023E00090E0A0E2B0E004C080E090E0A0E0B0E1C6
:1023F000F0E2CF0ED11CE11CF11CC816D906EA068A
:10240000FB0608F07FC0D701C6019170AA27BB2741
:10241000892B8A2B8B2B09F065C04F5F5F4F6F4F65
:102420007F4F4EA75FA768AB79AB4AA55BA56CA5AC
:102430007DA5F8014115510561057105C1F487813C
:102440009085A0E0B0E0B701A60135E076956795EC
:10245000579547953A95D1F7481759076A077B076B
:1024600008F440C01EA61FA618AA19AA4BC0818551
:1024700092850197A0E0B0E04601570129E0B694AB
:10248000A794979487942A95D1F788219921AA2116
:10249000BB21892B8A2B8B2B29F5CE010E94BE0BE9
:1024A000AB01BC01423051056105710570F14F3F30
:1024B000FFEF5F076F077F0759F1F801878D90A144
:1024C000A1A1B2A1481759076A077B0758F64AA786
:1024D0005BA76CA77DA7C8010E9410086EA77FA705
:1024E00088AB99ABCEA2DFA2E8A6F9A6F1E0DF2285
:1024F0002BE3C20ED11CC00ED11EDBAACAAA80E0FB
:1025000090E008C084E090E005C082E090E002C066
:1025100081E090E0CDB7DEB7ECE00C94732AA0E048
:10252000B0E0E5E9F2E10C945B2AEC018881998145
:10253000FC01058516854EA55FA568A979A90E94AD
:102540008B0B009709F0BCC06AA97BA9FB018081B5
:10255000853811F022E0B7C040E250E0C8010E9487
:102560003D0BF801E180F12CFFEFEF1AFF0A95E037
:10257000EE0CFF1C9A95E1F7C70180569109813056
:10258000924040F7CE010E94D4118430910511F39E
:10259000009709F095C04EA55FA568A979A9888123
:1025A00099810E948B0B009709F08AC06AA97BA9C8
:1025B000FB018081803C71F640E250E0C8018096CA
:1025C0000E943D0BF80183A190E08C966FE070E0D3
:1025D0000E94522985E0660F771F8A95E1F7E6167B
:1025E000F70608F4B7CFB0E4CB2ED12CCE010E9471
:1025F000D4118430910519F0009721F061C082E078
:1026000090E05EC04EA55FA568A979A988819981EF
:102610000E948B0B009709F053C06AA97BA9FB01AC
:102620008081813C09F096CFF0E6CF16F2E0DF061C
:1026300038F440E250E0C8018C0D9D1D0E943D0B16
:1026400020E2C20ED11CCE14DF0480F281E6C8164F
:1026500082E0D806B8F5F801818190E00196A5E006
:10266000880F991FAA95E1F720E030E040E050E0A4
:102670004230510591F0B9016170772720FF02C007
:1026800060E070E8F801E40FF51FE08136952795CA
:102690002E0F311D260F371F02C043E050E04F5F61
:1026A0005F4F4817590720F3F801838190E0982F76
:1026B00088274281842B2817390709F04BCF02C0A5
:1026C000282F02C020E090E0822FCDB7DEB7E8E0EF
:1026D0000C94772A6F927F929F92AF92BF92CF9283
:1026E000DF92EF92FF920F931F93CF93DF93EC0152
:1026F000E880F9800FEF1FEF64E0C62ED12C7DE05B
:10270000972E5C0140E4A40EB11C4EA55FA568A9FC
:1027100079A9411551056105710509F4CCC0C701BE
:102720000E948B0B6C01892B09F0C8C0EAA9FBA998
:102730008081882309F4C9C0D7019C919430E9F4C1
:10274000853809F0B0C08EA19FA1A8A5B9A5FE014A
:10275000E05CFF4F80839183A283B383CE010E940C
:102760008F12009709F0B5C0D7011D96ED91FC912D
:102770001E9784818F738C83AEC093859F739C83D7
:10278000853E09F48FC08E3209F48CC0292F2F7139
:10279000283009F487C09F3009F06AC086FF0EC058
:1027A0000585182F1F7B4EA15FA168A579A5D501CE
:1027B0004D935D936D937C93139702C0811372C008
:1027C000858508136FC0D7011B968D919C911C972E
:1027D000238D30E0322F2227428D242B232B09F02A
:1027E00061C0408150E04F7B41505109949E90015F
:1027F000959E300D11244BE8642E41E0742E61E06B
:1028000070E0D3014D913D016F01C40ED11CD60182
:1028100011964C91119750E0542F4427DC904D298C
:102820006115710579F02F3F3105E0F5B901660FAB
:10283000771F680F791FDB014D935C93BA012F5FFF
:102840003F4F03C04F3F5F4F69F548E9641641E0D1
:102850007406B9F6408146FF36C02F3F310510F5AA
:10286000220F331FFC01E20FF31F118210822BC0D5
:1028700011110EC09F01255F3F4F80E080FB8795BF
:1028800087F99191890FE217F307C1F7081719F13A
:10289000C05CDF4F8FEF9FEFDC0188839983AA83B1
:1028A000BB8319C01FEFCE010E94D4116C01892B8C
:1028B00009F42BCF03C0C114D10469F01EA61FA6D2
:1028C00018AA19AA08C01150EECF84E0C82ED12C46
:1028D000F5CF6C01F3CFC601DF91CF911F910F911E
:1028E000FF90EF90DF90CF90BF90AF909F907F9040
:1028F0006F900895ADE5B0E0E0E8F4E10C94512A62
:102900008C012B01DC012D903C90FB0180818F32EA
:1029100011F08C3511F492010BC0F101878590897B
:10292000A189B289F80186839783A087B1870EC0F9
:102930002901D9018C912F5F3F4F8F32C9F38C351C
:10294000B9F3F8011682178210861186D8015696BF
:102950001D921D921D921C925997F1018081843025
:1029600009F06CC016968D919D910D90BC91A02D93
:10297000892B8A2B8B2B09F461C083899489A589C3
:10298000B689F801828F938FA48FB58FF101878864
:10299000908CA18CB28CF801868E978EA0A2B1A2E9
:1029A000F101438D548D658D768DF80142A353A3BB
:1029B00064A375A33A8229828F839887A987BA87EF
:1029C0008E828824C12CD12C76018B869C86AD8684
:1029D000BE861F86188A198A1A8A1F8A188E198E2F
:1029E0001A8E25964CAF5DAF6EAF7FAF2597CE01A7
:1029F00001960E94340D009709F074C4CE0101962F
:102A00000E948F12009709F06DC4D1011D96ED90C0
:102A1000FC901E97C701C8960E94BD079B01AC01A0
:102A2000F801628733874487558716861786108A90
:102A3000118AD70191968C9182708583F2018081F1
:102A40008032A0F098012C5C3F4F2F963FAF2EAF05
:102A50002F97255F3F4F67963FAF2EAF67972F5F4A
:102A60003F4F2D963FAF2EAF2D97CCC080E8D801B9
:102A7000DF968C9340E050E0BA01C8010E94340D0B
:102A800031C48F32910559F18C35910541F180386F
:102A9000910528F4E3ECF2E021912111C0C0EFEFA1
:102AA000EE16F10409F4FEC3FFEFEF1AFF0AD4019A
:102AB0008D939D934D01BFEF4B1A5B0AF201319745
:102AC0008081882309F4A8C065EB71E090E00E9442
:102AD000DA21009709F4E6C38032910590F6A2014D
:102AE0002A01FA0120814F5F5F4F2F32C9F32C3545
:102AF000B9F3809708F49BC0712CF701EE0FFF1F0C
:102B000021E0E216F10409F095C0D5018D919C9168
:102B10008E9709F09BC0EA0DFB1D118210822F9643
:102B2000EEADFFAD2F9780E090E08E159F0508F485
:102B300090C020E2219301968B309105B1F7872D4B
:102B40008062F80187AFF8016080718040E050E05A
:102B5000BA01C8010E94340D0097C9F4F3018081C5
:102B6000843009F02DC2E384F484C12CD12CD70128
:102B70006D917D917D016115710509F095C1C801C7
:102B80000E946A137C01892B09F4B5C1C701F801C1
:102B900027AD009709F05EC322FDA4C3D80184814C
:102BA00084FF7DC3F1018081843009F066C31696ED
:102BB0008D919D910D90BC91A02DF801828F938FE6
:102BC000A48FB58F82859385A485B58588272581B7
:102BD000822B868F978FA0A3B1A32D96EEADFFAD6C
:102BE0002D9780819181A281B381F80182A393A363
:102BF000A4A3B5A3B801D1011D968D919C911E97F8
:102C00000E94650BD801ED91FC91A384B484650109
:102C10004501E12CF12C4FCF80E090E05DCF022EFA
:102C2000000C330B2817390709F036CF3BC354E0AB
:102C3000752E63CFB2E0EB16F10441F4D501129684
:102C40008D919C9113978E9709F45FCFEA0DFB1D30
:102C50000AC02EE26FCF929182918032910539F4B1
:102C600021E0E21AF108E114F104A9F702C08E97FD
:102C7000B9F3D701AA0FBB1F9D012A0D3B1DD90136
:102C80001D921C92E114F10409F40CC3E0E0F0E0A1
:102C9000D6018D919D916D018032910511F431968F
:102CA000F7CF309711F48E9719F4B72DB3607B2EC0
:102CB000D9019E918E918E9721F021E0E21AF108C0
:102CC000C1F72F96AEADBFAD2F9780E28D9367967B
:102CD0008EAC9FAC6797A815B905C1F728E0C22E46
:102CE000D12C20E030E0612C4F014FEF841A940A80
:102CF000EE0FFF1FEA0DFB1D80819181009709F403
:102D0000A9C08032910539F08E32910549F48E14B4
:102D10009F0409F4E1C2572D5360752EF401E4CFEE
:102D20002C153D0520F48E149F04F9F4CFC26BE0FE
:102D3000C616D10439F4772D7360772E8BE0C82E38
:102D4000D12C88C08E149F0439F0872D8360782E93
:102D5000E814F90408F47EC0660C660C4701BBE079
:102D6000CB2ED12C28E030E0D9CF80389105D8F196
:102D7000A72DA2602896AFAF2897BC0180E090E015
:102D800045EB51E06A962FAF6A9768963FAF689718
:102D90000E94B1216A962FAD6A9768963FAD6897F9
:102DA00087FF0BC08F779927FC01E55FFE4F80817D
:102DB00090E028967FAC289716C08F3F9105B1F020
:102DC000A8F0A601415051092417350728F0B72D66
:102DD000B3607B2E9601A2CFF801E20FF31F94ABF4
:102DE0002F5F3F4F2DC028967FAE2897009759F050
:102DF000ECECF2E04191442381F0042E000C550BE1
:102E000048175907B9F72896EFAD2897E360289639
:102E1000EFAF28978FE590E013C0AC014154510902
:102E20004A31510518F4F62DF2606F2EAC0141566F
:102E300051094A31510520F4462D4160642E809796
:102E4000F801E20FF31F84AB2F5F3F4F28967FAC52
:102E5000289764CFD801D4968C91D497853E19F4E5
:102E600085E0D4968C93B8E0CB16D10411F4660CAF
:102E7000660C862D8C708C3021F0862D837083300B
:102E800019F4E72DE2607E2E71FC0AC060FE03C0DB
:102E9000F72DF0617F2E62FE03C0272D2860722E71
:102EA000D801DF967C924FCE80E090E00E94EF2127
:102EB000F601E170FF27C0FE02C0E0E0F0E8D69422
:102EC000C7949B013327C20ED31EA6014E0F5F1F6E
:102ED0009A012170332740FF02C020E030E8FA0158
:102EE000F695E795472F5527CF01840F951F6C0165
:102EF000C20ED31E3CCED3011D96ED91FC911E97C0
:102F000085A190E0982F882724A1822B8C159D0500
:102F100009F035CE83A1882E912C61969FAE8EAE9E
:102F20006197A12CB12C80E4882E912C61962EAD56
:102F30003FAD6197A216B30609F4B7C1C4018F7102
:102F40009927892B19F422E0820E911CD3011D963A
:102F5000ED91FC911E97E80DF91D618170E0762FCF
:102F600066278081682B80E090E00E94EF212B96FD
:102F70006CAF7DAF8EAF9FAF2B97D3011B96ED91BA
:102F8000FC911C97C501880F991FE80FF91F6081FC
:102F9000718180E090E00E94EF212B962CAD3DAD39
:102FA0004EAD5FAD2B97261737074807590709F035
:102FB000E6CD32E0830E911C4FEFA41AB40AB6CFCF
:102FC0004FEF5FEFBA012D96AEADBFAD2D974D938C
:102FD0005D936D937C9313972FEF28962FAF2897CF
:102FE000D8019E964D915D916D917C91D197C301D1
:102FF0006A962FAF6A970E948B0B6A962FAD6A97DD
:10300000009709F0C4CDF801C2A8D3A8D6018C91CD
:10301000882309F419C11B963C91932F9F739483C5
:10302000853E09F4F6C033FF04C09F3009F0F1C0BB
:1030300003C09F3009F0C9C0F80197AD96FDF7C0F5
:1030400086FF15C0D6011D96BC912896BFAF289764
:10305000282F2F7B86A197A1A0A5B1A52D96EEAD17
:10306000FFAD2D9780839183A283B38302C0821327
:10307000DDC0D6011D968C9128968FAC28978812BA
:10308000D5C0D3011B960D90BC91A02D6C96BFAFFF
:10309000AEAF6C97F601838D90E0982F8827328D24
:1030A000832B892B09F0C2C080818F7390E0019738
:1030B000FDE0F89F7001F99FF00C11244BE851E0FE
:1030C00081E090E0DA013D91AD01F601E30FF11DE1
:1030D000A180B12CBA2CAA2430814501832A6E9696
:1030E0009FAE8EAE6E97009709F44CC03FEFE3168B
:1030F000F10408F09BC0B40180E090E06A962FAF25
:103100006A976896AFAF689769965FAF69970E94B4
:10311000EF2163966CAF7DAF8EAF9FAF6397B70122
:103120006F5F7F4F65967FAF6EAF6597EE0CFF1CAC
:103130006C96EEADFFAD6C97EE0DFF1D6081718159
:1031400080E090E00E94EF216A962FAD6A97689622
:103150004FAD689769965FAD699763968CAC9DACEF
:10316000AEACBFAC639786169706A806B90609F001
:103170005DC06E968EAD9FAD6E976596EEACFFAC62
:10318000659709C06E96AEACBFAC6E973FEFA316C5
:10319000B30609F04BC061E04839560709F092CFF9
:1031A000D6013C9136FF90C0892B09F48DC0EE0CFE
:1031B000FF1C6C96EEADFFAD6C97EE0DFF1D808190
:1031C0009181892B09F480C031C0211112C0F60110
:1031D0009601255F3F4F80E080FB879587F99191AD
:1031E000890FE217F307C1F728968FAC2897881646
:1031F00071F1D801DF968C9180FD0BC04BE050E05F
:103200002F966EAD7FAD2F97C6010E940108892BC6
:10321000F1F088248A94982C54012D96AEADBFAD60
:103220002D978D929D92AD92BC9213972FEFC8016E
:103230006A962FAF6A970E94D4116A962FAD6A974B
:10324000009709F4CDCEA3CC84E090E0A0CC80E040
:1032500090E09DCC8430910509F044C0322F347049
:1032600025FF08C0332309F4CDCC80E887AF80E088
:1032700090E038C0311136C012C0F80166A177A1C4
:103280007170655C7F4F620D731D0E94480BD80101
:1032900016966D937D938D939C931997B3CC85E08F
:1032A00090E020C086E090E01DC0AA0CBB1CD301BA
:1032B0001B96ED91FC911C97EA0DFB1D808191817D
:1032C000892B09F05CCC62CC2150B1CFBBE0CB168E
:1032D000D10409F041CD2FCDEBE0CE16D10409F099
:1032E0003BCD29CDC35ADF4FE2E10C946D2AA7E014
:1032F000B0E0EDE7F9E10C94612A9C838B837E8337
:103300006D837A836983CE0101964F830E940A09F7
:103310004F8197FD1FC0880F991FFC01E957F84F97
:103320000190F081E02D309709F01082EB81FC8153
:10333000309709F01082DC01A957B84FED93FC9348
:10334000442359F0BE016D5F7F4FCE0105960E9468
:10335000550E05C08BE090E002C080E090E027961B
:10336000E2E00C947D2AAAE4B0E0E9EBF9E10C94E8
:10337000562A2B967FAF6EAF2B97009739F1742E9C
:103380008C01BE01695B7F4FCE01875B9F4F0E941E
:10339000550E009709F0A0C029968EAD9FAD2997D4
:1033A0009A8389832B966EAD7FAD2B97CE010196C4
:1033B0000E947A14009709F08FC021968FAD219753
:1033C00087FD85C08D8184FD85C003C089E090E0C4
:1033D00086C029964EAD5FAD2997DA018C91843075
:1033E00039F58F819885A985BA85F801828F938FE9
:1033F000A48FB58F8B859C85AD85BE8588272E8152
:10340000822B868F978FA0A3B1A325968CAD9DADFF
:10341000AEADBFAD259782A393A3A4A3B5A3B80176
:10342000DA011D968D919C911E970E94650B2BC011
:10343000EBA8FCA8B7010E94480BF80166837783CC
:1034400080879187C7014C960E94BD074B015C01A4
:10345000C12CD12C7601D8011A966C931A971B9621
:103460009C921B971C96AC921C971D96BC921D9724
:103470001E961C921E971F961C921F9750961C9288
:10348000509751961C922996EEADFFAD2997D80121
:103490001196FC93EE938581968113969C938E935F
:1034A0001297472D417096964C93969797961C923B
:1034B000F80114AA15AA16AA17AA10A611A612A6F0
:1034C00013A614A615A616A617A680E080CF86E040
:1034D00090E002C084E090E0F80111821082C65BA7
:1034E000DF4FEDE00C94722AAAE0B0E0EAE7FAE1DF
:1034F0000C94512A4C012B013A011901D9011D925A
:103500001C92BE016F5F7F4F0E943309009709F044
:103510004AC1F40187A190E0009709F044C186A157
:1035200080FF3FC122853385448555856685778533
:1035300080899189A0A4B1A4C2A4D3A4E4A4F5A4D1
:1035400006A517A50E94D42AF22FE32F6A017B015A
:103550008C01930140E050E060E070E080E090E09A
:10356000AF2EBE2E0E94DD2A09F008F4ABC0CF01B9
:10357000692E782EA7C0D4019896FC9198979996B9
:10358000EC9199979A96BC909A979B96CC909B9722
:103590009C96DC909C979D96EC909D979E96FC90B7
:1035A0009E979F96AC903E2F31702F2F40E050E0B9
:1035B00060E070E080E090E0A0E00E94E62A09F080
:1035C000C5C03E2F4B2D5C2D6D2D7E2D8F2D9A2D40
:1035D00009E00E94A32A2B833C834D835E836F8383
:1035E000788789879A8789819A81DC0119960D915C
:1035F0001C911A97015011092B813C81022313233E
:103600000115110509F463C0C980DA80F40140A9ED
:1036100051A962A973A9C6010E941008611571051C
:103620008105910509F474C09B01AC01200F311F85
:10363000411D511D7301EF2CFF24E694E114F104A8
:1036400009F47DC0D60119968D919C911A97B70106
:10365000600F711F8617970718F47C01E01AF10AB2
:103660008701B201F60181810E946322892B09F052
:103670005AC0FE2CEE24FF0C6E187F08D1018D91EC
:103680009C9111978E0D9F1D8D939C934E0C5F1CEA
:10369000970140E050E060E070E080E090E0F401ED
:1036A000A0A4B1A4C2A4D3A4E4A4F5A406A517A51C
:1036B0000E94BF2A20A731A742A753A764A775A7D6
:1036C00086A797A76114710409F055CF68C02F2F02
:1036D0003E2F4B2D5C2D6D2D7E2D8F2D9A2DA0E034
:1036E0000E94E62A41F4D40116966D917D918D9148
:1036F0009C91199708C0F40140A951A962A973A926
:10370000C4010E94BE0B623071058105910528F449
:1037100082E0D40197968C9345C06F3FBFEF7B0743
:103720008B079B0721F481E0F40187A33BC0D40100
:10373000D0966D937D938D939C93D39765CFD40151
:10374000D4962D933D934D935C93D797F40180A528
:1037500091A5917020E032E0281B390B73012615EA
:10376000370508F47901D401D4964D915D916D919E
:103770007C91D79789819A810E948B0B892B99F62E
:10378000F40160A571A57170655C7F4F89819A8194
:10379000680F791FA701C2010E943D0B6DCF80E029
:1037A00001C087E090E02A96E2E10C946D2AA2E045
:1037B000B0E0EDEDFBE10C945F2A8C01BE016F5F80
:1037C0007F4F0E943309009719F4F801118210828B
:1037D0002296E4E00C947B2AA2E0B0E0E2EFFBE169
:1037E0000C94612A9A838983CE0101960E940A096A
:1037F00097FD05C08093840780E090E002C08BE0D5
:1038000090E02296E2E00C947D2AAAE4B0E0EBE09E
:10381000FCE10C945D2A2B969FAF8EAF2B97BE01D7
:10382000695B7F4FCE01875B9F4F0E94550E8C01D5
:10383000892B09F07DC029968EAD9FAD29979A837B
:1038400089832B966EAD7FAD2B97CE0101960E949A
:103850007A148C01009709F067C021968FAD2197EB
:1038600087FF25C02996EEADFFAD29978F819885FA
:10387000A985BA858787908BA18BB28B8081843094
:1038800009F056C08B8D9C8DAD8DBE8D838B948B36
:10389000A58BB68B8F8D98A1A9A1BAA1878B908F8C
:1038A000A18FB28F8BA19CA1ADA1BEA12EC08D8195
:1038B00084FF3CC02996EEACFFAC2997F7018081CC
:1038C000843041F585859685C4960E94BD07F70131
:1038D0006787708B818B928B8F819885A985BA853C
:1038E000838B948BA58BB68B8B859C85AD85BE8594
:1038F00088272E81822B878B908FA18FB28F259660
:103900008CAD9DADAEADBFAD2597838F948FA58F48
:10391000B68F0EC06BA97CA90E94480BF701678780
:10392000708B818B928B04C0049711F405E010E03A
:10393000C801C65BDF4FE6E00C94792A4F925F9294
:103940006F927F92BF92CF92DF92EF92FF920F938E
:103950001F93CF93DF93CDB7DEB7C456D1400FB6D8
:10396000F894DEBF0FBECDBFCD59DE4F998388835B
:10397000C356D1406B01DC011C92BE016F597E4FD2
:10398000CE018D599E4F0E94550E7C01892B09F066
:1039900011C1CF59DE4FE881F981C156D140C55ED2
:1039A000DE4FF983E883CB51D1408081843009F424
:1039B000C8C087859089A189B289CF5DDE4F888391
:1039C0009983AA83BB83C152D14086012FE2B22ED4
:1039D000CF5DDE4F488059806A807B80C152D140E4
:1039E000411451046104710409F4B7C040E250E08D
:1039F00060E070E0CE01855E9E4F0E94340D00971E
:103A000009F0D6C0C75BDE4F488159816A817B814E
:103A1000C954D140CF59DE4F88819981C156D140D8
:103A20000E948B0B009709F0C3C0C35BDE4F688117
:103A30007981CD54D140CF59DE4FE881F981C1560B
:103A4000D14080810E94480BCF5DDE4F688379832F
:103A50008A839B83C152D14040E050E0BA01CE013D
:103A6000855E9E4F0E94340D009709F0A1C0CE01E3
:103A7000855E9E4F0E946A13009709F068C0C35B81
:103A8000DE4F68817981CD54D140CF59DE4FE88136
:103A9000F981C156D14080810E94480B46165706D5
:103AA0006806790669F4BE016F5F7F4FCE01855EBF
:103AB0009E4F0E948109FE017B9680E090E008C045
:103AC000CE01855E9E4F0E94D411009781F23FC0C7
:103AD0002191222311F00196FBCF9C012D5F3F4FD6
:103AE0000217130780F1A801481B590B9801BC016C
:103AF000601B710B24173507B1F021503109F90112
:103B0000E60FF71FA1E0B0E0AC0FBD1FEA0FFB1FEF
:103B1000A28DCD59DE4FE881F981C356D140E20F25
:103B2000F31FA083E7CF80959095080F191FCD59FB
:103B3000DE4FE881F981C356D140E00FF11FB0821A
:103B400047CF86010AC091E1E92EF12C06C08430EE
:103B5000910571F582E0E82EF12CCD59DE4FE88118
:103B6000F981C356D140E114F10401F58091840735
:103B7000805D80838AE381830C151D0521F48FE22B
:103B80008283339613C032963196CD59DE4FA88189
:103B9000B981C356D140A00FB11F8C91DF0111979D
:103BA0008C930F5F1F4F0C151D0570F3108202C020
:103BB0007C01D3CFC701CC59DE4F0FB6F894DEBFDE
:103BC0000FBECDBFDF91CF911F910F91FF90EF906E
:103BD000DF90CF90BF907F906F905F904F9008954F
:103BE000A0E2B0E0E6EFFDE10C94512A1C0179015E
:103BF0003A014B01BE016F5F7F4F0E94330900976E
:103C000009F062C2D10197968C9190E0009709F07B
:103C10005BC2E981FA81FC83EB8380818430C1F04F
:103C20009801A701B301C4012F3F3F4F4F4F5F4F92
:103C3000610571058105910559F050F00FEF1FEFF7
:103C4000EE24EA94FF24FA94612C712C812C912C9F
:103C5000D1011A96BC91BB87F101F385FA8BD10192
:103C60001C964C901C971D965C901D971E96BC91BF
:103C7000F101A785F089FE8BF101F189FF8B0C879B
:103C80001D87EE86FF86688A798A9801A701B301AD
:103C9000C401AB84BA886201EB2EFA2E0E891F2F65
:103CA0000E94DD2A41F038F0AC86BD864E865F86E4
:103CB000B88BA98B4801D10198967C9098979996DA
:103CC000EC9099979A96FC909A979B960C919B975B
:103CD0009C961C919C979D96BC91F10166A457A45B
:103CE00010A611A612A613A614A615A616A617A608
:103CF0002C853D854E855F8568897989C401A0E062
:103D00000E94E62A21F4412C512C3201C0C1EB81E2
:103D1000FC814185528560E070E05A016B0189E0C9
:103D2000AA0CBB1CCC1CDD1C8A95D1F7AA8ABB8AC5
:103D3000CC8ADD8A272D3E2D4F2D502F612F7B2FD2
:103D4000862D952DA0E00E94E62A09F491C0AFEFE0
:103D50000E94C82A2E8B3F8B488F598F2B013C0124
:103D60002C853D854E855F8568897989C4010E94CF
:103D7000C82A7601650156016701E12CF12C870103
:103D8000AB82BC82CD82DE82EF82F88609871A87F9
:103D9000E12CF12C00E010E00E94F4292B873A8FEF
:103DA0004B8F5C8F6D8F7E8F8F8F98A32E893F896D
:103DB000488D598DB201C3010E94F42959016A014D
:103DC0007B018C012B853A8D4B8D5C8D6D8D7E8DAD
:103DD0008F8D98A10E94DD2A08F44AC00A891B89A8
:103DE0002C893D890150110921093109A02EA09487
:103DF000B12EB094C22EC094D32ED094EE88AE20B3
:103E0000FF88BF20088DC022198DD122D10198963C
:103E1000AC9298979996BC9299979A96CC929A97C9
:103E20009B96DC929B979C964C929C979D965C925D
:103E30009D979E966C929E979F967C929F972C85BD
:103E40003D854E855F8568897989C401720183014A
:103E50000E94D42A2C873D874E875F87688B798B99
:103E60004C01D0964D905D906D907C90D39709C099
:103E7000F101468057806084718440AA51AA62AAE9
:103E800073AA411451046104710409F43CCFCA8837
:103E9000DB88EC88FD8856016701E12CF12C870155
:103EA000AB82BC82CD82DE82EF82F88609871A87D8
:103EB0002C853D854E855F8568897989C401AB80F5
:103EC000BC80CD80DE80E12CF12C00E010E00E946F
:103ED000DD2A09F008F47CC02C853D854E855F8580
:103EE00068897989C401AB80BC80CD80DE80E12CFB
:103EF000F12C00E010E00E94D42A2C873D874E87E9
:103F00005F87688B798B4C019501A60160E070E0BA
:103F100080E090E0D1019896AC9098979996BC90EB
:103F200099979A96CC909A979B96DC909B979C96A3
:103F3000EC909C979D96FC909D979E960C919E97D9
:103F40009F961C919F970E94BF2A98962C939897B2
:103F500099963C9399979A964C939A979B965C93D3
:103F60009B979C966C939C979D967C939D979E9611
:103F70008C939E979F969C93B301A201C1010E94CE
:103F8000BE0B2B013C016F3FBFEF7B078B079B07ED
:103F900021F481E0F10187A396C0623071058105AB
:103FA000910558F0E981FA81878D90A1A1A1B2A174
:103FB000481659066A067B0628F082E0D1019796DA
:103FC0008C9381C0F10140AA51AA62AA73AA70CF52
:103FD000D1019896AC9098979996BC9099979A969B
:103FE000CC909A979B96DC909B979C96EC909C9794
:103FF0009D96FC909D979E960C919E979F961C91E6
:104000009F970E94BF2A98962C93989799963C93D5
:1040100099979A964C939A979B965C939B979C96AC
:104020006C939C979D967C939D979E968C939E9760
:104030009F969C932C853D85317040E050E060E078
:1040400070E080E090E0A0E00E94E62A09F45BCEF8
:10405000B301A20189819A810E9410082B013C01C1
:10406000672B682B692B09F4A8CF2C853D854E85DD
:104070005F8568897989C40109E00E94A32A490102
:104080005A016B017C01480C591C6A1C7B1CF10114
:1040900020A531A5317040E050E060E070E080E0A4
:1040A00090E0A0E00E94E62A69F084A995A9A6A95B
:1040B000B7A9481659066A067B0621F044AA55AAF4
:1040C00066AA77AA80E090E0A096E2E10C946D2ABF
:1040D000A4E0B0E0EEE6F0E20C945F2A7C836B8310
:1040E000009709F46BC08C01BE016F5F7F4FCE015A
:1040F00003960E94550E009709F05CC089819A8151
:10410000F801918380836B817C81C8010E947A14BD
:10411000009709F05AC0F80187AD87FD39C0848146
:1041200084FF46C049815A81FA018081F8018430B8
:1041300031F586819781A085B185828F938FA48F79
:10414000B58F82859385A485B58588272581822BA7
:10415000868F978FA0A3B1A3D801A05CBF4F8D918C
:104160009D910D90BC91A02D82A393A3A4A3B5A370
:10417000B801FA01858596850E94650B09C062A980
:1041800073A90E94480BF801668377838087918723
:10419000E981FA8185819681F8019383828340E0E9
:1041A00050E0BA01C8010E94340D8430910541F4F9
:1041B00085E090E0F801118210820BC089E003C015
:1041C0000097C1F780E090E004C08430910591F73A
:1041D000EFCF2496E4E00C947B2AA2E0B0E0E3EF7A
:1041E000F0E20C945F2A8C01BE016F5F7F4F0E944A
:1041F0003309009719F4F801118210822296E4E045
:104200000C947B2AA2E0B0E0E8E0F1E20C945B2A97
:104210007C016B01BE016F5F7F4F0E9433098C01EF
:10422000892BE1F4C114D10439F440E050E0BA0123
:10423000C7010E94340D11C0C7010E946A139C017E
:104240002B7F232B51F4B601C7010E948109C701BE
:104250000E94D4118430910509F08C01C801229686
:10426000E8E00C94772AA0E0B0E0E9E3F1E20C94F6
:10427000592A7C01EB015B018AE1A80EB11C6701A0
:10428000E4E4CE0ED11CBE01C7010E9402218C01C4
:10429000892B89F4209779F08A8D882361F020E0BA
:1042A00030E040E050E0B501F601808191810E944C
:1042B0006C08892B41F3C801CDB7DEB7EAE00C9456
:1042C000752A0F931F93CF93DF93EC018B01FC01B1
:1042D000EC5BFF4F31832083BA010E946820009776
:1042E00021F4B801CE010E943321DF91CF911F91BB
:1042F0000F910895A8E4B0E0E0E8F1E20C945D2AA3
:1043000029969FAF8EAF29977B01BE016F5F7F4FCC
:10431000CE01895B9F4F0E94550E8C01892BD9F4E9
:1043200029966EAD7FAD2997CE0101960E947A1431
:104330008C01892B81F421968FAD219787FD09C0CF
:10434000E114F10441F0B701CE0101960E94810908
:1043500002C006E010E0C801C85BDF4FE6E00C9445
:10436000792A603871058105910510F4CB01089513
:104370006115710521E082079105C8F4453B514064
:10438000B1F428E233E080E090E0F90145915491E6
:104390006417750731F001962E5F3F4F8038910505
:1043A000A1F7BC0160587F4FCB019927089580E0A9
:1043B00090E008958038910588F0653B714061F484
:1043C0008F3F910509F040F4880F991FFC01E85DCB
:1043D000FD4F85919491089580E090E00895CF93EA
:1043E000DF936115710521E08207910508F05AC03D
:1043F000EB01611570418105910518F02AE730E065
:1044000002C026E331E0F9016591749161157105EF
:1044100009F445C0C617D70708F441C02C5F3F4FC9
:10442000F901329745915491E52FFF275527DA017D
:10443000A60FB71FCA17DB0750F5E930F10578F56D
:10444000EC5CFF4F0C948829CE01861B970B880FDC
:10445000991FF901E80FF91FC081D18120C09E0189
:10446000261B370B21703327C21BD30B18C0609754
:1044700016C0A09714C0E09712C06A9710C0289683
:104480000EC0C055D1090BC0C056DC4108C0EF2B8F
:1044900009F0B9CF440F551F240F351FB4CFBE010B
:1044A00080E090E0DF91CF910895811103C00E94D8
:1044B0005824089581E00895811103C00E94982333
:1044C000089581E008950F931F93FB01811107C0A8
:1044D000BA01A901CF0198010E945B2402C084E0C7
:1044E00090E01F910F9108950F931F93FB0181118D
:1044F00007C0BA01A901CF0198010E94A32402C0FC
:1045000084E090E01F910F910895962F811105C0CE
:10451000BA01892F0E940D25089584E090E0089546
:104520000E94C627089582E18CBD84B184B985B10B
:1045300085B908958EBD0DB407FEFDCF8EB50895E3
:104540006AE070E00E94522960938C078FEF0E940E
:104550009A22282F8F3F21F080918C078111F6CF6E
:1045600081E090E02F3F11F080E090E008952A9ADA
:104570008FEF0E949A220895A2E0B0E0E2ECF2E20E
:104580000C94612A2A988FEF0E949A2284EF91E07E
:104590000E94A022009739F489839A830E94B7224F
:1045A00089819A8102C081E090E02296E2E00C9439
:1045B0007D2AFF920F931F93CF93DF93C82FD42FA1
:1045C000152F062FF72E87FF09C040E050E0BA01F3
:1045D00087E30E94D9228230A0F5CF77CC3099F4BE
:1045E0008C2F80640E949A228F2D0E949A22802F05
:1045F0000E949A22812F0E949A228D2F0E949A2235
:10460000CC2369F008C00E94B7220E94BC22892BEB
:1046100039F78FEF16C0C83021F081E003C085E97B
:1046200001C087E80E949A22CC3019F48FEF0E94D3
:104630009A22CAE08FEF0E949A2287FF02C0C150DF
:10464000C9F7CDB7DEB7E5E00C947A2A0F931F9334
:10465000CF93DF93EC018B0184E180938D078FEF83
:104660000E949A228F3F29F480918D078111F7CF04
:104670001EC08E3FE1F48FEF8EBD0DB407FEFDCF5F
:104680009EB598838EBD0DB407FEFDCF22969EB5D4
:10469000FE01319790830250110971F78FEF0E944C
:1046A0009A228FEF0E949A2281E090E002C080E07F
:1046B00090E0DF91CF911F910F9108951F93CF93B9
:1046C000DF93EC01162F84EF91E00E94A022009767
:1046D00059F1812F0E949A221D3F21F1CE019E5F48
:1046E00028812EBD0DB407FEFDCF2296FE01319725
:1046F00020812EBD0DB407FEFDCFC817D90781F765
:104700008FEF0E949A228FEF0E949A228FEF0E94D1
:104710009A228F7131E020E0853009F030E0832F5C
:10472000922F02C081E090E0DF91CF911F91089518
:10473000A4E0B0E0EEE9F3E20C945C2A0E9493223C
:104740008AE080938D0780918D078111FCCF809145
:10475000000181FDA7C085B18B7D85B92B9A84B1FD
:104760008C6284B982E58CBD8CB582608CBD8CB5C1
:104770008E7F8CBD1AE08FEF0E949A221150D9F7DC
:1047800040E050E0BA0180E00E94D922813009F077
:1047900075C084E680938D074AEA51E060E070E0DE
:1047A00088E00E94D922813009F040C08E010F5F5D
:1047B0001F4F780184E0D82ED00E8FEF0E949A22EE
:1047C000F70181937F01DE12F8CF8B81813009F0F0
:1047D00055C08C818A3A09F051C080918D078111B2
:1047E00006C080918D07882309F448C00AC040E0C4
:1047F00050E060E070E489EA0E94D9228111EDCF97
:10480000F0CF40E050E0BA018AE30E94D922811142
:1048100035C08FEF0E949A22F80181938F01DE123A
:10482000F8CF898186FD2CC014E02BC040E050E019
:10483000BA0189EA0E94D922823018F011E001E021
:1048400002C012E009EA80918D07811105C08091B4
:104850008D07882399F009C040E050E0BA01802F0D
:104860000E94D9228111EFCFF2CF40E052E060E008
:1048700070E080E10E94D922882319F010E001C085
:104880001CE010938B070E94B722112349F08091FE
:1048900000018E7F809300018CB58C7F8CBD02C09F
:1048A0000E949322809100012496E7E00C94782ADC
:1048B000809100010895EF92FF921F93CF93DF93B1
:1048C0007C01E9012097A9F18091000180FD33C0AE
:1048D00080918B0783FD07C089E0440F551F661F39
:1048E000771F8A95D1F7C230D10510F411E101C0CC
:1048F00012E1812F0E94D922811113C060E072E081
:10490000C7010E942623892B21F08EEFF81A2197E8
:10491000A9F7123131F440E050E0BA018CE00E9476
:10492000D9220E94B72281E090E0CD2B31F480E0C3
:1049300004C084E001C083E090E0DF91CF911F913B
:10494000FF90EF900895A0E0B0E0E9EAF4E20C9463
:104950005B2A8C016A017B01E901209709F452C0AE
:104960008091000180FD50C08091000182FD4EC009
:1049700080918B0783FD07C099E0CC0CDD1CEE1CF9
:10498000FF1C9A95D1F7C130D10599F4B701A60162
:1049900088E10E94D92281112DC06EEFC8010E94CA
:1049A0005E2331E020E0892B09F030E0C32FD22FC5
:1049B00021C0867031F0AE0160E070E087E90E94AE
:1049C000D922B701A60189E10E94D922811112C022
:1049D0006CEFC8010E945E23892B19F01E5F21979E
:1049E000B9F76DEF80E090E00E945E23892B11F40F
:1049F000C1E0D0E00E94B72281E090E0CD2B41F4ED
:104A000080E006C084E003C083E001C082E090E063
:104A1000CDB7DEB7E8E00C94772AA2E1B0E0E3E19D
:104A2000F5E20C945A2A9091000190FDA7C28B01E7
:104A3000833309F462C198F4833009F48CC028F4FC
:104A4000882309F1813069F19BC2873009F492C152
:104A5000823309F44DC1843009F092C2F8C0863324
:104A600009F471C138F4843309F44CC1853309F475
:104A700054C186C2883309F4E3C108F484C1893380
:104A800009F430C27DC20E94BC2231E020E0892BB3
:104A900009F030E0398B2A8B0E94B72289899A89E4
:104AA00071C240E050E0BA0189E00E94D922811130
:104AB0005FC260E170E0CE0101960E942623892B3F
:104AC00009F456C29981929596959695937088852A
:104AD00049852A859130E1F48F7390E0A0E0B0E041
:104AE000DC01992788270196A11DB11D50E0542FA4
:104AF0004427BA01620F711D860F971FA11DB11DBA
:104B00007AE0880F991FAA1FBB1F7A95D1F798C02A
:104B10004295469546954370F4E08F9FC00111245D
:104B2000840F911D01964F81437050E0542F44270C
:104B3000550F550F840F951FA0E0B0E03E81432F25
:104B40004F703B85331F3327331F340F2370220FE1
:104B5000230F275027C0F0908B0740E050E0BA01A8
:104B6000F2FE28C08DE80E94D922811101C28FEF88
:104B70000E949A2260E170E0CE0101960E942623F5
:104B8000892B09F4F5C1A0E3FA2E8FEF0E949A2237
:104B9000FA94F110FACF2B8522952F7080E190E0E6
:104BA000A0E0B0E004C0880F991FAA1FBB1F2A9580
:104BB000D2F746C089E00E94D9228111D9C160E1B3
:104BC00070E0CE0101960E942623892B09F4D0C102
:104BD0002B858C85F1FE16C0881F8827881F90E0E2
:104BE00001962F73820F911D820F911D2E852295A4
:104BF000269526952370215002C0880F991F2A956B
:104C0000E2F71CC0382F337082958695877090E04C
:104C1000F8E03F9F800D911D112401962C7730E024
:104C200035952795359527952F5F3F4F829FA0019A
:104C3000839F500D929F500D1124CA01A0E0B0E057
:104C4000F80180839183A283B38300E092C1B09086
:104C50008B078B2D867011F481E093C1BE016F5FCD
:104C60007F4F83E30E940D25892BB1F789818295BF
:104C700086958695837019F48B8586FFEDCFF801B4
:104C80004081518162817381C480D580E680F78044
:104C9000B3FC0EC039E0440F551F661F771F3A95CD
:104CA000D1F7E9E0CC0CDD1CEE1CFF1CEA95D1F736
:104CB00080E20E94D9228111CFCFB701A60181E203
:104CC0000E94D9228111C8CF40E050E0BA0186E2AB
:104CD0000E94D9228111C0CF80E395E70E94A022D3
:104CE00031E020E0892B09F030E0832F922F4AC178
:104CF00080918B07FB01808344C040E050E0BA0103
:104D000089E004C040E050E0BA018AE00E94D92264
:104D100081112EC160E170E023C040E050E0BA0193
:104D20008AE30E94D922811123C17801F4E0EF0EB9
:104D3000F11C8FEF0E949A22F80181938F01EE15EA
:104D4000FF05B9F782CF40E050E0BA018DE80E943C
:104D5000D92281110DC18FEF0E949A2260E470E088
:104D6000C8010E94262301E010E0892B09F402C14A
:104D700000E000C10E949322809100018160809335
:104D8000000180E0FEC0FB01438154816581768192
:104D900039E0440F551F661F771F3A95D1F77068A9
:104DA000808190E0A0E0B0E02CE1880F991FAA1F5D
:104DB000BB1F2A95D1F7482B592B6A2B7B2B81815E
:104DC000928101979170A0E0B0E0482B592B6A2B9B
:104DD0007B2B80E30E94D9228111CAC084E6809394
:104DE0008D078FEF0E949A228F3F29F480918D07C3
:104DF0008111F7CFBDC08E3F09F0BAC0F801E7803E
:104E0000F084C180D280CE0CDF1CEC14FD0439F09C
:104E10008FEF0E949A22F70181937F01F6CFF8016C
:104E20008181928102E012E0081B190B0115110526
:104E300009F40BCF8FEF0E949A2201501109F6CF8F
:104E4000FB01438154816581768139E0440F551F10
:104E5000661F771F3A95D1F77068808190E0A0E0D7
:104E6000B0E02CE1880F991FAA1FBB1F2A95D1F72C
:104E7000482B592B6A2B7B2B818192810197917052
:104E8000A0E0B0E0482B592B6A2B7B2B81E30E94DA
:104E9000D92281116DC08FEF0E949A228EEF0E945D
:104EA0009A22F801E780F084C180D280CE0CDF1C0A
:104EB000EC14FD0431F0F70181917F010E949A22E8
:104EC000F7CFF8018181928102E012E0081B190BF3
:104ED0008FEF0115110509F441C00E949A2201507B
:104EE0001109F6CFFB01438154816581768189E008
:104EF000440F551F661F771F8A95D1F7746880810C
:104F000090E0A0E0B0E02CE1880F991FAA1FBB1F22
:104F10002A95D1F7482B592B6A2B7B2B828190E065
:104F2000A0E0B0E0482B592B6A2B7B2B81E30E9439
:104F3000D92281111DC08FEF0E949A228EEF0E940C
:104F40009A22F80181810E949A2201E012E08FEFFB
:104F50000E949A2201501109D1F78FEF0E949A22E4
:104F60008F7101E090E0853009F400E0192F02C054
:104F700001E010E00E94B722C80104C083E001C034
:104F800084E090E06296E9E00C94762A80918D07A7
:104F9000882319F0815080938D0780918C07882396
:104FA00019F0815080938C0780910001897F809354
:104FB000000108951F920F920FB60F9211242F93A4
:104FC0003F934F935F938F939F93EF93FF93209122
:104FD000C0003091C60028718091900790E0019642
:104FE0008F77992740918F0750E04817590739F07C
:104FF00080939007FC01ED56F84F308301C022E00A
:1050000020938E07FF91EF919F918F915F914F9128
:105010003F912F910F900FBE0F901F9018951F92E8
:105020000F920FB60F9211248F939F93EF93FF93DC
:105030009091920780919107981779F0809191074C
:1050400090E001968F77992780939107FC01ED5EA0
:10505000F74F80818093C60005C0E1ECF0E08081CD
:105060008F7D8083FF91EF919F918F910F900FBE65
:105070000F901F901895F894109292071092910734
:105080001092900710928F077894992324F422E0CD
:105090002093C0009F779093C5008093C40088E957
:1050A0008093C10086E08093C2000895F8949091A7
:1050B000900780918F07981304C0789480E091E066
:1050C0000895789480918F0790E001968F779927C3
:1050D00080938F07FC01ED56F84F208180918E0759
:1050E00090E0982F8827820F911D0895F894909151
:1050F000900780918F07981304C0789480E091E026
:1051000008957894E0918F07F0E03196EF77FF27CC
:10511000ED56F84F208180918E0790E0982F8827D8
:10512000820F911D08954091920750E04F5F5F4FAD
:105130004F7755272091910730E024173507D1F399
:10514000FA01ED5EF74F808340939207E1ECF0E0C7
:105150008081806280830895CF93DF93EC01888102
:10516000882331F021960E94932889918111FBCFE9
:10517000DF91CF910895CF93DF93EC012196FC014D
:105180008491882339F00E949328FE01849121960E
:105190008111F9CFDF91CF910895F8948091900714
:1051A00020918F07789490E080589F4F821B91093F
:1051B0008F7799270895F89480918F0780939007AF
:1051C00078940895CF93DF93CDB7DEB7C250D24025
:1051D0000FB6F894DEBF0FBECDBFCE018F5F9D4FDF
:1051E0000E948B0383E390E00E943B2883ED92E0D2
:1051F0000E94AC288FE0EEEAF1E0DE01119601900A
:105200000D928A95E1F78091AB019091AC01A0914C
:10521000AD01888B998BAA8B88E0E0EAF1E0DE0192
:10522000539601900D928A95E1F78091A801909193
:10523000A901A091AA018B8F9C8FAD8F88E0E8E92E
:10524000F1E0DE015E9601900D928A95E1F71EA2D3
:105250001FA218A680EE92E00E94AC2881EF92E097
:105260000E94AC28CE0101960E94AC288AE00E94E0
:1052700093288DEF92E00E94AC2888890E949328A1
:105280008AE00E9493288AE093E00E94AC288B8DEC
:105290000E9493288AE00E94932888E193E00E946C
:1052A000AC28FFCFAA1BBB1B51E107C0AA1FBB1F25
:1052B000A617B70710F0A61BB70B881F991F5A95A2
:1052C000A9F780959095BC01CD010895A1E21A2E11
:1052D000AA1BBB1BFD010DC0AA1FBB1FEE1FFF1F9A
:1052E000A217B307E407F50720F0A21BB30BE40BEA
:1052F000F50B661F771F881F991F1A9469F7609531
:105300007095809590959B01AC01BD01CF010895EA
:10531000EE0FFF1F0590F491E02D09940E94F22AF0
:10532000A59F900DB49F900DA49F800D911D1124F9
:105330000895DF93CF931F930F939A9DF02D219F94
:10534000F00D8B9DF00D8A9DE02DF10D039FF00D6A
:10535000029FE00DF11D4E9DE00DF11D5E9DF00DD3
:105360004F9DF00D7F936F93BF92AF925F934F93DA
:10537000D5010E94F22A8B01AC01D7010E94F22ACA
:10538000EB01E80FF91FD6010E94E9292F913F9107
:10539000D6010E94F22AC60FD71FE81FF91FAF914E
:1053A000BF910E94E9292F913F910E94F22AC60FD6
:1053B000D71FE81FF91FD6010E94F22AE60FF71F38
:1053C0009801BE01CF0111240F911F91CF91DF9160
:1053D00008950E94F22A460F571FC81FD91F08F4CC
:1053E00031960895689401C0E8948F929F92CF936C
:1053F000DF930E94002ADF91CF919F908F900895B4
:1054000088249924F401E401B0E49F93AA279A1513
:105410008B049C04ED05FE05CF05D007A10798F489
:10542000AD2FDC2FCF2FFE2FE92D982C892E982F12
:10543000872F762F652F542F432F322F2227B850D6
:1054400031F7BF9127C01B2EBF91BB27220F331FFF
:10545000441F551F661F771F881F991F881C991CA2
:10546000EE1FFF1FCC1FDD1FAA1FBB1F8A149B044A
:10547000EC05FD05CE05DF05A007B10748F08A1849
:105480009B08EC09FD09CE09DF09A00BB10B2160D7
:105490001A94E1F62EF49401AF01BE01CD01000C87
:1054A00008952F923F924F925F926F927F928F92C8
:1054B0009F92AF92BF92CF92DF92EF92FF920F93A3
:1054C0001F93CF93DF93CDB7DEB7CA1BDB0B0FB6AD
:1054D000F894DEBF0FBECDBF09942A88398848886A
:1054E0005F846E847D848C849B84AA84B984C88400
:1054F000DF80EE80FD800C811B81AA81B981CE0FF7
:10550000D11D0FB6F894DEBF0FBECDBFED010895DB
:105510000F93083090F0982F872F762F652F542FF8
:10552000432F322F22270850F4CF220F331F441F5E
:10553000551F661F771F881F991F0A95B2F70F9195
:10554000089597FB10F8169400080F93083098F010
:105550000850232F342F452F562F672F782F892F50
:10556000902DF4CF059497958795779567955795E6
:105570004795379527950A95AAF70F9108952A0D13
:105580003B1D4C1D5D1D6E1D7F1D801F911F0895CD
:105590000024A7FD00942A0F301D401D501D601DE2
:1055A000701D801D901D08952A193B094C095D0945
:1055B0006E097F09800B910B08952A153B054C0558
:1055C0005D056E057F058007910708950024A7FDFE
:1055D00000942A17300540055005600570058005C8
:1055E00090050895A29FB001B39FC001A39F700DC5
:1055F000811D1124911DB29F700D811D1124911DDB
:105600000895CF93DF938230910510F482E090E00B
:10561000E0919508F091960820E030E0C0E0D0E0FD
:10562000309711F14081518148175907C0F0481750
:10563000590761F482819381209719F09B838A83B3
:105640002BC0909396088093950826C021153105AC
:1056500019F04217530718F49A01BE01DF01EF0158
:105660000280F381E02DDCCF2115310509F1281BE3
:10567000390B2430310590F412968D919C9113973B
:105680006115710521F0FB019383828304C090931F
:10569000960880939508FD01329644C0FD01E20F03
:1056A000F31F81939193225031092D933C933AC07B
:1056B0002091930830919408232B41F42091030109
:1056C00030910401309394082093930820910101B4
:1056D000309102012115310541F42DB73EB74091BB
:1056E000050150910601241B350BE0919308F091C0
:1056F0009408E217F307A0F42E1B3F0B2817390775
:1057000078F0AC014E5F5F4F2417350748F04E0F1D
:105710005F1F50939408409393088193919302C024
:10572000E0E0F0E0CF01DF91CF9108950F931F9358
:10573000CF93DF93009709F48CC0FC01329713825A
:10574000128200919508109196080115110581F4B7
:1057500020813181820F931F20919308309194080A
:105760002817390779F5F0939408E093930871C0EE
:10577000D80140E050E0AE17BF0750F412962D91CB
:105780003C911397AD012115310509F1D901F3CFF2
:105790009D01DA013383228360817181860F971F17
:1057A0008217930769F4EC0128813981260F371F8E
:1057B0002E5F3F4F318320838A819B819383828335
:1057C000452B29F4F0939608E093950842C0139670
:1057D000FC93EE931297ED01499159919E01240F8C
:1057E000351FE217F30771F480819181840F951FB3
:1057F000029611969C938E938281938113969C932B
:105800008E931297E0E0F0E0D80112968D919C9172
:105810001397009719F0F8018C01F6CF8D919C91A8
:1058200098012E5F3F4F820F931F20919308309174
:1058300094082817390769F4309729F410929608CC
:105840001092950802C0138212821093940800935C
:105850009308DF91CF911F910F9108958F929F929E
:10586000AF92BF92CF92DF92EF92FF92CF93DF93EE
:10587000EC01688179818A819B81611571058105BF
:10588000910521F464E279ED8BE597E02DE133EFAA
:1058900041E050E00E94E12C49015A019B01AC011A
:1058A000A7EAB1E40E948E296B017C01ACEEB4EF53
:1058B000A50194010E94032DDC01CB018C0D9D1DDF
:1058C000AE1DBF1DB7FF03C00197A109B048888373
:1058D0009983AA83BB839F77DF91CF91FF90EF904D
:1058E000DF90CF90BF90AF909F908F9008950E94CF
:1058F0002E2C089587E091E00E942E2C0895A0E0C0
:10590000B0E08093070190930801A0930901B09340
:105910000A010895FB01DC0102C001900D92415083
:105920005040D8F70895FB01DC010D900020E9F705
:10593000119701900D920020E1F70895FB01DC0121
:1059400001900D920020E1F70895DC01FB01415028
:10595000504058F049F001900D920020C1F7E61B2D
:10596000F70B3197CF0108951C9201900020E9F7C1
:10597000F6CFFB01DC014150504030F08D91019099
:10598000801919F40020B9F7881B990B0895FB01C1
:1059900051915523A9F0BF01DC014D9145174111EB
:1059A000E1F759F4CD010190002049F04D914015E7
:1059B0004111C9F3FB014111EFCF81E090E0019764
:1059C0000895052E97FB1EF400940E94F82C57FDB5
:1059D00007D00E94662907FC03D04EF40C94F82CE3
:1059E00050954095309521953F4F4F4F5F4F08950B
:1059F00090958095709561957F4F8F4F9F4F08953B
:105A0000B7FF0C948E290E948E29821B930B089558
:045A1000F894FFCF38
:105A14000100009708800001000000809A45418E33
:105A2400418F804545454949498E8F9092924F99BF
:105A34004F555559999A9B9C9D9E9F41494F55A5F9
:105A4400A5A6A7A8A9AAABACADAEAFB0B1B2B3B48A
:105A5400B5B6B7B8B9BABBBCBDBEBFC0C1C2C3C47A
:105A6400C5C6C7C8C9CACBCCCDCECFD0D1D2D3D46A
:105A7400D5D6D7D8D9DADBDCDDDEDFE0E1E2E3E45A
:105A8400E5E6E7E8E9EAEBECEDEEEFF0F1F2F3F44A
:105A9400F5F6F7F8F9FAFBFCFDFEFF01030507092B
:105AA4000E10121416181C1E81C366243C3CFFFF02
:105AB4007E8181818181817E4B00084F0008536182
:105AC4006D706C65000008B464B43C783C2E736659
:105AD40074002E73636C002E747874004661696CD4
