:100000000C9434000C9451000C9451000C94510049
:100010000C9451000C9451000C9451000C9451001C
:100020000C9451000C9451000C9451000C9451000C
:100030000C9451000C9451000C9451000C945100FC
:100040000C9451000C9451000C948D020C94C2023B
:100050000C9451000C9451000C9451000C945100DC
:100060000C9451000C94510011241FBECFEFD8E026
:10007000DEBFCDBF11E0A0E0B1E0E2E4F9E002C0F4
:1000800005900D92AE3CB107D9F722E0AEECB1E09D
:1000900001C01D92A333B207E1F70E94F9030C944B
:1000A0009F040C9400000F931F93CF93DF938B0159
:1000B0004423F9F0E9012F96F90187859089892B6E
:1000C000C1F189E00E94460388810E94460388812D
:1000D00099818017910781F18A81880F990B039686
:1000E000C80FD91F88819981892B59F780E090E04A
:1000F0002BC0E9012F96F90187859089892BF9F0AA
:1001000089E00E94460388810E9446038881998184
:1001100080179107B9F08A81082E000C990B03967D
:10012000C80FD91F88819981892B51F780E090E011
:100130000BC080E090E008C08C2F9D2F05C080E0B0
:1001400090E002C08C2F9D2FDF91CF911F910F91D6
:100150000895EF92FF921F93CF93DF931F92CDB735
:10016000DEB77C01FC0112818DE291E00E945F0309
:10017000F701EE5FFD4F8081918118161906D4F4C6
:10018000EF5FF14020E030E04FEFD701AE5FBD4FB1
:100190004BB989818F5F89831BB989818F5F89837F
:1001A0002F5F3F4F1BB811918D919C91119728178C
:1001B000390774F30F90DF91CF911F91FF90EF906B
:1001C0000895FC0132969C012E5F3D4F1192E2177B
:1001D000F307E1F70E94A90008952F923F924F92F2
:1001E0005F926F927F928F929F92AF92BF92CF92C7
:1001F000DF92EF92FF920F931F93CF93DF93CDB7D0
:10020000DEB72A970FB6F894DEBF0FBECDBFFB0155
:10021000328113160CF086C0A12C3C2C202EDC0160
:10022000AE5FBD4F6894662467F8812C712CBB24A7
:10023000BA9499249A94DB821C83ED822E83CF8218
:1002400008877A836983C42ECC2059F04A2D440F45
:10025000550B09811A81400F511FFA016381748186
:1002600065C029813A812A0D311DA7FC3A95F90113
:100270006381062E000C770B59C0113039F0123013
:1002800041F0111108C0EF80D88405C0EB80DC80FC
:1002900002C0ED80DE80262DED2D0D2C000CFF0B15
:1002A0004E2C0E2C000C5508F12EFA87E98730E011
:1002B00049855A8542235323452B41F0A20142230D
:1002C0005323452B69F06B2D792D0AC0A2014223DF
:1002D0005323452B19F06095709502C0682D772D3A
:1002E0004D915C9111974115F2E05F07E8F4FA0136
:1002F00031961196FC93EE93480F591FFA016283D1
:10030000359527952111D3CF1F2D1F5F133009F08D
:10031000B4CFA394E981FA812281A2160CF494CF80
:1003200080E009C080E007C08EEF05C0E32CD22C2E
:10033000F12C1F2DB0CF2A960FB6F894DEBF0FBE5A
:10034000CDBFDF91CF911F910F91FF90EF90DF9084
:10035000CF90BF90AF909F908F907F906F905F9065
:100360004F903F902F9008952F923F925F926F92FF
:100370007F928F929F92AF92BF92CF92DF92EF9235
:10038000FF920F931F93CF93DF93CDB7DEB72897DC
:100390000FB6F894DEBF0FBECDBF4C011B013A0172
:1003A0000B831C832D83CE82DF82E886FC01EE5F07
:1003B000FD4F1182108255245394FB0180858930B2
:1003C0000CF4512C8AE391E00E945F03C3010E9468
:1003D0005F038AE00E9446038FEF8AB91BB855205D
:1003E00019F08FE787B918B8F3018081882309F4E1
:1003F00062C020E030E0F12C8823BCF4D301A20FCE
:10040000B31F11968C9188234CF480819181A28135
:100410008A839B83AC83F3E0FF0E0DC080819181C2
:100420009C838B83F394F39406C0082E000C990BE5
:100430009A838983F39484E491E00E945F03B980F6
:10044000AA808B2D0E9446038AE00E9446039101F8
:10045000452D6B2D7A2DC4010E9453005C01892B20
:1004600031F481E591E00E945F0381E028C086E6D7
:1004700091E00E945F03F50180810E9446038AE0BB
:100480000E9446038DE691E00E945F03CE80DF80EC
:10049000E8840B811C812D81452DB501C4010E948A
:1004A000ED002F2D0F2C000C330BF301E20FF31F87
:1004B00080818111A1CFC4010E94A90080E028960B
:1004C0000FB6F894DEBF0FBECDBFDF91CF911F9165
:1004D0000F91FF90EF90DF90CF90BF90AF909F90E3
:1004E0008F907F906F905F903F902F900895CF9264
:1004F000DF92EF920F931F93FB01C484D584E684AF
:100500000185128523850E94B4011F910F91EF9000
:10051000DF90CF900895089508951F920F920FB61F
:100520000F9211242F933F934F935F938F939F9339
:10053000EF93FF932091C0003091C6002871809105
:10054000D00190E001968F7199274091CF0150E042
:100550004817590739F08093D001FC01ED52FE4F46
:10056000308301C022E02093CE01FF91EF919F9153
:100570008F915F914F913F912F910F900FBE0F90F0
:100580001F9018951F920F920FB60F9211248F9300
:100590009F93EF93FF939091D2018091D10198178F
:1005A00079F08091D10190E001968F739927809323
:1005B000D101FC01ED50FE4F80818093C60005C043
:1005C000E1ECF0E080818F7D8083FF91EF919F913E
:1005D0008F910F900FBE0F901F901895F894109266
:1005E000D2011092D1011092D0011092CF017894D3
:1005F000992324F422E02093C0009F779093C500B4
:100600008093C40088E98093C10086E08093C20093
:100610000895F8949091D0018091CF01981304C06F
:10062000789480E091E0089578948091CF0190E0F3
:1006300001968F7199278093CF01FC01ED52FE4FF7
:1006400020818091CE0190E0982F8827820F911D04
:100650000895F8949091D0018091CF01981304C02F
:10066000789480E091E008957894E091CF01F0E0F3
:100670003196EF71FF27ED52FE4F20818091CE0120
:1006800090E0982F8827820F911D08954091D20104
:1006900050E04F5F5F4F4F7355272091D10130E0FD
:1006A00024173507D1F3FA01ED50FE4F80834093B4
:1006B000D201E1ECF0E08081806280830895CF93E5
:1006C000DF93EC018881882331F021960E94460354
:1006D00089918111FBCFDF91CF910895CF93DF9363
:1006E000EC012196FC018491882339F00E94460395
:1006F000FE01849121968111F9CFDF91CF91089568
:10070000F8948091D0012091CF01789490E0809668
:10071000821B91098F7199270895F8948091CF01D8
:100720008093D00178940895CF93DF931F92CDB733
:10073000DEB7198289818F5F898389818F5F898381
:1007400089818F5F898389818F5F898389818F5FA9
:1007500089831BB88FEF8AB9E0E0F1E048E051E00F
:1007600038E12FEF0DC02BB980818BB989818F5F64
:1007700089831BB89150B9F73196E417F50711F04A
:10078000932FF1CF0F90DF91CF910895CF93DF9307
:100790001F92CDB7DEB71BB88FEF8AB9198220E060
:1007A00032E08BB999819F5F99838BB999819F5F63
:1007B00099831BB899819F5F998399819F5F9983E2
:1007C0008BB999819F5F99838BB999819F5F998339
:1007D0001BB899819F5F99832150310911F78FE9E7
:1007E0009FE00197F1F700C000000F90DF91CF91DB
:1007F0000895CF93DF93CDB7DEB7C450D3400FB683
:10080000F894DEBF0FBECDBFCE0101960E948B02D1
:100810008FEF8AB98BB983E390E00E94EE0289E7FB
:1008200091E00E945F038FE0EEE1F1E0DE01AB5F5B
:10083000BD4F01900D928A95E1F780911B01909137
:100840001C01A0911D01CC5EDD4F88839983AA8392
:10085000C451D24088E0E0E1F1E0A5E0B2E0AC0FA5
:10086000BD1F529601900D928A95E1F78091180173
:1008700090911901A0911A01C15EDD4F888399837F
:10088000AA83CF51D24088E0E8E0F1E0A5E0B2E0F1
:10089000AC0FBD1F5D9601900D928A95E1F7C65D84
:1008A000DD4F188219821A82CA52D24086E891E03E
:1008B0000E945F0387E991E00E945F03CE018B5F96
:1008C0009D4F0E945F038AE00E94460383EA91E005
:1008D0000E945F03CC5EDD4F8881C451D2400E94EC
:1008E00046038AE00E94460380EB91E00E945F038A
:1008F000C15EDD4F8881CF51D2400E9446038AE01D
:100900000E9446034EEB51E0BE016B5F7D4FCE016E
:1009100001960E94770282EC91E00E945F03CE0173
:1009200001960E948C0280E090E0CC5FDC4F0FB615
:10093000F894DEBF0FBECDBFDF91CF910895F8943C
:02094000FFCFE7
:1009420081C366243C3CFFFF81C366243C3CFFFF1D
:100952007E8181818181817E4B00084F0008536135
:100962006D706C650000088C0000001414537472E2
:1009720065616D696E672E2E0A0053686F77696E26
:10098200673A0900536561726368696E672E2E09C2
:1009920000636861725F64657363206E6F742066C2
:1009A2006F756E640A00466F756E64200053746141
:1009B200636B696E672E2E0A00426567696E6E6907
:1009C2006E672E2E0A0054657374696E6720666F17
:1009D2006E74202E2E0A00466F6E74206E616D6555
:1009E2003A0900466972737420636861723A0900B9
:1009F2005365636F6E6420636861723A09004F4BFE
:0E0A02004F0046696E69736865642E0A000035
:00000001FF
