:100000000C9472000C9493000C9493000C94930045
:100010000C9493000C9493000C9493000C94930014
:100020000C9493000C9493000C9493000C94930004
:100030000C9493000C9493000C9493000C949300F4
:100040000C9493000C9493000C9493000C949300E4
:100050000C9493000C9493000C9493000C949300D4
:100060000C9493000C94B7020C94F0020C9493003F
:100070000C9493000C9493000C9493000C949300B4
:100080000C9493000C9493000C9493000C949300A4
:100090000C9493000C9493000C9493000C94930094
:1000A0000C9493000C9493000C9493000C94930084
:1000B0000C9493000C9493000C9493000C94930074
:1000C0000C9493000C9493000C9493000C94930064
:1000D0000C9493000C9493000C9493000C94930054
:1000E0000C94930011241FBECFEFD1E2DEBFCDBF31
:1000F00000E00CBF12E0A0E0B2E0E4E1FAE000E0D2
:100100000BBF02C007900D92A83EB107D9F723E0BC
:10011000A8EEB2E001C01D92AD3EB207E1F70E9429
:1001200047040C9408050C9400000F931F93CF9381
:10013000DF938B01442311F1E9012F96F9018785A3
:100140009089892BF1F189E00E94780388810E94CF
:1001500078038AE00E94780388819981801791074B
:1001600099F18A81880F990B0396C80FD91F88814E
:100170009981892B41F780E090E02EC0E9012F960C
:10018000F90187859089892B11F189E00E94780314
:1001900088810E9478038AE00E947803888199818F
:1001A00080179107B9F08A81082E000C990B0396ED
:1001B000C80FD91F88819981892B39F780E090E099
:1001C0000BC080E090E008C08C2F9D2F05C080E020
:1001D00090E002C08C2F9D2FDF91CF911F910F9146
:1001E00008952F923F924F925F926F927F928F92DB
:1001F0009F92AF92BF92CF92DF92EF92FF920F93B6
:100200001F93CF93DF93CDB7DEB727970FB6F89440
:10021000DEBF0FBECDBFFC01EE5FFE4F0190F0814F
:10022000E02D1E161F060CF44CC06AC0113039F0C8
:10023000123041F0111108C0FE80EF8005C0FA8035
:10024000EB8002C0FC80ED80292D3A2D8B2DEF2D07
:100250000F2C000CFF0B6E2D0E2C000C770B90E07A
:10026000AF0148235923452B39F0AB0148235923CB
:10027000452B51F44C910BC0AB0148235923452B1E
:1002800029F04C91409503C0402F01C04D2D95950C
:1002900087952150310919F78BB84BB989818F5F48
:1002A0008983CBB81F5F1196133009F0BFCF2FEFB2
:1002B000621A720AF2018081918168167906ECF067
:1002C0001FC0612C712C1C01F2E02F0E311CC12CBF
:1002D00088248A945A831B836C832D834E830F83D7
:1002E0006894992493F8A12C6894BB24B7F8D12C76
:1002F000082D2C012EEF421A520AD1011C2D96CF47
:1003000027960FB6F894DEBF0FBECDBFDF91CF9119
:100310001F910F91FF90EF90DF90CF90BF90AF9023
:100320009F908F907F906F905F904F903F902F9015
:100330000895EF92FF920F931F93CF93DF938C0159
:10034000DB0112968C911297181674F590E0E80173
:10035000CE5FDE4F442341F0E92FEE0FFF0BEA0F93
:10036000FB1FE380F48009C0FD01E90FF11D97FD3B
:10037000FA95E381EE2EEE0FFF08288139812115D1
:1003800081E0380798F4B9016F5F7F4F7983688304
:10039000200F311FF901E2829F5F12968C91129714
:1003A0009817C4F280E003C080E001C08EEFDF91B7
:1003B000CF911F910F91FF90EF9008952F923F9250
:1003C0005F926F927F928F929F92AF92BF92CF92E5
:1003D000DF92EF92FF920F931F93CF93DF93CDB7EE
:1003E000DEB728970FB6F894DEBF0FBECDBF4C0125
:1003F0001B013A010B831C832D83CE82DF82E886AA
:10040000FC01EE5FFE4F1182108255245394FB01D4
:10041000808589300CF4512C85E292E00E94910392
:100420008FEF8AB91BB8552019F08FE787B918B834
:10043000F3018081882309F462C020E030E0F12CD0
:100440008823BCF4D301A20FB31F11968C9188238B
:100450004CF480819181A2818A839B83AC83F3E0F9
:10046000FF0E0DC0808191819C838B83F394F39464
:1004700006C0082E000C990B9A838983F394B980E7
:10048000AA808B2D0E9478038AE00E9478038EE276
:1004900092E00E9491039101452D6B2D7A2DC401AC
:1004A0000E9495005C01892B31F48BE392E00E945D
:1004B000910381E02EC080E592E00E949103F50156
:1004C00080810E9478038AE00E94780387E592E0A9
:1004D0000E949103CE80DF80E8840B811C812D81F6
:1004E000452DB501C4010E9499012F2D0F2C000C40
:1004F000330BF301E20FF31F80818111A1CF0E8135
:100500001F8128854B815C816D81C4010E94F100AF
:1005100080E028960FB6F894DEBF0FBECDBFDF9106
:10052000CF911F910F91FF90EF90DF90CF90BF90F0
:10053000AF909F908F907F906F905F903F902F90A3
:100540000895CF92DF92EF920F931F93FB01C48423
:10055000D584E6840185128523850E94DE011F91E2
:100560000F91EF90DF90CF900895089508951F9216
:100570000F920FB60F9211240BB60F922F933F9349
:100580004F935F938F939F93EF93FF932091C000BE
:100590003091C60028718091EA0290E001968F7731
:1005A00099274091E90250E04817590739F08093A4
:1005B000EA02FC01E351FD4F308301C022E02093A9
:1005C000E802FF91EF919F918F915F914F913F9141
:1005D0002F910F900BBE0F900FBE0F901F9018958C
:1005E0001F920F920FB60F9211240BB60F928F939A
:1005F0009F93EF93FF939091EC028091EB029817F9
:1006000079F08091EB0290E001968F7799278093A3
:10061000EB02FC01E359FC4F80818093C60005C0CA
:10062000E1ECF0E080818F7D8083FF91EF919F91DD
:100630008F910F900BBE0F900FBE0F901F901895CB
:10064000F8941092EC021092EB021092EA021092CF
:10065000E9027894992324F422E02093C0009F7744
:100660009093C5008093C40088E98093C10086E020
:100670008093C2000895F8949091EA028091E90273
:10068000981304C0789480E091E008957894809164
:10069000E90290E001968F7799278093E902FC01A7
:1006A000E351FD4F20818091E80290E0982F882748
:1006B000820F911D0895F8949091EA028091E902C9
:1006C000981304C0789480E091E008957894E091C4
:1006D000E902F0E03196EF77FF27E351FD4F2081EB
:1006E0008091E80290E0982F8827820F911D08954D
:1006F0004091EC0250E04F5F5F4F4F7755272091BC
:10070000EB0230E024173507D1F3FA01E359FC4F2F
:1007100080834093EC02E1ECF0E080818062808392
:100720000895CF93DF93EC018881882331F02196DF
:100730000E94780389918111FBCFDF91CF910895B9
:10074000CF93DF93EC012196FC018491882339F04B
:100750000E947803FE01849121968111F9CFDF91E7
:10076000CF910895F8948091EA022091E90278945B
:1007700090E080589F4F821B91098F7799270895A9
:10078000F8948091E9028093EA0278940895AF92F8
:10079000BF92CF92DF92EF92FF920F931F93CF936E
:1007A000DF931F92CDB7DEB7198289818F5F89836E
:1007B00089818F5F898389818F5F898389818F5F39
:1007C000898389818F5F89831BB88FEF8AB9689489
:1007D000BB24B3F80F2EF8E1AF2EF02DEE24EA94EF
:1007E0000F2EF4EFCF2EF02DDD24D39414C0EBB8F0
:1007F000EBB81BB80C2D1D2D8FE30E947803015020
:100800001109D1F789818F5F8983FA94F110EFCFB5
:10081000BA94BB2011F0FA2CEACF0F90DF91CF9160
:100820001F910F91FF90EF90DF90CF90BF90AF900E
:100830000895CF93DF931F92CDB7DEB71BB88FEF2C
:100840008AB92FEF80E792E0215080409040E1F795
:1008500000C0000020E032E09FEF19829BB989813F
:100860008981181634F089818F5F898389811816F0
:10087000D4F71BB8EFECF7E03197F1F700C00000B8
:100880002150310951F70F90DF91CF910895CF9307
:10089000DF93CDB7DEB7C452D2400FB6F894DEBFB7
:1008A0000FBECDBFCE0101960E94B5028FEF8AB96F
:1008B0008BB983E390E00E94200384E692E00E94DB
:1008C00091038FE0E6E1F2E0DE01AB5FBE4F019005
:1008D0000D928A95E1F78091130290911402A091F4
:1008E0001502CC5EDE4F88839983AA83C451D14020
:1008F00088E0E8E0F2E0A5E0B1E0AC0FBD1F529661
:1009000001900D928A95E1F7809110029091110269
:10091000A0911202C15EDE4F88839983AA83CF51D2
:10092000D14088E0E0E0F2E0A5E0B1E0AC0FBD1F0F
:100930005D9601900D928A95E1F7C65DDE4F1882B3
:1009400019821A82CA52D14081E792E00E94910333
:1009500082E892E00E949103CE018B5F9E4F0E943D
:1009600091038AE00E9478038EE892E00E9491034E
:10097000CC5EDE4F8881C451D1400E9478038AE06A
:100980000E9478038BE992E00E949103C15EDE4FE2
:100990008881CF51D1400E9478038AE00E94780379
:1009A0000E94C70389EA92E00E94910384EB92E0DF
:1009B0000E949103F12C0E94B203892B81F4FBCF9A
:1009C00001E0010F0E943B03E5E0F2E0EC0FFD1FA8
:1009D000E10FF11D17FDFA958083102F01C01F2D27
:1009E0000E94B203892B61F7E5E0F2E0EC0FFD1FF6
:1009F000E10FF11D17FDFA951082AE014B5F5D4FBF
:100A0000BE016B5F7E4FCE0101960E94A102D3CF43
:040A1000F894FFCF88
:100A140081C366243C3CFFFF7E8181818181817E8C
:100A24004B00084F000853616D706C65000008B4FA
:100A340064B43C783C53686F77696E673A005365D9
:100A440061726368696E672E2E0A00636861725F63
:100A540064657363206E6F7420666F756E640A003C
:100A6400466F756E64200053747265616D696E67BC
:100A74002E2E0A00426567696E6E696E672E2E0A15
:100A84000054657374696E6720666F6E74202E2E31
:100A94000A00466F6E74206E616D653A09004669FE
:100AA40072737420636861723A09005365636F6EF0
:100AB4006420636861723A090046696E6973686507
:100AC400642E0A0057616974696E6720666F72202C
:100AD400636F6D6D616E64206E6F772E2053656E4B
:100AE4006420616E7920737472696E6720746F205C
:080AF40073747265616D0A0064
:00000001FF
